:020000040800F2
:1000000000C00020A9450008D3140008D51400083A
:10001000D7140008D9140008DB1400080000000001
:10002000000000000000000000000000DD140008D7
:10003000DF14000800000000E1140008E3140008C9
:10004000F1450008F1450008F1450008F1450008B8
:10005000F1450008F1450008F1450008F1450008A8
:10006000F1450008F1450008F1450008F145000898
:10007000F1450008F1450008F1450008F145000888
:10008000F1450008F1450008F1450008F145000878
:10009000F1450008F1450008F1450008F145000868
:1000A000F1450008F1450008F1450008F145000858
:1000B000F1450008F1450008F1450008F145000848
:1000C000ED140008FD14000819150008F14500089A
:1000D000F1450008F1450008F1450008F145000828
:1000E000F1450008F1450008F1450008F145000818
:1000F000F1450008F1450008F1450008F145000808
:10010000F1450008F1450008F1450008F1450008F7
:10011000F1450008F1450008F1450008F1450008E7
:10012000F1450008F1450008F1450008F1450008D7
:1001300000000000000000000000000000000000BF
:1001400000000000000000000000000000000000AF
:10015000000000000000000000000000000000009F
:10016000000000000000000000000000000000008F
:10017000000000000000000000000000000000007F
:10018000000000000000000000000000000000006F
:10019000000000000000000000000000000000005F
:1001A000000000000000000000000000000000004F
:1001B000000000000000000000000000000000003F
:1001C000000000000000000000000000000000002F
:1001D000000000000000000000000000000000001F
:0401E0005FF8E0F1F3
:1001E80070B50D4E0D4D761BB61006D0002455F88F
:1001F800043B01349847A642F9D1094E094D04F051
:10020800F5F9761BB61006D0002455F8043B0134E6
:100218009847A642F9D170BD4C4600084C460008E4
:10022800504600084C460008830730B548D0541E95
:10023800002A3FD00346CAB201E0013C3AD303F892
:10024800012B9D07F9D1032C2DD9CDB245EA0525FF
:100258000F2C45EA054536D9A4F1100222F00F0CFF
:1002680003F1200EE6444FEA121C03F1100242E9A2
:10027800045542E9025510327245F8D10CF10102D9
:1002880014F00C0F03EB021204F00F0C13D0ACF1B6
:10029800040323F003030433134442F8045B93423A
:1002A800FBD10CF003042CB1CAB21C4403F8012B97
:1002B8009C42FBD130BD64461346002CF4D1F9E7CB
:1002C80003461446BFE71A46A446E0E770B54FF068
:1002D800FF0C4CF4E06C1CEA11541DBF1CEA1355CA
:1002E80094EA0C0F95EA0C0F00F0DEF82C4481EA32
:1002F800030621EA4C5123EA4C5350EA013518BF52
:1003080052EA033541F4801143F4801338D0A0FB3E
:1003180002CE4FF00005E1FB02E506F00042E0FBEB
:1003280003E54FF00006E1FB03569CF0000F18BFF1
:100338004EF0010EA4F1FF04B6F5007F64F5407499
:1003480004D25FEA4E0E6D4146EB060642EAC6212C
:1003580041EA55514FEAC52040EA5E504FEACE2E99
:10036800B4F1FD0C88BFBCF5E06F1ED8BEF1004F9C
:1003780008BF5FEA500E50F1000041EB045170BD18
:1003880006F0004646EA010140EA020081EA03015C
:10039800B4EB5C04C2BFD4EB0C0541EA045170BD58
:1003A80041F480114FF0000E013C00F3AB8014F1D2
:1003B800360FDEBF002001F0004170BDC4F100041B
:1003C800203C35DA0C341BDC04F11404C4F120059C
:1003D80000FA05F320FA04F001FA05F240EA0200F7
:1003E80001F0004221F0004110EBD37021FA04F62D
:1003F80042EB06015EEA430E08BF20EAD37070BDE7
:10040800C4F10C04C4F1200500FA04F320FA05F045
:1004180001FA04F240EA020001F0004110EBD37047
:1004280041F100015EEA430E08BF20EAD37070BDB7
:10043800C4F1200500FA05F24EEA020E20FA04F390
:1004480001FA05F243EA020321FA04F001F000413F
:1004580021FA04F220EA020000EBD3705EEA430EB0
:1004680008BF20EAD37070BD94F0000F0FD101F0DF
:100478000046400041EB010111F4801F08BF013C18
:10048800F7D041EA060195F0000F18BF704703F056
:100498000046520043EB030313F4801F08BF013DDD
:1004A800F7D043EA0603704794EA0C0F0CEA135599
:1004B80018BF95EA0C0F0CD050EA410618BF52EA53
:1004C8004306D1D181EA030101F000414FF0000059
:1004D80070BD50EA410606BF1046194652EA430667
:1004E80019D094EA0C0F02D150EA013613D195EADB
:1004F8000C0F05D152EA03361CBF104619460AD123
:1005080081EA030101F0004141F0FE4141F470012C
:100518004FF0000070BD41F0FE4141F4780170BD1C
:1005280081F0004102E000BF83F0004330B54FEA9C
:1005380041044FEA430594EA050F08BF90EA020F09
:100548001FBF54EA000C55EA020C7FEA645C7FEA9C
:10055800655C00F0E2804FEA5454D4EB5555B8BFBF
:100568006D420CDD2C4480EA020281EA030382EA30
:10057800000083EA010180EA020281EA0303362DC2
:1005880088BF30BD11F0004F4FEA01314FF4801C95
:100598004CEA113102D0404261EB410113F0004FA7
:1005A8004FEA03334CEA133302D0524263EB43035E
:1005B80094EA050F00F0A780A4F10104D5F1200EFC
:1005C8000DDB02FA0EFC22FA05F2801841F1000157
:1005D80003FA0EF2801843FA05F359410EE0A5F12B
:1005E80020050EF1200E012A03FA0EFC28BF4CF05C
:1005F800020C43FA05F3C01851EBE37101F0004512
:1006080007D54FF0000EDCF1000C7EEB00006EEB1E
:100618000101B1F5801F1BD3B1F5001F0CD34908A8
:100628005FEA30004FEA3C0C04F101044FEA4452FF
:1006380012F5800F80F09A80BCF1004F08BF5FEA86
:10064800500C50F1000041EB045141EA050130BD66
:100658005FEA4C0C404141EB0101013C28BFB1F578
:10066800801FE9D291F0000F04BF01460020B1FAC3
:1006780081F308BF2033A3F10B03B3F120020CDA96
:100688000C3208DD02F1140CC2F10C0201FA0CF074
:1006980021FA02F10CE002F11402D8BFC2F1200CD9
:1006A80001FA02F120FA0CFCDCBF41EA0C0190408F
:1006B800E41AA2BF01EB0451294330BD6FEA0404D8
:1006C8001F3C1CDA0C340EDC04F11404C4F12002C3
:1006D80020FA04F001FA02F340EA030021FA04F3D5
:1006E80045EA030130BDC4F10C04C4F1200220FA2C
:1006F80002F001FA04F340EA0300294630BD21FA6A
:1007080004F0294630BD94F0000F83F4801306BF2F
:1007180081F480110134013D4EE77FEA645C18BF23
:100728007FEA655C29D094EA050F08BF90EA020FBA
:1007380005D054EA000C04BF1946104630BD91EAB2
:10074800030F1EBF0021002030BD5FEA545C05D1B5
:100758004000494128BF41F0004130BD14F58004F4
:100768003CBF01F5801130BD01F0004545F0FE4168
:1007780041F470014FF0000030BD7FEA645C1ABF9D
:10078800194610467FEA655C1CBF0B46024650EAD4
:10079800013406BF52EA033591EA030F41F4002100
:1007A80030BD00BF90F0000F04BF0021704730B586
:1007B8004FF4806404F132044FF000054FF000015B
:1007C80050E700BF90F0000F04BF0021704730B51C
:1007D8004FF4806404F1320410F0004548BF4042F1
:1007E8004FF000013EE700BF42004FEAE2014FEA46
:1007F80031014FEA02701FBF12F07F4393F07F4F21
:1008080081F06051704732F07F4208BF704793F023
:100818007F4F04BF41F40021704730B54FF4607436
:1008280001F0004521F000411CE700BF50EA010239
:1008380008BF704730B54FF000050AE050EA0102E2
:1008480008BF704730B511F0004502D5404261EB52
:1008580041014FF4806404F132045FEA915C3FF493
:10086800D8AE4FF003025FEADC0C18BF03325FEA30
:10087800DC0C18BF033202EBDC02C2F1200300FAE1
:1008880003FC20FA02F001FA03FE40EA0E0021FA06
:1008980002F11444BDE600BF4FEA4102B2F1E04361
:1008A80024BFB3F5001CDCF1FE5C0DD901F0004C4F
:1008B8004FEAC0024CEA5070B2F1004F40EB83009F
:1008C80008BF20F00100704711F0804F21D113F1CB
:1008D8003872BCBF01F00040704741F480114FEA04
:1008E8005252C2F11802C2F1200C10FA0CF320FA8D
:1008F80002F018BF40F001004FEAC1234FEAD323AA
:1009080003FA0CFC40EA0C0023FA02F34FEA430313
:10091800CCE77FEA625307D150EA01331EBF4FF09C
:10092800FE4040F44000704701F0004040F0FE40B7
:1009380040F40000704700BF80F0004002E000BFB4
:1009480081F0004142001FBF5FEA410392EA030FB2
:100958007FEA226C7FEA236C6AD04FEA1262D2EBFC
:100968001363C1BFD218414048404140B8BF5B4201
:10097800192B88BF704710F0004F40F4000020F09A
:100988007F4018BF404211F0004F41F4000121F0B0
:100998007F4118BF494292EA030F3FD0A2F10102FA
:1009A80041FA03FC10EB0C00C3F1200301FA03F138
:1009B80000F0004302D5494260EB4000B0F5000F5B
:1009C80013D3B0F1807F06D340084FEA310102F11A
:1009D8000102FE2A51D2B1F1004F40EBC25008BFCC
:1009E80020F0010040EA03007047490040EB000096
:1009F800013A28BFB0F5000FEDD2B0FA80FCACF197
:100A0800080CB2EB0C0200FA0CF0AABF00EBC250C3
:100A180052421843BCBFD0401843704792F0000FB1
:100A280081F4000106BF80F400000132013BB5E704
:100A38004FEA41037FEA226C18BF7FEA236C21D07A
:100A480092EA030F04D092F0000F08BF08467047DF
:100A580090EA010F1CBF0020704712F07F4F04D1AD
:100A6800400028BF40F00040704712F100723CBFC0
:100A780000F50000704700F0004343F0FE4040F4EA
:100A8800000070477FEA226216BF08467FEA2363A8
:100A98000146420206BF5FEA412390EA010F40F493
:100AA800800070474FF0000304E000BF10F00043DF
:100AB80048BF40425FEA000C08BF704743F09643C6
:100AC80001464FF000001CE050EA010208BF7047E1
:100AD8004FF000030AE000BF50EA010208BF704768
:100AE80011F0004302D5404261EB41015FEA010C7D
:100AF80002BF84460146002043F0B64308BFA3F175
:100B08008053A3F50003BCFA8CF2083AA3EBC25356
:100B180010DB01FA02FC634400FA02FCC2F1200275
:100B2800BCF1004F20FA02F243EB020008BF20F0AC
:100B38000100704702F1200201FA02FCC2F1200212
:100B480050EA4C0021FA02F243EB020008BF20EA07
:100B5800DC7070474FF0FF0C1CEAD0521EBF1CEA35
:100B6800D15392EA0C0F93EA0C0F6FD01A4480EA23
:100B7800010C400218BF5FEA41211ED04FF000630C
:100B880043EA501043EA5111A0FB01310CF0004038
:100B9800B1F5000F3EBF490041EAD3715B0040EA5E
:100BA800010062F17F02FD2A1DD8B3F1004F40EB2E
:100BB800C25008BF20F00100704790F0000F0CF001
:100BC800004C08BF49024CEA502040EA51207F3AC5
:100BD800C2BFD2F1FF0340EAC250704740F40000A0
:100BE8004FF00003013A5DDC12F1190FDCBF00F091
:100BF80000407047C2F10002410021FA02F1C2F13F
:100C0800200200FA02FC5FEA310040F1000053EADA
:100C18004C0308BF20EADC70704792F0000F00F028
:100C2800004C02BF400010F4000F013AF9D040EA2E
:100C38000C0093F0000F01F0004C02BF490011F4C2
:100C4800000F013BF9D041EA0C018FE70CEAD153C0
:100C580092EA0C0F18BF93EA0C0F0AD030F0004C40
:100C680018BF31F0004CD8D180EA010000F00040F4
:100C7800704790F0000F17BF90F0004F084691F0B2
:100C8800000F91F0004F14D092EA0C0F01D14202EC
:100C98000FD193EA0C0F03D14B0218BF084608D1B5
:100CA80080EA010000F0004040F0FE4040F40000FF
:100CB800704740F0FE4040F4400070474FF0FF0C92
:100CC8001CEAD0521EBF1CEAD15392EA0C0F93EAD9
:100CD8000C0F69D0A2EB030280EA010C49024FEA2B
:100CE800402037D04FF0805343EA111143EA1013E4
:100CF8000CF000408B4238BF5B0042F17D024FF49C
:100D0800000C8B4224BF5B1A40EA0C00B3EB510F76
:100D180024BFA3EB510340EA5C00B3EB910F24BF5F
:100D2800A3EB910340EA9C00B3EBD10F24BFA3EBE4
:100D3800D10340EADC001B0118BF5FEA1C1CE0D1AC
:100D4800FD2A3FF650AF8B4240EBC25008BF20F05F
:100D5800010070470CF0004C4CEA50207F32C2BFB3
:100D6800D2F1FF0340EAC250704740F400004FF050
:100D78000003013A37E792F0000F00F0004C02BF81
:100D8800400010F4000F013AF9D040EA0C0093F04B
:100D9800000F01F0004C02BF490011F4000F013BA5
:100DA800F9D041EA0C0195E70CEAD15392EA0C0F0D
:100DB80008D142027FF47DAF93EA0C0F7FF470AF45
:100DC800084676E793EA0C0F04D14B023FF44CAF88
:100DD80008466EE730F0004C18BF31F0004CCAD11D
:100DE80030F000427FF45CAF31F000437FF43CAF59
:100DF8005FE700BF4FF0FF3C06E000BF4FF0010C7B
:100E080002E000BF4FF0010C4DF804CD4FEA40025C
:100E18004FEA41037FEA226C18BF7FEA236C11D0A6
:100E280001B052EA530C18BF90EA010F58BFB2EB59
:100E3800030088BFC81738BF6FEAE17018BF40F0D9
:100E4800010070477FEA226C02D15FEA402C05D18D
:100E58007FEA236CE4D15FEA412CE1D05DF8040B12
:100E6800704700BF844608466146FFE70FB5FFF7A5
:100E7800C9FF002848BF10F1000F0FBD4DF808ED5D
:100E8800FFF7F4FF0CBF012000205DF808FB00BF4E
:100E98004DF808EDFFF7EAFF34BF012000205DF8A8
:100EA80008FB00BF4DF808EDFFF7E0FF94BF0120F5
:100EB80000205DF808FB00BF4DF808EDFFF7D2FFF2
:100EC80094BF012000205DF808FB00BF4DF808ED35
:100ED800FFF7C8FF34BF012000205DF808FB00BF02
:100EE80010B5054C237833B9044B13B10448AFF35C
:100EF80000800123237010BD0C00002000000000BA
:100F0800F445000808B5034B1BB103490348AFF388
:100F1800008008BD0000000010000020F445000813
:100F280072B6FEE700B597B0282200210CA8FFF79B
:100F38007BF900230793089309930A930B93019372
:100F48000293039304930593069301220C924FF4A2
:100F580080330D9310920222139214934FF4E013EE
:100F680015930CA800F0ECFEC8B90F2307930221D3
:100F78000891002309934FF480620A920B9307A803
:100F880001F010F968B9022301934FF40043039369
:100F980001A801F0E3F930B917B05DF804FBFFF7D9
:100FA800BFFFFFF7BDFFFFF7BBFF000008B500F06C
:100FB80079FEFFF7B7FF00F027F800F04FF800F0D0
:100FC800D9F800F0C7F900F0E3F903F027F90A208F
:100FD80000F08CFE074800F0BFFD0A2000F086FEF6
:100FE800054800F0B9FD054A0549064803F078F9B7
:100FF800FEE700BF5C0000202C000020CDCC6C4038
:10100800333373407C01002084B0134B9A6942F05B
:1010180010029A619A6902F010020092009A9A6985
:1010280042F020029A619A6902F020020192019A24
:101038009A6942F004029A619A6902F004020292E3
:10104800029A9A6942F008029A619B6903F00803C0
:101058000393039B04B070470010024000B585B0AD
:1010680000230193029303934048414A02604FF4DE
:101078008072826003730122027582614FF46022DC
:10108800C26143600823036100F0B8FC002851D115
:1010980008230193012302930323039301A93348EF
:1010A80000F026FB002848D109230193022302936C
:1010B80001A92E4800F01CFB002841D10A23019306
:1010C8000323029301A9294800F012FB00283AD112
:1010D8000B230193042302930DEB0301234800F033
:1010E80007FB002832D10C2301930523029301A9A1
:1010F8001E4800F0FDFA60BB0D23019306230293FE
:1011080001A91A4800F0F4FA30BB0E230193072313
:10111800029301A9154800F0EBFA00BB0F230193D5
:101128000823029301A9114800F0E2FAD0B905B0EA
:101138005DF804FBFFF7F4FEAAE7FFF7F1FEB3E75B
:10114800FFF7EEFEBAE7FFF7EBFEC1E7FFF7E8FEB1
:10115800C9E7FFF7E5FECFE7FFF7E2FED5E7FFF7C0
:10116800DFFEDBE7FFF7DCFEE1E700BF5C00002005
:101178000024014000B585B0002301930293039336
:101188004048414A02604FF4807282600373012232
:10119800027582614FF46022C261436008230361D3
:1011A80000F02CFC002851D1002301930123029365
:1011B8000323039301A9334800F09AFA002848D181
:1011C800012301930223029301A92E4800F090FA0B
:1011D800002841D1022301930323029301A929483E
:1011E80000F086FA00283AD10323019304230293DE
:1011F8000DEB0301234800F07BFA002832D10423C9
:1012080001930523029301A91E4800F071FA60BBFF
:10121800052301930623029301A91A4800F068FAEE
:1012280030BB062301930723029301A9154800F058
:101238005FFA00BB072301930823029301A9114811
:1012480000F056FAD0B905B05DF804FBFFF768FE68
:10125800AAE7FFF765FEB3E7FFF762FEBAE7FFF715
:101268005FFEC1E7FFF75CFEC9E7FFF759FECFE76E
:10127800FFF756FED5E7FFF753FEDBE7FFF750FE13
:10128800E1E700BF2C0000200028014010B58AB01B
:10129800002306930793089309930368274A934208
:1012A80004D0274A93422CD00AB010BD254B9A6926
:1012B80042F400729A619A6902F400720192019AEA
:1012C8009A6942F010029A619A6902F01002029239
:1012D800029A9A6942F008029A619B6903F008032E
:1012E8000393039B3F2306930324079406A91648F8
:1012F80001F03AF90694079406A9144801F034F964
:10130800D2E7104B9A6942F480629A619A6902F4B2
:1013180080620492049A9A6942F004029A619B6975
:1013280003F004030593059BFF2306930323079308
:1013380006A9074801F018F9B6E700BF00240140E4
:10134800002801400010024000100140000C01403C
:101358000008014008B50B480B4B03600B4B43607A
:1013680000238360C3604FF480420261436183615C
:10137800C361036201F0D4FE00B908BDFFF7D0FDD8
:10138800FBE700BFE000002000540040A0860100F9
:1013980008B50E480E4B03600E4B43600023836074
:1013A800C3604FF48042026143618361C361036299
:1013B80001F0B6FE30B9054B1A68536843F4007360
:1013C800536008BDFFF7ACFDF5E700BF8C000020B7
:1013D80000580040A086010010B588B0002304938F
:1013E8000593069307930368324A934204D0324A1E
:1013F80093422FD008B010BD304CA36943F00803C6
:10140800A361A36903F008030093009B4FF44073A2
:101418000493122305930323079304A9284801F092
:10142800A3F8284A536843F0E06343F0020353608B
:10143800E36943F40013E361E36903F400130193E0
:10144800019B00221146202001F0AAFA202001F079
:10145800B7FACFE7194CA36943F00803A361A3695E
:1014680003F008030293029B4FF440630493122392
:1014780005930323079304A9114801F075F8E3695C
:1014880043F48003E361E36903F480030393039B5C
:1014980000221146212001F083FA212001F090FA60
:1014A80000221146222001F07BFA222001F088FA5E
:1014B800A0E700BF00540040005800400010024060
:1014C800000C0140000001407047FEE7FEE7FEE720
:1014D800FEE7FEE770477047704708B500F0F4FB79
:1014E80008BD000008B5024802F0ECFD08BD00BFC9
:1014F800E000002008B5044A13680133136003486C
:1015080002F010FD08BD00BF280000208C0000205C
:1015180008B5024802F0D6FD08BD00BF8C000020C7
:1015280082B00E4B9A6942F001029A619A6902F000
:1015380001020092009ADA6942F08052DA61DB69AE
:1015480003F080530193019B054A536823F0E0633D
:1015580043F00073536002B0704700BF00100240B0
:1015680000000140F0B583B005460C460023019306
:1015780000F0B6FB2B689A6812F4807F23D10746E7
:101588005A6812F4807F03D1DB6A13F4700F29D0F4
:10159800504B1E68022000F06DFFB6FBF0F62B687A
:1015A80019694D4A114236D1D96802F15C4211429B
:1015B80031D11969494A114240D1DA68484B1A4277
:1015C8003ED0292341E0AB6A43F02003AB620023FD
:1015D80085F82430012003B0F0BD2B681B6813F098
:1015E800020F0FD02B681B6813F0020F4FD1B4F114
:1015F800FF3FF7D0002CF0D000F072FBC31BA342D2
:10160800F0D9EAE7AB6A43F00403AB62002385F83C
:1016180024300320DFE71969304A114204D1D96820
:1016280002F16E4211420DD019692E4A0A405AB988
:10163800DA682C4B13405BB1FC2306E0292304E055
:10164800142302E0542300E0FC2303FB06F607E022
:101658005423FAE7019BB34210D3019B0133019352
:10166800019BB34213D2B4F1FF3FF6D0002CF1D066
:1016780000F036FBC01BA042EFD9EBE7AB6A43F0A2
:101688000403AB62002385F824300320A3E72B680A
:101698006FF012021A60AB6A43F40073AB622B68F6
:1016A8009B6803F46023B3F5602F01D0002092E714
:1016B800287B60B9AB6A23F48073AB62AB6A13F41E
:1016C800805F88D1AB6A43F00103AB6283E70020F7
:1016D80081E700BF0800002024499224922449127F
:1016E80092244900499224000368D86C704700008E
:1016F80030B482B00022019290F82420012A00F030
:101708008F800346012280F824204A68062A2DD8B3
:101718000468606B02EB8202053A4FF01F0C0CFA6A
:1017280002FC20EA0C000D6805FA02F2024362632B
:101738000A68092A38D91C68E06802EB42021E3A96
:101748004FF0070C0CFA02FC20EA0C008D6805FA31
:1017580002F20243E2600A68103A012A34D90020F2
:10176800002283F8242002B030BC70470C2A0DD820
:101778000568286B02EB8202233A1F24944020EA72
:1017880004000C68944020432863D1E70568E86AA0
:1017980002EB8202413A1F24944020EA04000C68BC
:1017A80094402043E862C3E71C68206902EB4202C8
:1017B8004FF0070C0CFA02FC20EA0C008D6805FAC1
:1017C80002F202432261C6E71A681648824205D02F
:1017D8009A6A42F020029A620120C1E7906810F4E8
:1017E800000F1BD1906840F4000090600A68102A2E
:1017F80001D00020B4E70C4A12680C49A1FB021280
:10180800920C02EB82025200019202E0019A013A24
:101818000192019A002AF9D10020A1E700209FE750
:101828000220A0E7002401400800002083DE1B43BB
:10183800806A704730B583B00023019303689A68C3
:1018480012F0010F33D104469A6842F001029A60FF
:10185800184B1B68184AA2FB03239B0C019302E058
:10186800019B013B0193019B002BF9D100F038FA51
:10187800054623689B6813F0010F16D100F030FA73
:10188800431B022BF5D923689B6813F0010FF0D195
:10189800A36A43F01003A362E36A43F00103E3621F
:1018A800002384F82430012002E0002000E000201A
:1018B80003B030BD0800002083DE1B4390F82430BD
:1018C800012B68D010B50446012380F82430FFF7B7
:1018D800B1FF00285BD1A36A23F4407323F001030E
:1018E80043F48073A36223682C4A934227D0A26AE8
:1018F80022F48012A2625A6812F4806F05D0A26A9C
:1019080022F4405242F48052A262A26A12F4805F2A
:101918002BD0E26A22F00602E262002284F8242038
:101928006FF002021A6023689A6802F46022B2F526
:10193800602F1DD09A6842F480129A602AE0A2F5BE
:101948008062526812F4702FD1D0A26A42F48012D9
:10195800A262134A526812F4806FD6D0A26A22F4A7
:10196800405242F48052A262CFE70022E262D4E7FA
:101978000A4A934204D09A6842F4A0029A6009E0A5
:10198800A2F58062526812F4702FD3D1F3E70023D6
:1019980084F8243010BD0220704700BF00280140A1
:1019A8000024014038B503689A6812F0010F01D18C
:1019B800002038BD04469A6822F001029A6000F0BF
:1019C8008FF9054623689B6813F0010F13D000F0C8
:1019D80087F9431B022BF5D923689B6813F0010F85
:1019E800F0D0A36A43F01003A362E36A43F0010353
:1019F800E3620120DDE70020DBE70000002800F0BB
:101A0800888070B50446836A002B52D02046FFF7C1
:101A1800C9FFA36A13F0100375D1002873D1A26A15
:101A280022F4885222F0020242F00202A2626268A4
:101A3800266839498E4242D0E1690A43217B42EA4D
:101A48004102A568B5F5807F02D0012D3ED01D4624
:101A580094F814C0BCF1010F3BD0716821F46941BE
:101A6800294371602568AE682C4931401143A9604B
:101A7800A168B1F5807F01D0012902D12369013B1A
:101A88001B052568E96A21F470010B43EB622368A2
:101A98009968234B0B409A422CD0A36A23F0120377
:101AA80043F01003A362E36A43F00103E3620120F9
:101AB8002EE0C36280F82430FFF7E8FBA6E7E1696F
:101AC800B1F5402FB9D14FF40021B6E74FF4807536
:101AD800BEE731B9A169013945EA413141F40065F0
:101AE800BBE7A16A41F02001A162E16A41F001016E
:101AF800E162B2E70023E362A36A23F0030343F041
:101B08000103A36204E0A36A43F01003A362012067
:101B180070BD0120704700BF003C0140FDF7E1FFA8
:101B2800FE0E1FFF90F82430012B13D010B5044689
:101B3800012380F82430FFF735FF38B9A36A23F46E
:101B4800885323F0010343F00103A362002384F8C0
:101B5800243010BD0220704770B582B00023019375
:101B680090F82430012B72D00446012380F82430E9
:101B7800FFF718FF2046FFF75DFE054628B1002352
:101B880084F82430284602B070BDA36A23F4885331
:101B980023F0020343F00203A3622E4B1E680220C7
:101BA80000F068FCB6FBF0F67600019602E0019BB7
:101BB800013B0193019B002BF9D12268936843F004
:101BC8000803936000F08CF8064623689A6812F0C0
:101BD800080F14D000F084F8801B0A28F5D9236870
:101BE8009B6813F0080FF0D0A36A23F0120343F0A8
:101BF8001003A362002384F824300125C2E79A6801
:101C080042F004029A6000F06BF8064623689B686D
:101C180013F0040F14D000F063F8801B0A28F5D9DC
:101C280023689B6813F0040FF0D0A36A23F0120313
:101C380043F01003A362002384F824300125A1E7B0
:101C4800A36A23F0030343F00103A36297E7022585
:101C580098E700BF0800002010B504460E4B1A781C
:101C68004FF47A73B3FBF2F30C4A1068B0FBF3F04D
:101C780000F0B4FE68B90F2C01D901200AE0002257
:101C880021464FF0FF3000F08BFE054B1C60002012
:101C980000E0012010BD00BF000000200800002067
:101CA8000400002008B5074A136843F010031360C6
:101CB800032000F063FE0F20FFF7CEFFFFF730FC94
:101CC800002008BD00200240034A1168034B1B781E
:101CD8000B441360704700BF34010020000000204F
:101CE800014B1868704700BF3401002038B504461E
:101CF800FFF7F6FF0546B4F1FF3F02D0044B1B780F
:101D08001C44FFF7EDFF401BA042FAD338BD00BFCB
:101D18000000002082B0084B1B68084AA2FB03237E
:101D28005B0A00FB03F3019300BF019B5A1E01925B
:101D3800002BF9D102B0704708000020D34D621083
:101D4800002800F0F18170B582B00446036813F0F2
:101D5800010F2CD0994B5B6803F00C03042B1DD0AA
:101D6800964B5B6803F00C03082B12D06368B3F53D
:101D7800803F41D0002B55D103F1804303F5043354
:101D88001A6822F480321A601A6822F480221A60D3
:101D980037E08A4B5B6813F4803FE7D0874B1B68BA
:101DA80013F4003F03D06368002B00F0BF81236861
:101DB80013F0020F75D0814B5B6813F00C0F5FD0E6
:101DC8007E4B5B6803F00C03082B54D02369002B6F
:101DD80000F08A807A4B01221A60FFF781FF0546DE
:101DE800764B1B6813F0020F75D1FFF779FF401B84
:101DF8000228F5D903209EE1704A136843F4803322
:101E08001360636843B3FFF76BFF05466B4B1B68B2
:101E180013F4003FCBD1FFF763FF401B6428F5D9CB
:101E2800032088E1B3F5A02F09D0644B1A6822F487
:101E380080321A601A6822F480221A60E1E703F1FE
:101E48008043A3F53C331A6842F480221A601A686A
:101E580042F480321A60D4E7FFF742FF0546574B39
:101E68001B6813F4003FA2D0FFF73AFF401B642819
:101E7800F5D903205FE1514B5B6813F4803FA5D18E
:101E88004E4B1B6813F0020F03D02369012B40F05F
:101E98004F814A4A136823F0F803616943EAC10392
:101EA8001360236813F0080F33D0A369002B5CD0AC
:101EB800434B0122C3F88024FFF712FF05463F4B2E
:101EC8005B6A13F0020F21D1FFF70AFF401B0228BB
:101ED800F5D903202FE1394A136823F0F803616923
:101EE80043EAC1031360DCE7354B00221A60FFF7B1
:101EF800F7FE0546314B1B6813F0020FD1D0FFF7F0
:101F0800EFFE401B0228F5D9032014E10120FFF75A
:101F180001FF236813F0040F00F09680274BDB695C
:101F280013F0805F34D1254BDA6942F08052DA61D0
:101F3800DB6903F080530193019B0125214B1B684A
:101F480013F4807F26D0E368012B3DD0002B53D1BA
:101F580003F1804303F504331A6A22F001021A627E
:101F68001A6A22F004021A6233E0154B0022C3F801
:101F78008024FFF7B5FE0546104B5B6A13F0020F8D
:101F8800C7D0FFF7ADFE401B0228F5D90320D2E0E9
:101F98000025D3E70B4A136843F480731360FFF7F7
:101FA8009FFE0646074B1B6813F4807FCBD1FFF7D3
:101FB80097FE801B6428F5D90320BCE0001002407E
:101FC80000004242007000405F4A136A43F0010378
:101FD8001362E36833B3FFF783FE06465A4B1B6A66
:101FE80013F0020F2FD1FFF77BFE801B41F28833DD
:101FF8009842F3D903209EE0052B09D0524B1A6A68
:1020080022F001021A621A6A22F004021A62E0E758
:102018004D4B1A6A42F004021A621A6A42F001022F
:102028001A62D6E7FFF75CFE0646474B1B6A13F0B9
:10203800020F08D0FFF754FE801B41F28833984204
:10204800F3D9032077E0E5B9E369002B72D03E4A63
:10205800526802F00C02082A56D0022B17D03B4BCC
:1020680000221A66FFF73CFE0446374B1B6813F044
:10207800007F47D0FFF734FE001B0228F5D9032064
:1020880059E0314AD36923F08053D361DCE72F4B01
:1020980000221A66FFF724FE05462B4B1B6813F037
:1020A800007F06D0FFF71CFE401B0228F5D903204D
:1020B80041E0236AB3F5803F1AD023494B6823F4E3
:1020C8007413226A606A024313434B601F4B012258
:1020D8001A66FFF705FE04461B4B1B6813F0007FCA
:1020E8000ED1FFF7FDFD001B0228F5D9032022E0E1
:1020F800154A536823F40033A1680B435360DCE7A7
:10210800002018E0002016E0012B16D00E4B5B686B
:1021180003F48031226A914211D103F47013626A88
:1021280093420ED1002006E001207047012002E012
:10213800012000E0002002B070BD0120FBE7012073
:10214800F9E70120F7E700BF001002400000424213
:102158000F4B5B6803F00C02082A01D00D4870474A
:10216800C3F383420C49885C13F4803F0BD0084BBF
:102178005B68C3F34043094AD35C064A02FB00F09C
:10218800B0FBF3F07047064B03FB00F0704700BF4D
:102198000010024000127A00104600080C460008A1
:1021A80000093D00002800F0A08070B50D460446E7
:1021B800524B1B6803F007038B420BD24F4A13683C
:1021C80023F007030B431360136803F007038B42E4
:1021D80040F08D80236813F0020F17D013F0040F1E
:1021E80004D0474A536843F4E0635360236813F00C
:1021F800080F04D0424A536843F460535360404A7E
:10220800536823F0F003A1680B435360236813F06D
:10221800010F31D06368012B20D0022B25D0384A1A
:10222800126812F0020F64D035494A6822F003029E
:1022380013434B60FFF754FD0646314B5B6803F0D0
:102248000C036268B3EB820F16D0FFF749FD801BC1
:1022580041F288339842F0D9032045E0284A1268B1
:1022680012F4003FE0D101203EE0254A126812F046
:10227800007FD9D1012037E0204B1B6803F007030A
:10228800AB420AD91D4A136823F007032B43136096
:10229800136803F00703AB422DD1236813F0040F32
:1022A80006D0174A536823F4E063E1680B43536090
:1022B800236813F0080F07D0114A536823F46053BA
:1022C800216943EAC1035360FFF742FF0C4B5B6887
:1022D800C3F303130B4AD35CD8400B4B18600B4B6A
:1022E8001868FFF7B9FC002070BD01207047012075
:1022F800FAE70120F8E70120F6E700BF00200240D6
:10230800001002403C46000808000020040000209D
:10231800014B1868704700BF0800002008B5FFF798
:10232800F7FF044B5B68C3F30223034AD35CD8402E
:1023380008BD00BF001002403446000808B5FFF78A
:10234800E7FF044B5B68C3F3C223034AD35CD8405E
:1023580008BD00BF001002403446000870B582B0C6
:102368000446036813F0010F36D03F4BDB6913F0C6
:10237800805F49D13C4BDA6942F08052DA61DB690F
:1023880003F080530193019B0125384B1B6813F41C
:10239800807F3BD0344B1B6A13F4407313D06268C0
:1023A80002F440729A420ED02F4A136A23F4407006
:1023B8002F490126C1F840640026C1F84064106224
:1023C80013F0010F36D1284A136A23F44073616869
:1023D8000B431362002D3ED1236813F0020F06D081
:1023E800214A536823F44043A1680B435360236890
:1023F80013F0100F34D01C4A536823F4800361692A
:102408000B43536000202CE00025BEE7174A1368F1
:1024180043F480731360FFF763FC0646134B1B6895
:1024280013F4807FB6D1FFF75BFC801B6428F5D9D5
:10243800032016E0FFF754FC06460B4B1B6A13F00B
:10244800020FC0D1FFF74CFC801B41F28833984241
:10245800F3D9032005E0D36923F08053D361BBE7A8
:10246800002002B070BD00BF0010024000700040A4
:102478000000424208B501380F2863D8DFE800F0B1
:102488003557622F62626232626262626262620819
:102498002F4B5A68186810F0807054D0C2F38343E9
:1024A8002C49C85C12F4803F15D0294B5B68C3F3F4
:1024B8004043294AD25C294BB3FBF2F303FB00F0FB
:1024C800234B5B6813F4800F3DD14000244BA3FBE2
:1024D8000030400837E0234B03FB00F0F0E7FFF73C
:1024E80037FE30E0FFF734FE2DE0194B1B6A40F24F
:1024F80002321A40B2F5817F26D003F44073B3F557
:10250800007F04D0B3F5407F09D000201BE0104ABB
:10251800526A12F0020FF5D049F6404013E00C4B16
:10252800186810F400300ED04FF224400BE0FFF78B
:1025380005FF074B5B68C3F3813301335B00B0FBD6
:10254800F3F000E0002008BD4FF40040FBE700BFB7
:1025580000100240244600082046000800127A00B5
:10256800ABAAAAAA00093D0070B582B00024A4460F
:10257800ACE0854DAB4210D007D9844DAB420CD0AE
:1025880005F58035AB4208D013E0A5F58015AB42C0
:1025980003D005F57025AB4207D18B68002B5FD0BF
:1025A800012B58D04261082403E0A5F58015AB4201
:1025B800F3D0BEF1FF0F55D806464FEA8C023368B8
:1025C8000F25954023EA050304FA02F2134333600A
:1025D8004B6813F0805F77D06D4B9A6942F0010227
:1025E8009A619B6903F001030193019B4FEA9C02E6
:1025F800951C684B53F825600CF00305AD000F23BC
:10260800AB4026EA0306644B984232D003F5806358
:10261800984200F0978003F58063984200F0948018
:1026280003F58063984200F0918003F58063984237
:1026380000F08E8003F58063984218D0062319E0D5
:10264800CC68B6E7CC680434B3E7CC680834B0E7A4
:10265800CC680C34ADE702610824AAE70024A8E797
:102668000424A6E7061DACF108029200A7E705239B
:1026780000E00023AB4033430232464D45F8223098
:102688004B6813F4801F65D0444A936843EA0E03ED
:1026980093604B6813F4001F62D0404AD36843EA42
:1026A8000E03D3604B6813F4003F5FD03B4A536876
:1026B80043EA0E0353604B6813F4803F5CD0374AFB
:1026C800136843EA0E0313600CF1010C0B6833FA2C
:1026D8000CF257D0012202FA0CF203EA020E32EA97
:1026E8000303F1D14B68122B3FF643AF122B3FF691
:1026F80060AF01A555F823F0A32500084926000876
:102708005326000865260008BB250008BB250008DD
:10271800BB250008BB250008BB250008BB25000811
:10272800BB250008BB250008BB250008BB25000801
:10273800BB250008BB250008BB2500084D2600085E
:1027480059260008012395E7022393E7032391E71D
:1027580004238FE7114A936823EA0E03936098E7EE
:102768000E4AD36823EA0E03D3609BE70B4A5368EB
:1027780023EA0E0353609EE7084A136823EA0E0310
:102788001360A1E702B070BD0000221000003110F4
:102798000010024000000140000801400004014010
:1027A80008B590F82130DBB2022B03D004238363F1
:1027B800012008BD0268136823F00E031360026845
:1027C800136823F00103136003684C4A93424ED9FF
:1027D800783A934224D01432934230D01432934240
:1027E8002FD0143293422FD0143293422FD0143268
:1027F80093422FD0143293422FD002F56272934243
:102808002ED0143293422DD0143293422CD014324D
:10281800934202D04FF4803203E04FF4805200E03C
:102828000122374B5A60012380F82130002380F8B9
:102838002030436B002B5ED098470020B9E7102268
:10284800EFE74FF48072ECE74FF48052E9E74FF47A
:102858008032E6E74FF48012E3E74FF08072E0E75A
:102868000122DEE71022DCE74FF48072D9E7254A1F
:10287800934224D01432934225D01432934224D068
:102888001432934224D01432934224D01432934207
:1028980024D01432934224D002F56272934223D09A
:1028A8001432934222D01432934221D014329342EC
:1028B80002D04FF4803203E04FF4805200E001224E
:1028C800114B5A60AFE71022FAE74FF48072F7E72E
:1028D8004FF48052F4E74FF48032F1E74FF480125E
:1028E800EEE74FF08072EBE70122E9E71022E7E715
:1028F8004FF48072E4E700205BE700BF80000240ED
:1029080000040240080002400000024090F8210044
:1029180070470000002808DB0901C9B200F16040D7
:1029280000F5614080F80013704700F00F000901BE
:10293800C9B2014B1954704714ED00E000B500F01E
:102948000700C0F1070CBCF1040F28BF4FF0040CBE
:10295800031D062B0FD9C31E4FF0FF3E0EFA0CF0D5
:1029680021EA000199400EFA03FE22EA0E0241EA2A
:1029780002005DF804FB0023EEE70000074AD36875
:1029880023F4E0631B041B0C000200F4E060034323
:1029980043F0BF6343F40033D360704700ED00E0B9
:1029A80010B50446054BD868C0F30220FFF7C6FFF0
:1029B80001462046FFF7AEFF10BD00BF00ED00E066
:1029C800002807DB00F01F02400901239340024A58
:1029D80042F82030704700BF00E100E00138B0F154
:1029E800807F0BD24FF0E0235861054AF02182F82E
:1029F80023100020986107221A6170470120704750
:102A080000ED00E003685A6912F0800F01D000223F
:102A18001A61704790F83E30DBB2402B10D0036942
:102A2800B3F5804F1BD0036D002B39D1436CC3F332
:102A3800C813026803F0060343F0F00313617047FC
:102A4800036D2BB9436C026803F0FE0313617047F2
:102A5800436C026843F00103DBB21361704790F8DE
:102A68003D30DBB2212B0FD0436C026843F00103E9
:102A7800DBB21361436B6BB19B6A5BB1026853684D
:102A880043F4006353607047436C026803F0FE032D
:102A98001361EFE7836B33B19B6A002BEED102E041
:102AA800036D012B00D07047436CC3F3C813026851
:102AB80003F0060343F0F1031361F4E7436C026883
:102AC800DBB21361436B3BB19B6A2BB1026853685D
:102AD80043F4006353607047836B002BFBD09B6A01
:102AE800002BF3D1F7E7000010B48DB090F83E301A
:102AF800DAB2C16A046B90F83D30DBB2222B0AD0FF
:102B080000230B9303685A690B929B690B930B9BE9
:102B18000DB010BC7047036D0BB9402A17D0036D78
:102B28001BB90369B3F5404F19D0438D9BB2002BF5
:102B380025D1039303685A6903929A690392039A09
:102B48001A6842F400721A6000230365E0E70193F3
:102B580003685A6901929B690193019BD8E7002396
:102B6800029303685A6902929A690292029A1A6851
:102B780042F480721A60036D01330365C8E7438D20
:102B88009BB2012B1CD0438D9BB2022B72D00268E2
:102B9800136843F48063136003685A6812F4006F83
:102BA80000F0B480202900F2BA80082980F0A780BC
:102BB800012940F0AB805A6842F480525A60A5E07F
:102BC80011F5803F11D0082934D0202932D0122C99
:102BD8002ED0042940D002293ED010293CD00268CA
:102BE800136823F4806313603BE00268136823F4DE
:102BF8008063136003685A6812F4006F0CD01A6877
:102C080022F480621A600023049303685A690492CC
:102C18009B690493049B97E7002205925A690592E1
:102C28009A690592059A1A6842F400721A608BE74D
:102C38000129D0D00268136823F48063136000234D
:102C4800079303685A6907929A690792079A1A685C
:102C580042F400721A6077E70268136843F48063ED
:102C680013600023069303685A6906929B690693CA
:102C7800069B69E7102904D82B4BCB4013F0010FB2
:102C880022D10268136843F4006313600023089399
:102C980003685A6908929A690892089A1A6822F48D
:102CA80080621A6003685A6812F4006F3FF44CAFF0
:102CB80020291FD8082915D201297FF445AF5A6861
:102CC80042F480525A603FE70268136843F4806315
:102CD80013600023099303685A6909929B69099351
:102CE800099BDFE70839114ACA4012F0010F3FF487
:102CF8002BAFE4E711F5803F7FF426AFDFE7083913
:102D08000A4ACA4012F0010F7FF455AF00230A9314
:102D180003685A690A929B690A930A9B14E711F59A
:102D2800803FF3D147E700BF140001000101000113
:102D3800438D9BB25BB1426A036812781A61436A99
:102D480001334362438D9BB2013B9BB2438570477D
:102D5800438D9BB25BB103681A69436A1A70436A70
:102D680001334362438D9BB2013B9BB2438570475D
:102D780082B0002301930E4B1B68DB080D4AA2FBAF
:102D880003231B0A03EB83030193019B013B01937C
:102D9800019B33B103681B6813F4007FF5D1002051
:102DA80004E0036C43F020030364012002B0704781
:102DB8000800002089B5F81403685A6912F4806F76
:102DC80001D1002070476FF480625A6100230363C9
:102DD800202280F83D2080F83E30026C42F0040248
:102DE800026480F83C3001207047C36AB3F52A0FAB
:102DF80004D0C36AB3F12A4F03D070470123C362DA
:102E080070470823C362F8E72DE9F04106460C46EF
:102E1800174698463BE0FEF763FF069BC01A4045FD
:102E280002D8B8F1000F32D1012D18D033689B6950
:102E380024EA03039BB2B3FA83F35B099F4226D1CA
:102E480000233363202286F83D2086F83E30326C1A
:102E580042F02002326486F83C30012027E03368D3
:102E68005B6924EA03039BB2B3FA83F35B09E5E7E2
:102E780033685B6924EA030C1FFA8CFCBCFA8CFCEF
:102E88004FEA5C1C674511D1B8F1FF3FC3D1C4F3C9
:102E98000745012DECD033689B6924EA030C1FFA1F
:102EA8008CFCBCFA8CFC4FEA5C1CEBE70020BDE80C
:102EB800F0812DE9F84305460E469046994653E0C1
:102EC8001A6842F400721A602B686FF480625A61C3
:102ED80000232B63202285F83D2085F83E302A6C9C
:102EE80042F004022A6485F83C3001204AE0FEF7EB
:102EF800F7FEA0EB0900404502D8B8F1000F33D126
:102F0800012F17D02B689B6926EA03039BB2003B6D
:102F180018BF012343B300232B63202285F83D20EB
:102F280085F83E302A6C42F020022A6485F83C304D
:102F3800012027E02B685B6926EA03039BB2003B6C
:102F480018BF0123E6E72B689C6926EA0404A4B2AB
:102F5800003C18BF0124A4B12B685A6912F4806F91
:102F6800AED1B8F1FF3FC2D1C6F30747012FEAD16E
:102F78002B685C6926EA0404A4B2003C18BF01244B
:102F8800E9E70020BDE8F88370B504460D4616460B
:102F980023685B6913F0800F21D12046FFF70CFFEF
:102FA800F8B9B5F1FF3FF3D0FEF79AFE801BA842AF
:102FB80001D8002DECD123685B6913F0800FE7D1AD
:102FC80000232363202284F83D2084F83E30226CBD
:102FD80042F02002226484F83C30012000E0002006
:102FE80070BD0120FCE700002DE9F04385B00446E0
:102FF8000D4691461F46DDF830800D9E036819681E
:1030080041F4807119600096434600224FF0011187
:10301800FFF7FAFE60B9236805F0FE051D61334627
:10302800424626492046FFF744FF68B1012008E0E0
:1030380023681B6813F4807F02D04FF40073236465
:10304800032005B0BDE8F0830023039323685A6981
:1030580003929B690393039B324641462046FFF740
:1030680093FF30B9012F0FD123685FFA89F61E61EB
:10307800E7E7236C042B01D00120E2E722681368FC
:1030880043F400731360F7E723684FEA19221A61C3
:10309800324641462046FFF777FF20B923685FFA9A
:1030A80089F61E61CDE7236C042B01D00120C8E707
:1030B8002268136843F400731360F7E70200010005
:1030C80070B504460D46164623685B6913F0040F75
:1030D80021D12046FFF770FEF8B9B5F1FF3FF3D0D4
:1030E800FEF7FEFD801BA84201D8002DECD1236815
:1030F8005B6913F0040FE7D100232363202284F8CF
:103108003D2084F83E30226C42F02002226484F88C
:103118003C30012000E0002070BD0120FCE70000E9
:10312800002800F0CC8070B5044690F83D30002BA4
:1031380077D0242384F83D302268136823F00103F4
:1031480013602268136843F400431360226813680D
:1031580023F400431360FFF7E1F862685A4B9A4280
:1031680064D85A4B98428CBF00230123002B40F0AF
:10317800A8805749A1FB00318B0C25686A6822F0AA
:103188003F0242EA91426A6021680A6A22F03F02DD
:1031980066684D4DAE424FD8013313430B62216828
:1031A800CA6922F44F4222F0FF026568464B9D42ED
:1031B8004CD8431E6D00B3FBF5F3013340F6FC70A9
:1031C800034278D0C3F30B031A43CA6121680B6822
:1031D80023F0C003E269206A024313430B602168AD
:1031E8008B6823F4034323F0FF032269E06802435A
:1031F80013438B602168CB6823F0FF036269A069E1
:1032080002431343CB602268136843F00103136041
:1032180000202064202384F83D30206384F83E0099
:1032280070BD80F83C30FEF7D7F882E7294B98420A
:103238008CBF0023012399E74FF4967505FB03F330
:10324800254DA5FB03539B090133A6E7A668BEB924
:10325800431E05EB450CB3FBFCF30133C3F30B032F
:10326800B3FA83F35B0943BBC6B9431E05EB4505B7
:10327800B3FBF5F30133C3F30B0343F40043A3E7B4
:10328800431E05EB850C0CEB8C0CB3FBFCF30133F4
:10329800C3F30B03B3FA83F35B09E4E7431E05EBBF
:1032A800850505EB8505B3FBF5F30133C3F30B0384
:1032B80043F4404388E7042386E7012384E7012099
:1032C80070470120ACE700BFA08601007F841E0084
:1032D80083DE1B43FF083D00D34D621030B482B03B
:1032E8000024019490F83D40E4B2202C58D12F4C92
:1032F8002468E4082E4DA5FB0454240A04EB840436
:1033080004EB84040194019C013C0194019C002C71
:103318003AD00468A56915F0020FF4D190F83C5032
:10332800012D41D0012580F83C50256815F0010F8A
:1033380003D1256845F00105256005682C6824F44B
:1033480000642C60222480F83D40102480F83E4020
:103358000024046442624385438D0385154BC36290
:10336800416480F83C400268536843F4E06353606A
:103378000268136843F4806313600268136843F4B7
:103388008073136020460CE000230363202280F83A
:103398003D2080F83E30036C13430364022000E0B4
:1033A800022002B030BC70470220FAE70800002073
:1033B80089B5F8140000FFFF2DE9F04383B00446F7
:1033C8000F46904699460C9EFEF78AFC054694F8EF
:1033D8003D00C0B2202803D0022003B0BDE8F0832E
:1033E8000095192301224B492046FFF70DFD0028BF
:1033F80040F0898094F83C30012B00F0868001234E
:1034080084F83C3023681A6812F0010F03D11A6857
:1034180042F001021A602268136823F40063136003
:10342800212384F83D30402384F83E300023236470
:103438000A9B6362BDF82C306385638D2385364B08
:10344800E362019500964B46424639462046FFF70F
:10345800CBFD00285BD1238D002B35D02A46314681
:103468002046FFF791FD20BB626A236812781A6133
:10347800626A531C6362218D013989B22185638D8B
:103488009BB2013B9BB263852368586910F0040F17
:10349800E1D00029DFD052781A61636A0133636290
:1034A800238D013B2385638D9BB2013B9BB26385D2
:1034B800D1E7236C042B01D001208EE72268136822
:1034C80043F400731360F7E72A4631462046FFF7B6
:1034D800F7FD50B1236C042B01D001207DE7226851
:1034E800136843F400731360F7E72268136843F422
:1034F80000731360202384F83D30002384F83E30A5
:1035080084F83C3069E7022067E7022065E701207C
:1035180063E700BF020010000000FFFF704770471C
:1035280008B590F83D30DAB2438D9BB283B1416A59
:10353800036809781961436A01334362438D9BB27A
:10354800013B9BB24385438D9BB20BB9292A00D01E
:1035580008BD0268536823F4806353602123036322
:10356800282380F83D30FFF7DAFFF1E7704708B508
:1035780090F83D30DAB2438D9BB283B10368196984
:10358800436A1970436A01334362438D9BB2013B1E
:103598009BB24385438D9BB20BB92A2A00D008BD44
:1035A8000268536823F4806353602223036328234B
:1035B80080F83D30FFF7DAFFF1E7704700B583B0D8
:1035C80090F83D3003F02803282B0CD000230193FA
:1035D80002685169019192690192019A80F83C3020
:1035E80003B05DF804FB0268536823F480635360FA
:1035F80011F0040F0BD0002311F0800F09D182893C
:10360800002180F83C101946FFF7D7FFE8E70123AF
:10361800F2E7028BF4E7704710B5044690F83D30A6
:10362800DBB2C26A082A01D0202A01D1282B06D091
:10363800212B1FD023686FF480625A6110BD1D4B87
:10364800E3622268536823F4E063536023686FF4ED
:1036580080625A612268136823F480631360002330
:103668002363202284F83D2084F83E302046FFF76B
:10367800D2FFE3E70F4BE36221232363202384F87F
:103688003D30002384F83E302268536823F4E06319
:10369800536023686FF480625A612268136823F4C8
:1036A800806313602046FFF7ADF92046FFF737FF28
:1036B800C4E700BF0000FFFF704708B5C26A90F872
:1036C8003D30DBB2212B00D008BD438D9BB263B1E6
:1036D800426A036812781A61436A01334362438D70
:1036E8009BB2013B9BB24385EEE7082A04D0202A0F
:1036F80002D012F5803F19D10268536823F4E063C1
:1037080053600268136843F4007313600023036373
:10371800202380F83D3090F83E30DBB2402B15D0A6
:10372800002380F83E30FFF7F9FECDE702685368C2
:1037380023F4E063536011230363002380F83E30D1
:10374800202380F83D30FFF7E9FEBDE7002380F82D
:103758003E30FFF7B1FFB7E708B590F83D30026D8E
:103768009AB9C36C012B08D0836CC3F30723026892
:103778001361036D0133036508BD836C0268DBB216
:103788001361036D02330365F6E7DBB2026D012AAC
:1037980023D0026D022A3ED1222B26D0428D92B22E
:1037A8000AB1212B2AD0428D92B2002AE4D1212BD2
:1037B800E2D10268536823F4E06353600268136837
:1037C80043F40073136000230363202280F83D2034
:1037D80080F83E30FFF770FFCEE7836C0268DBB2FB
:1037E8001361036D01330365C6E70268136843F488
:1037F80080731360036D01330365BDE7426A036894
:1038080012781A61436A01334362438D9BB2013BCC
:103818009BB24385B0E7FFF7F5F8ADE710B590F830
:103828003D30DBB290F83E20D2B2C46A018D002947
:103838003BD1212B02D0402A42D010BD082C04D005
:10384800202C02D014F5803F19D10268536823F464
:10385800E06353600268136843F400731360002345
:103868000363202380F83D3090F83E30DBB2402BD4
:1038780015D0002380F83E30FFF750FEDDE70268E0
:10388800536823F4E063536011230363002380F833
:103898003E30202380F83D30FFF740FECDE700237F
:1038A80080F83E30FFF708FFC7E7212BC3D1438DCF
:1038B8009BB243B90268536823F480635360BCE742
:1038C800222BBAD1F3E790F83E30DBB2402B0CD074
:1038D800426A036812781A61436A01334362438D6E
:1038E8009BB2013B9BB24385A7E7FFF735FFA4E7EF
:1038F800704708B5C26A438D9BB2042B14D0438D20
:103908009BB2032B22D0438D9BB2022B39D0036884
:103918001A69436A1A70436A01334362438D9BB242
:10392800013B9BB2438510E00268536823F480632F
:10393800536003681A69436A1A70436A0133436221
:10394800438D9BB2013B9BB2438508BD01684B6820
:1039580023F480634B60042A06D0022A04D002684C
:10396800136823F48063136003681A69436A1A7042
:10397800436A01334362438D9BB2013B9BB243854B
:10398800E3E7531E0F2B42D8DFE803F0083B413B27
:1039980041414141414141414141410801680B6870
:1039A80023F480630B6003681969436A1970416ADC
:1039B8004B1C4362438D9BB2013B9BB2438503681A
:1039C8001B694B70436A01334362438D9BB2013BD1
:1039D8009BB2438501684B6823F440734B602023F6
:1039E80080F83D3090F83E30DBB2402B15D00023F4
:1039F80080F83E30082A17D0202A15D012230363F6
:103A080014E001680B6843F480630B60CBE701683E
:103A18000B6843F400730B60C5E7002380F83E3061
:103A28000363FFF765FF90E70023036300F046FC9C
:103A38008BE738B590F83D30DBB2222B00D038BD8B
:103A48000446C56A438D9BB2032B15D903681A69CE
:103A5800436A1A70436A01334362438D9BB2013B48
:103A68009BB24385438D9BB2032BE8D10268536810
:103A780023F480635360E2E7C26A022A01D0012B73
:103A880005D92268536823F480635360D7E7FFF7AA
:103A98006FF9002835D12268136823F48063136016
:103AA8002268536823F4E063536023681A69636AE1
:103AB8001A70636A01336362638D9BB2013B9BB2E8
:103AC8006385202384F83D3094F83E30DBB2402BE8
:103AD80009D0002384F83E30082D0CD0202D0AD0C0
:103AE8001223236309E0002384F83E302363204631
:103AF800FFF7FEFEA3E700232363204600F0DEFB6A
:103B08009DE72268536823F4E063536023681A69C9
:103B1800636A1A70636A01336362638D9BB2013B07
:103B28009BB26385202384F83D30002384F83E301F
:103B38002046FDF7C9FC82E77047000000B583B056
:103B480000230193406A90F83D20D2B2324B1B68A3
:103B5800DB083249A1FB03131B0A03EB8303C3EB06
:103B6800C3030193019B43B1019B013B019303688C
:103B78001B6813F4007FF5D103E0036C43F02003C6
:103B88000364436B0BB100219962836B0BB1002175
:103B9800996201680B6823F480630B6000234385F6
:103BA800436B0BB100215963836B0BB1002159633F
:103BB80001680B6823F001030B6090F83D30DBB21D
:103BC800602B0ED002F02802282A14D0202380F877
:103BD8003D30002380F83E30FDF776FC03B05DF8F9
:103BE80004FB202380F83D30002380F83E30036436
:103BF800FFF7A2FFF2E70268136843F001031360BE
:103C08000268136843F48063136000230363282366
:103C180080F83D30E0E700BF0800002089B5F814BF
:103C280010B5044690F83D30DBB290F83E20D2B291
:103C3800102A36D0402A34D003F02802282A38D057
:103C48002268526812F4006F07D1602B05D0202338
:103C580084F83D30002384F83E3000232363236832
:103C68005A6812F4006F48D05A6822F400625A6009
:103C7800626B92F82130DBB2012B20D0444B5363A6
:103C8800606BFEF78DFD002849D02268136823F089
:103C980001031360202384F83D30606B436B984721
:103CA8003DE0222BC8D121680A6822F400620A602C
:103CB800C2E700232363282384F83D30CFE7A36BB2
:103CC800334A5A63A06BFEF76BFD40B323685A6909
:103CD80012F0400F05D01A69636A1A70636A0133DB
:103CE80063622268136823F001031360202384F8B9
:103CF8003D30A06B436B984711E094F83D20D2B259
:103D0800602A1FD05A6912F0400F05D01A69636AF9
:103D18001A70636A013363622046FDF7D5FB236C92
:103D280013F00F0F04D02268536823F4E063536044
:103D380094F83D30DBB2226C12F0040F01D0282B2E
:103D480018D010BD202284F83D20002222645A6930
:103D580012F0400F05D01A69636A1A70636A01335A
:103D680063622268136823F0010313602046FFF79B
:103D7800E3FED4E7074BE36200232363202284F8A1
:103D88003D2084F83E302046FFF745FCD9E700BFC8
:103D9800453B00080000FFFF30B583B0044690F8AB
:103DA8003D50EDB20268536823F4E063536000238A
:103DB800019303685A6901921A6842F001021A6075
:103DC800019B0268136823F48063136003685A68D0
:103DD80012F4006F38D0222D21D02A2D1FD0426B2B
:103DE8001268526892B24285428D92B21AB1026C40
:103DF80042F0040202645A6822F400625A60606B5E
:103E0800FEF784FD01281FD0636B444A5A63606B38
:103E1800FEF7C6FCC0B1606B436B984714E0A26B19
:103E28001268526892B26285628D92B21AB1226C9F
:103E380042F0040222645A6822F400625A60A06BBD
:103E4800FEF764FD012842D1638D9BB233B323682A
:103E58005A6912F0040F0AD01A69636A1A70636A01
:103E680001336362638D9BB2013B9BB26385236818
:103E78005A6912F0400F0AD01A69636A1A70636AA5
:103E880001336362638D9BB2013B9BB26385638D93
:103E98009BB21BB1236C43F004032364236C13BB54
:103EA8002A2D25D094F83D30DBB2282B29D0236B5E
:103EB800222B01D0222D19D100232363202284F83C
:103EC8003D2084F83E302046FFF750FB0EE0A36B00
:103ED800124A5A63A06BFEF763FC0028B4D0A06BAB
:103EE800436B9847B0E72046FFF79AFE03B030BD12
:103EF80000232363282384F83D302046FFF736FB50
:103F0800D0E7074BE36200232363202284F83D2097
:103F180084F83E302046FFF77EFBE7E7453B000884
:103F28000000FFFFF8B5044602685568C66A90F8B5
:103F38003E30DBB290F83D10C8B2102B13D0402BA6
:103F480011D0236C002B7AD05369002113F0020F93
:103F580078D015F4007F75D0236C03B191692046A1
:103F6800FFF72CFBF8BDD2F818C0516911F0010712
:103F780005D1B6F52A0FF5D0B6F12A4FF2D017B110
:103F880015F4007F29D111F0080F02D015F4007F35
:103F98002AD111F0020F02D015F4007F28D11CF0AD
:103FA800040F31D0526812F4006FDBD111F0800F8A
:103FB80005D015F4806F02D011F0040F1CD011F059
:103FC800040FCFD015F4007FCCD0212818D0402B77
:103FD800C8D12046FFF7C0FBC4E72046FEF705FF1F
:103FE8002046FEF717FDBDE72046FEF767FDB9E757
:103FF8002046FEF779FDB5E72046FFF70FFCB1E74D
:104008002046FFF75AFBADE7536813F4006FA9D1B8
:1040180011F0400F05D015F4806F02D011F0040F95
:1040280009D011F0040F9DD015F4007F9AD02046D6
:10403800FFF75FFC96E72046FFF7FBFC92E79169E4
:10404800536983E713F0100F02D015F4007F18D1DD
:1040580021281AD0292818D013F0400F05D015F4BC
:10406800806F02D013F0040F28D013F0040F3FF430
:1040780079AF15F4007F3FF475AF2046FEF768FE70
:1040880070E72046FFF788FE6CE713F0800F05D035
:1040980015F4806F02D013F0040F0BD013F0040F47
:1040A8003FF460AF15F4007F3FF45CAF2046FEF7A5
:1040B8003FFE57E72046FFF733FA53E72046FFF75E
:1040C80056FA4FE7F8B5044603685D695F6890F8EB
:1040D8003E20D2B215F480760BD017F4807608D043
:1040E8006FF48071596101680B6843F400430B60F9
:1040F800012615F4007F08D017F4807F05D046F01C
:10410800020623686FF40071596115F4806F19D0A5
:1041180017F4807F16D0638D99B294F83D30DBB2E6
:10412800206B202A1BD023686FF48061596146F008
:104138000406102A01D0402A04D12268136843F4E7
:104148000073136015F4006F17D017F4807F14D034
:1041580046F0080623686FF400625A610EE00029F1
:10416800E1D1212B05D0292B03D0282BDBD1212805
:10417800D9D12046FFF750FAE4E72EB1236C334338
:1041880023642046FFF74CFDF8BD704700B587B0A3
:10419800ADF816204FF47A730293022301930DF1C0
:1041A8001603009310230A4641000348FFF704F959
:1041B80007B05DF804FB00BF8C00002008B5164B63
:1041C80040F2C3121A8040F2C3321A80032907D87A
:1041D800DFE801F00212171C0F4B44F2C3321A80B9
:1041E8000D4B1A886FEA42426FEA524292B21A8025
:1041F8000121FFF7CBFF08BD074B45F2C3321A80F8
:10420800EEE7054B46F2C3321A80E9E7024B47F264
:10421800C3321A80E4E700BF3A01002008B5002144
:104228004820FFF7CBFF02214820FFF7C7FF08BD52
:10423800204B40F2C3121A8040F2C3321A8002287F
:1042480001D90020704700B583B0032807D8DFE8FC
:1042580000F00222272C174B44F2C3321A80154B68
:104268001A886FEA42426FEA524292B21A800121DA
:104278004820FFF78BFF0A20FDF738FD022301AA2B
:1042880090210D48FFF72AF801980011019080B29B
:1042980003B05DF804FB074B45F2C3321A80DEE732
:1042A800044B46F2C3321A80D9E7024B47F2C332B5
:1042B8001A80D4E73A0100208C00002008B5054B8D
:1042C800834200D008BD0223034A90210148FFF72A
:1042D80005F8F7E78C0000203801002000000000F6
:1042E800F8B50446002307E003EB830004EBC000A5
:1042F800016242620133DBB2022BF5D9002501E0ED
:104308000135EDB2072D14D89F4E3046FDF7D6FA89
:1043180064213046FDF726F93046FDF789FA10F496
:10432800007FEDD03046FDF7DFF9984B43F82500C4
:10433800E6E79548FDF7F6FB002501E00135EDB20B
:10434800072D14D8924E3046FDF7B8FA642130464E
:10435800FDF708F93046FDF76BFA10F4007FEDD051
:104368003046FDF7C1F98B4B43F82500E6E788484E
:10437800FDF7D8FB0025032D1BD8AA1C834B53F847
:104388002200FCF78FFB8449FCF798FCFCF72CFA19
:104398007BA3D3E90023FBF799FF00227F4BFBF7B0
:1043A80095FFFCF779FA04EB850358600135EDB207
:1043B800E1E7784D2868FCF775FB7749FCF77EFC48
:1043C800FCF712FA6EA3D3E90023FBF77FFF002264
:1043D800724BFBF77BFFFCF75FFA60616868FCF7DC
:1043E80061FB6D49FCF76AFCFCF7FEF964A3D3E9AD
:1043F8000023FBF76BFF0022684BFBF767FFFCF716
:104408004BFAA06100251AE0AA1C624B53F822005F
:10441800FCF748FB6049FCF751FCFCF7E5F958A3A9
:10442800D3E90023FBF752FF00225C4BFBF74EFF5A
:10443800FCF732FA04EB8503D8620135EDB2052D9D
:10444800E2D9524DA869FCF72DFB5349FCF736FC1D
:10445800FCF7CAF94AA3D3E90023FBF737FF002288
:104468004E4BFBF733FFFCF717FA6065E869FCF77A
:1044780019FB4949FCF722FCFCF7B6F940A3D3E93C
:104488000023FBF723FF0022444BFBF71FFFFCF739
:1044980003FAA0652868FCF705FB3F49FCF70EFC0A
:1044A800FCF7A2F936A3D3E90023FBF70FFF00229C
:1044B8003A4BFBF70BFFFCF7EFF9E0656868FCF790
:1044C800F1FA3549FCF7FAFBFCF78EF92CA3D3E98E
:1044D8000023FBF7FBFE0022304BFBF7F7FEFCF74F
:1044E800DBF920660020FFF7A3FEFCF7DBFA606625
:1044F8000220FFF79DFEFCF7D5FAA066002501E033
:104508000135EDB2052D38D82E4604EB85035F68DA
:104518004FF07E513846FCF7D9FC38B1E16938468E
:10452800FCF710FAE06123780133237004EB86036B
:10453800DF6A4FF07E513846FCF7C8FC48B1616C21
:104548003846FCF7FFF9606494F82830013384F8A2
:10455800283004EB86064FF07E51706DFCF7B6FCF0
:104568000028CDD0E16DE06EFCF7ECF9E06694F838
:104578005030013384F85030C2E7F8BDAFF3008003
:104588006666666666660A405C0000205C0100207C
:104598002C0000203C01002000F07F450000F83F7F
:1045A800FFF7F3FD0B480C490C4A002302E0D458EE
:1045B800C4500433C4188C42F9D3094A094C002367
:1045C80001E013600432A242FBD3FBF709FEFCF7BB
:1045D800EDFC7047000000200C0000205446000845
:1045E8000C000020F4010020FEE70000F8B500BF31
:1045F800F8BC08BC9E467047F8B500BFF8BC08BCBC
:044608009E46704713
:10460C000102000002030405060708090A0B0C0D41
:10461C000E0F101001020000020304050607080922
:10462C000A0B0C0D0E0F1010000000000102030409
:10463C000000000000000000010203040607080946
:04464C000D0F000846
:04465000E90E000867
:0C465400010000001000000000127A00BD
:04000005080045A901
:00000001FF
