:020000040800F2
:1000000000C00020598E00081B19000823190008A1
:100010002B190008331900083B19000800000000E4
:10002000000000000000000000000000431900086C
:100030004F190008000000005B190008671900084C
:10004000A18E0008A18E0008A18E0008A18E0008D4
:10005000A18E0008A18E0008A18E0008A18E0008C4
:10006000A18E0008A18E0008A18E0008A18E0008B4
:10007000A18E0008A18E0008A18E0008A18E0008A4
:10008000A18E0008A18E0008A18E0008A18E000894
:10009000A18E0008A18E0008A18E00087319000827
:1000A000A18E000881190008A18E0008A18E000809
:1000B000A18E0008A18E0008A18E0008A18E000864
:1000C00095190008A9190008C9190008A18E00088F
:1000D000A18E0008A18E0008A18E0008A18E000844
:1000E000A18E0008A18E0008A18E0008A18E000834
:1000F000A18E0008A18E0008A18E0008A18E000824
:10010000A18E0008A18E0008A18E0008A18E000813
:10011000A18E0008A18E0008A18E0008A18E000803
:10012000A18E0008A18E0008A18E0008A18E0008F3
:1001300000000000000000000000000000000000BF
:1001400000000000000000000000000000000000AF
:10015000000000000000000000000000000000009F
:10016000000000000000000000000000000000008F
:10017000000000000000000000000000000000007F
:10018000000000000000000000000000000000006F
:10019000000000000000000000000000000000005F
:1001A000000000000000000000000000000000004F
:1001B000000000000000000000000000000000003F
:1001C000000000000000000000000000000000002F
:1001D000000000000000000000000000000000001F
:0401E0005FF8E0F1F3
:1001E80070B50D4E0D4D761BB61006D0002455F88F
:1001F800043B01349847A642F9D1094E094D08F04D
:100208004DFE761BB61006D0002455F8043B013489
:100218009847A642F9D170BDF8AA0008F8AA0008C4
:10022800FCAA0008F8AA0008844641EA000313F073
:10023800030349D1403A23D30B6803604B684360FA
:100248008B688360CB68C3600B6903614B6943614A
:100258008B698361CB69C3610B6A03624B6A436232
:100268008B6A8362CB6AC3620B6B03634B6B43631A
:100278008B6B8363CB6BC36340304031403ADBD236
:1002880030320BD30B6803604B6843608B68836024
:10029800CB68C36010301031103AF3D20C3205D35A
:1002A80051F8043B40F8043B043AF9D2043208D030
:1002B800D2071CBF11F8013B00F8013B01D30B88A2
:1002C80003806046704700BF082A13D38B07B1D05C
:1002D80010F00303AED0C3F10403D21ADB071CBF2E
:1002E80011F8013B00F8013BA4D331F8023B20F898
:1002F800023B9FE7043AD9D3013A11F8013B00F8D1
:10030800013BF9D20B7803704B7843708B7883707C
:1003180060467047830730B548D0541E002A3FD046
:100328000346CAB201E0013C3AD303F8012B9D070A
:10033800F9D1032C2DD9CDB245EA05250F2C45EA74
:10034800054536D9A4F1100222F00F0C03F1200E56
:10035800E6444FEA121C03F1100242E9045542E94F
:10036800025510327245F8D10CF1010214F00C0F4D
:1003780003EB021204F00F0C13D0ACF1040323F0CA
:1003880003030433134442F8045B9342FBD10CF09B
:1003980003042CB1CAB21C4403F8012B9C42FBD1C4
:1003A80030BD64461346002CF4D1F9E703461446E1
:1003B800BFE71A46A446E0E770B54FF0FF0C4CF4CF
:1003C800E06C1CEA11541DBF1CEA135594EA0C0F8B
:1003D80095EA0C0F00F0DEF82C4481EA030621EAC6
:1003E8004C5123EA4C5350EA013518BF52EA033501
:1003F80041F4801143F4801338D0A0FB02CE4FF0B3
:100408000005E1FB02E506F00042E0FB03E54FF0E2
:100418000006E1FB03569CF0000F18BF4EF0010EDA
:10042800A4F1FF04B6F5007F64F5407404D25FEAD6
:100438004E0E6D4146EB060642EAC62141EA555189
:100448004FEAC52040EA5E504FEACE2EB4F1FD0CCB
:1004580088BFBCF5E06F1ED8BEF1004F08BF5FEA49
:10046800500E50F1000041EB045170BD06F00046FB
:1004780046EA010140EA020081EA0301B4EB5C04A8
:10048800C2BFD4EB0C0541EA045170BD41F48011A0
:100498004FF0000E013C00F3AB8014F1360FDEBFC5
:1004A800002001F0004170BDC4F10004203C35DAA1
:1004B8000C341BDC04F11404C4F1200500FA05F324
:1004C80020FA04F001FA05F240EA020001F00042C5
:1004D80021F0004110EBD37021FA04F642EB06013B
:1004E8005EEA430E08BF20EAD37070BDC4F10C0465
:1004F800C4F1200500FA04F320FA05F001FA04F229
:1005080040EA020001F0004110EBD37041F1000114
:100518005EEA430E08BF20EAD37070BDC4F120051F
:1005280000FA05F24EEA020E20FA04F301FA05F287
:1005380043EA020321FA04F001F0004121FA04F22F
:1005480020EA020000EBD3705EEA430E08BF20EAFF
:10055800D37070BD94F0000F0FD101F00046400039
:1005680041EB010111F4801F08BF013CF7D041EABB
:10057800060195F0000F18BF704703F000465200BF
:1005880043EB030313F4801F08BF013DF7D043EA90
:100598000603704794EA0C0F0CEA135518BF95EA46
:1005A8000C0F0CD050EA410618BF52EA4306D1D1CD
:1005B80081EA030101F000414FF0000070BD50EAEC
:1005C800410606BF1046194652EA430619D094EA76
:1005D8000C0F02D150EA013613D195EA0C0F05D160
:1005E80052EA03361CBF104619460AD181EA0301B4
:1005F80001F0004141F0FE4141F470014FF000006C
:1006080070BD41F0FE4141F4780170BD81F00041B8
:1006180002E000BF83F0004330B54FEA41044FEADF
:10062800430594EA050F08BF90EA020F1FBF54EA7A
:10063800000C55EA020C7FEA645C7FEA655C00F016
:10064800E2804FEA5454D4EB5555B8BF6D420CDDE7
:100658002C4480EA020281EA030382EA000083EA6A
:10066800010180EA020281EA0303362D88BF30BD0A
:1006780011F0004F4FEA01314FF4801C4CEA113160
:1006880002D0404261EB410113F0004F4FEA0333BF
:100698004CEA133302D0524263EB430394EA050F4A
:1006A80000F0A780A4F10104D5F1200E0DDB02FAB9
:1006B8000EFC22FA05F2801841F1000103FA0EF24D
:1006C800801843FA05F359410EE0A5F120050EF113
:1006D800200E012A03FA0EFC28BF4CF0020C43FA44
:1006E80005F3C01851EBE37101F0004507D54FF051
:1006F800000EDCF1000C7EEB00006EEB0101B1F5A1
:10070800801F1BD3B1F5001F0CD349085FEA3000E6
:100718004FEA3C0C04F101044FEA445212F5800FF1
:1007280080F09A80BCF1004F08BF5FEA500C50F18E
:10073800000041EB045141EA050130BD5FEA4C0C71
:10074800404141EB0101013C28BFB1F5801FE9D2CE
:1007580091F0000F04BF01460020B1FA81F308BFF1
:100768002033A3F10B03B3F120020CDA0C3208DDBD
:1007780002F1140CC2F10C0201FA0CF021FA02F198
:100788000CE002F11402D8BFC2F1200C01FA02F108
:1007980020FA0CFCDCBF41EA0C019040E41AA2BF2D
:1007A80001EB0451294330BD6FEA04041F3C1CDAF5
:1007B8000C340EDC04F11404C4F1200220FA04F015
:1007C80001FA02F340EA030021FA04F345EA0301BF
:1007D80030BDC4F10C04C4F1200220FA02F001FA81
:1007E80004F340EA0300294630BD21FA04F0294603
:1007F80030BD94F0000F83F4801306BF81F480119C
:100808000134013D4EE77FEA645C18BF7FEA655C0E
:1008180029D094EA050F08BF90EA020F05D054EAE0
:10082800000C04BF1946104630BD91EA030F1EBFE5
:100838000021002030BD5FEA545C05D140004941E9
:1008480028BF41F0004130BD14F580043CBF01F5DC
:10085800801130BD01F0004545F0FE4141F47001C2
:100868004FF0000030BD7FEA645C1ABF194610469D
:100878007FEA655C1CBF0B46024650EA013406BF9E
:1008880052EA033591EA030F41F4002130BD00BF5D
:1008980090F0000F04BF0021704730B54FF480641A
:1008A80004F132044FF000054FF0000150E700BF9B
:1008B80090F0000F04BF0021704730B54FF48064FA
:1008C80004F1320410F0004548BF40424FF00001E7
:1008D8003EE700BF42004FEAE2014FEA31014FEA2A
:1008E80002701FBF12F07F4393F07F4F81F0605179
:1008F800704732F07F4208BF704793F07F4F04BFC4
:1009080041F40021704730B54FF4607401F00045A0
:1009180021F000411CE700BF50EA010208BF704700
:1009280030B54FF000050AE050EA010208BF7047F1
:1009380030B511F0004502D5404261EB41014FF45A
:10094800806404F132045FEA915C3FF4D8AE4FF062
:1009580003025FEADC0C18BF03325FEADC0C18BF45
:10096800033202EBDC02C2F1200300FA03FC20FA96
:1009780002F001FA03FE40EA0E0021FA02F11444E3
:10098800BDE600BF4FF0FF3C06E000BF4FF0010C92
:1009980002E000BF4FF0010C4DF804CD4FEA410CC6
:1009A8007FEA6C5C4FEA430C18BF7FEA6C5C1BD093
:1009B80001B050EA410C0CBF52EA430C91EA030F14
:1009C80002BF90EA020F0020704710F1000F91EA71
:1009D800030F58BF994208BF90422CBFD8176FEA3F
:1009E800E37040F0010070474FEA410C7FEA6C5C0D
:1009F80002D150EA013C07D14FEA430C7FEA6C5C14
:100A0800D6D152EA033CD3D05DF8040B704700BF3F
:100A18008446104662468C461946634600E000BF8D
:100A280001B5FFF7B7FF002848BF10F1000F01BD5F
:100A38004DF808EDFFF7F4FF0CBF012000205DF82A
:100A480008FB00BF4DF808EDFFF7EAFF34BF0120AF
:100A580000205DF808FB00BF4DF808EDFFF7E0FF48
:100A680094BF012000205DF808FB00BF4DF808ED99
:100A7800FFF7CEFF94BF012000205DF808FB00BF00
:100A88004DF808EDFFF7C4FF34BF012000205DF8E2
:100A980008FB00BF4FEA4102B2F1E04324BFB3F5BF
:100AA800001CDCF1FE5C0DD901F0004C4FEAC002DD
:100AB8004CEA5070B2F1004F40EB830008BF20F0C1
:100AC8000100704711F0804F21D113F13872BCBF7B
:100AD80001F00040704741F480114FEA5252C2F1D0
:100AE8001802C2F1200C10FA0CF320FA02F018BF19
:100AF80040F001004FEAC1234FEAD32303FA0CFC6C
:100B080040EA0C0023FA02F34FEA4303CCE77FEAFA
:100B1800625307D150EA01331EBF4FF0FE4040F444
:100B28004000704701F0004040F0FE4040F40000F3
:100B3800704700BF80F0004002E000BF81F0004134
:100B480042001FBF5FEA410392EA030F7FEA226C6B
:100B58007FEA236C6AD04FEA1262D2EB1363C1BFFB
:100B6800D218414048404140B8BF5B42192B88BF6A
:100B7800704710F0004F40F4000020F07F4018BF8D
:100B8800404211F0004F41F4000121F07F4118BFAD
:100B9800494292EA030F3FD0A2F1010241FA03FC55
:100BA80010EB0C00C3F1200301FA03F100F000433D
:100BB80002D5494260EB4000B0F5000F13D3B0F105
:100BC800807F06D340084FEA310102F10102FE2A74
:100BD80051D2B1F1004F40EBC25008BF20F00100E4
:100BE80040EA03007047490040EB0000013A28BF83
:100BF800B0F5000FEDD2B0FA80FCACF1080CB2EB06
:100C08000C0200FA0CF0AABF00EBC2505242184383
:100C1800BCBFD0401843704792F0000F81F4000128
:100C280006BF80F400000132013BB5E74FEA4103FB
:100C38007FEA226C18BF7FEA236C21D092EA030F67
:100C480004D092F0000F08BF0846704790EA010FE1
:100C58001CBF0020704712F07F4F04D1400028BF0E
:100C680040F00040704712F100723CBF00F50000F0
:100C7800704700F0004343F0FE4040F40000704726
:100C88007FEA226216BF08467FEA236301464202D2
:100C980006BF5FEA412390EA010F40F480007047E5
:100CA8004FF0000304E000BF10F0004348BF40428B
:100CB8005FEA000C08BF704743F0964301464FF0C7
:100CC80000001CE050EA010208BF70474FF0000323
:100CD8000AE000BF50EA010208BF704711F0004364
:100CE80002D5404261EB41015FEA010C02BF844634
:100CF8000146002043F0B64308BFA3F18053A3F593
:100D08000003BCFA8CF2083AA3EBC25310DB01FAD9
:100D180002FC634400FA02FCC2F12002BCF1004F5D
:100D280020FA02F243EB020008BF20F001007047EE
:100D380002F1200201FA02FCC2F1200250EA4C0042
:100D480021FA02F243EB020008BF20EADC70704788
:100D58004FF0FF0C1CEAD0521EBF1CEAD15392EA96
:100D68000C0F93EA0C0F6FD01A4480EA010C400272
:100D780018BF5FEA41211ED04FF0006343EA5010CC
:100D880043EA5111A0FB01310CF00040B1F5000F0E
:100D98003EBF490041EAD3715B0040EA010062F1BD
:100DA8007F02FD2A1DD8B3F1004F40EBC25008BFA7
:100DB80020F00100704790F0000F0CF0004C08BFC5
:100DC80049024CEA502040EA51207F3AC2BFD2F192
:100DD800FF0340EAC250704740F400004FF00003A0
:100DE800013A5DDC12F1190FDCBF00F000407047DA
:100DF800C2F10002410021FA02F1C2F1200200FA18
:100E080002FC5FEA310040F1000053EA4C0308BFDE
:100E180020EADC70704792F0000F00F0004C02BF2F
:100E2800400010F4000F013AF9D040EA0C0093F0AA
:100E3800000F01F0004C02BF490011F4000F013B04
:100E4800F9D041EA0C018FE70CEAD15392EA0C0F72
:100E580018BF93EA0C0F0AD030F0004C18BF31F0DD
:100E6800004CD8D180EA010000F00040704790F0B3
:100E7800000F17BF90F0004F084691F0000F91F057
:100E8800004F14D092EA0C0F01D142020FD193EA1D
:100E98000C0F03D14B0218BF084608D180EA0100A5
:100EA80000F0004040F0FE4040F40000704740F081
:100EB800FE4040F4400070474FF0FF0C1CEAD0524F
:100EC8001EBF1CEAD15392EA0C0F93EA0C0F69D0AB
:100ED800A2EB030280EA010C49024FEA402037D016
:100EE8004FF0805343EA111143EA10130CF000400D
:100EF8008B4238BF5B0042F17D024FF4000C8B42FD
:100F080024BF5B1A40EA0C00B3EB510F24BFA3EBDC
:100F1800510340EA5C00B3EB910F24BFA3EB9103AC
:100F280040EA9C00B3EBD10F24BFA3EBD10340EA06
:100F3800DC001B0118BF5FEA1C1CE0D1FD2A3FF64C
:100F480050AF8B4240EBC25008BF20F00100704701
:100F58000CF0004C4CEA50207F32C2BFD2F1FF03A4
:100F680040EAC250704740F400004FF00003013AD5
:100F780037E792F0000F00F0004C02BF400010F479
:100F8800000F013AF9D040EA0C0093F0000F01F08D
:100F9800004C02BF490011F4000F013BF9D041EAAF
:100FA8000C0195E70CEAD15392EA0C0F08D14202E2
:100FB8007FF47DAF93EA0C0F7FF470AF084676E7B5
:100FC80093EA0C0F04D14B023FF44CAF08466EE78E
:100FD80030F0004C18BF31F0004CCAD130F000425C
:100FE8007FF45CAF31F000437FF43CAF5FE700BFB4
:100FF8004FF0FF3C06E000BF4FF0010C02E000BFDD
:101008004FF0010C4DF804CD4FEA40024FEA41037E
:101018007FEA226C18BF7FEA236C11D001B052EA34
:10102800530C18BF90EA010F58BFB2EB030088BFFA
:10103800C81738BF6FEAE17018BF40F00100704769
:101048007FEA226C02D15FEA402C05D17FEA236C4B
:10105800E4D15FEA412CE1D05DF8040B704700BF92
:10106800844608466146FFE70FB5FFF7C9FF002829
:1010780048BF10F1000F0FBD4DF808EDFFF7F4FF62
:101088000CBF012000205DF808FB00BF4DF808EDFB
:10109800FFF7EAFF34BF012000205DF808FB00BF1E
:1010A8004DF808EDFFF7E0FF94BF012000205DF840
:1010B80008FB00BF4DF808EDFFF7D2FF94BF0120F1
:1010C80000205DF808FB00BF4DF808EDFFF7C8FFEA
:1010D80034BF012000205DF808FB00BF4FEA400242
:1010E800B2F1FE4F0FD34FF09E03B3EB12620DD94E
:1010F8004FEA002343F0004310F0004F23FA02F0B8
:1011080018BF404270474FF00000704712F1610F5E
:1011180001D1420205D110F0004008BF6FF0004035
:1011280070474FF00000704710B5054C237833B96D
:10113800044B13B10448AFF300800123237010BDA2
:101148000C00002000000000A48E000808B5034B26
:101158001BB103490348AFF3008008BD000000003D
:1011680010000020A48E000890B593B012AF01F0D3
:1011780087F900F045F800F0A7F800F0FDF800F056
:10118800A3F900F0C5FA00F0F1FA07F01DFD07F029
:101198006DFD06F08AFD07F0D1FA114A114912488F
:1011A80006F031FE1149104807F07BFC104C6846E8
:1011B80004F1100344221946FFF736F894E80F00AB
:1011C80006F0E9FD03461A460A4B1A600A4805F07C
:1011D80021FA0421094805F0D5FA00BFFDE700BF50
:1011E800CDCC6C4033337340B80500207006002026
:1011F800E00000202800002074060020BC06002023
:1012080080B596B000AF07F13003282200211846B8
:10121800FFF780F807F11C0300221A605A609A60F1
:10122800DA601A613B1D00221A605A609A60DA601F
:101238001A615A6101233B634FF480337B630023B7
:10124800BB6301233B640223FB644FF480333B659B
:101258004FF4E0137B6507F13003184601F072F98B
:101268000346002B01D000F028F80F23FB6102236E
:101278003B6200237B624FF48063BB620023FB6206
:1012880007F11C030221184601F0DEFB0346002B80
:1012980001D000F012F802237B604FF40043FB609A
:1012A8003B1D184601F05EFD0346002B01D000F0FF
:1012B80004F800BF5837BD4680BD80B400AF72B691
:1012C80000BF00BFFDE7000080B588B000AF07F1A0
:1012D800100300221A605A609A60DA60234B9B69F7
:1012E800224A43F010039361204B9B6903F01003DB
:1012F800FB60FB681D4B9B691C4A43F0200393610C
:101308001A4B9B6903F02003BB60BB68174B9B69B2
:10131800164A43F004039361144B9B6903F00403DA
:101328007B607B68114B9B69104A43F0080393610B
:101338000E4B9B6903F008033B603B6820233B612D
:101348000B4B7B610123BB6107F110031946094868
:1013580001F096FE00220021172002F02AFA172039
:1013680002F043FA00BF2037BD4680BD001002409E
:1013780000002110000C014080B584B000AF3B1D77
:1013880000221A605A609A604D4B4E4A1A604C4BC4
:101398004FF480729A604A4B00221A73484B01221C
:1013A8001A75474B01229A61454B4FF46022DA6166
:1013B800434B00225A60424B08221A61404800F011
:1013C8003BFB0346002B01D0FFF777FF08237B6028
:1013D8000123BB600323FB603B1D1946384800F01E
:1013E80001FE0346002B01D0FFF767FF09237B604E
:1013F8000223BB603B1D1946314800F0F3FD03464C
:10140800002B01D0FFF759FF0A237B600323BB6041
:101418000423FB603B1D1946294800F0E3FD034601
:10142800002B01D0FFF749FF0B237B600423BB602F
:101438000323FB603B1D1946214800F0D3FD0346FA
:10144800002B01D0FFF739FF0C237B600523BB601D
:101458003B1D19461A4800F0C5FD0346002B01D074
:10146800FFF72BFF0D237B600623BB603B1D19464E
:10147800134800F0B7FD0346002B01D0FFF71DFF0E
:101488000E237B600723BB603B1D19460C4800F008
:10149800A9FD0346002B01D0FFF70FFF0F237B6048
:1014A8000823BB603B1D1946054800F09BFD034619
:1014B800002B01D0FFF701FF00BF1037BD4680BDEC
:1014C8002C0000200024014080B584B000AF3B1DF3
:1014D80000221A605A609A604B4B4C4A1A604A4B79
:1014E8004FF480729A60484B00221A73464B0122CF
:1014F8001A75454B01229A61434B4FF46022DA6119
:10150800414B00225A60404B08221A613E4800F0C5
:1015180093FA0346002B01D0FFF7CFFE00237B6030
:101528000123BB600323FB603B1D1946364800F0CE
:1015380059FD0346002B01D0FFF7BFFE01237B6056
:101548000223BB603B1D19462F4800F04BFD0346A4
:10155800002B01D0FFF7B1FE02237B600323BB60A1
:101568003B1D1946284800F03DFD0346002B01D0DD
:10157800FFF7A3FE03237B600423BB603B1D1946D2
:10158800214800F02FFD0346002B01D0FFF795FE00
:1015980004237B600523BB603B1D19461A4800F0F5
:1015A80021FD0346002B01D0FFF787FE05237B6052
:1015B8000623BB603B1D1946134800F013FD034684
:1015C800002B01D0FFF779FE06237B600723BB6061
:1015D8003B1D19460C4800F005FD0346002B01D0C1
:1015E800FFF76BFE07237B600823BB603B1D194692
:1015F800054800F0F7FC0346002B01D0FFF75DFE1D
:1016080000BF1037BD4680BD5C00002000280140A7
:1016180080B58CB000AF786007F1200300221A6013
:101628005A609A60DA607B681B68334A934238D103
:10163800324B9B69314A43F4007393612F4B9B698A
:1016480003F40073FB61FB692C4B9B692B4A43F045
:1016580010039361294B9B6903F01003BB61BB69BD
:10166800264B9B69254A43F008039361234B9B69EA
:1016780003F008037B617B693F233B6203237B62A2
:1016880007F1200319461E4801F0FAFC03233B62C8
:1016980003237B6207F1200319461A4801F0F0FC86
:1016A80026E07B681B68184A934221D1134B9B693B
:1016B800124A43F480639361104B9B6903F480637F
:1016C8003B613B690D4B9B690C4A43F004039361F2
:1016D8000A4B9B6903F00403FB60FB68FF233B6232
:1016E80003237B6207F120031946084801F0C8FC70
:1016F80000BF3037BD4680BD0024014000100240C5
:1017080000100140000C0140002801400008014081
:1017180080B500AF124B134A1A60114B124A5A6037
:101728000F4B00229A600E4B0022DA600C4B4FF4EC
:1017380080421A610A4B00225A61094B00229A61C1
:10174800074B0022DA61064B00221A62044802F0B5
:1017580067F80346002B01D0FFF7AFFD00BF80BD3F
:101768008C00002000540040A086010080B500AF26
:10177800164B174A1A60154B164A5A60134B00222B
:101788009A60124B0022DA60104B4FF480421A61C3
:101798000E4B00225A610D4B00229A610B4B00221E
:1017A800DA610A4B00221A62084802F039F8034647
:1017B800002B01D0FFF781FD044B1B685A68034BCF
:1017C8001B6842F400725A6000BF80BDE000002030
:1017D80000580040A086010080B58CB000AF78604A
:1017E80007F11C0300221A605A609A60DA607B686D
:1017F8001B683E4A93423BD13D4B9B693C4A43F0B0
:10180800080393613A4B9B6903F00803BB61BB690A
:101818004FF44073FB6112233B620323BB6207F161
:101828001C031946334801F02BFC334B5B68FB6201
:10183800FB6A43F0E063FB62FB6A43F00203FB626E
:101848002D4AFB6A53602A4BDB69294A43F400138B
:10185800D361274BDB6903F400137B617B690022AA
:101868000021202001F0A5FF202001F0BEFF39E073
:101878007B681B68214A934234D11D4B9B691C4AE3
:1018880043F0080393611A4B9B6903F008033B611B
:101898003B694FF44063FB6112233B620323BB6245
:1018A80007F11C031946134801F0EAFB104BDB69EA
:1018B8000F4A43F48003D3610D4BDB6903F48003C3
:1018C800FB60FB6800220021212001F072FF21202B
:1018D80001F08BFF00220021222001F06AFF222064
:1018E80001F083FF00BF3037BD4680BD0054004083
:1018F80000100240000C0140000001400058004068
:1019080080B483B000AF786000BF0C37BD4680BCA0
:10191800704780B400AF00BFFDE780B400AF00BFE0
:10192800FDE780B400AF00BFFDE780B400AF00BFA3
:10193800FDE780B400AF00BFFDE780B400AF00BF93
:10194800BD4680BC704780B400AF00BFBD4680BCB8
:10195800704780B400AF00BFBD4680BC704780B5FB
:1019680000AF00F0D3FD00BF80BD80B500AF2020E0
:1019780001F01AFD00BF80BD80B500AF024804F039
:10198800BBFF00BF80BD00BF7406002080B500AF5C
:10199800024802F054FE00BF80BD00BF8C0000204A
:1019A80080B500AF044B1B680133034A136003483A
:1019B80002F0F2FC00BF80BD28000020E0000020FB
:1019C80080B500AF024802F03AFE00BF80BD00BFFC
:1019D800E000002080B485B000AF154B9B69144A25
:1019E80043F001039361124B9B6903F00103BB6051
:1019F800BB680F4BDB690E4A43F08053D3610C4B35
:101A0800DB6903F080537B607B680A4B5B68FB6093
:101A1800FB6823F0E063FB60FB6843F00073FB6046
:101A2800044AFB68536000BF1437BD4680BC70474A
:101A3800001002400000014080B586B000AF786019
:101A48000023FB7500233B610023BB600023FB6080
:101A58007B68002B01D10123CEE07B689B68002BBB
:101A68007B689B6A002B09D17B680022DA627B685D
:101A7800002283F824207868FFF7CAFD786800F010
:101A88000FFC0346FB757B689B6A03F01003002B71
:101A980040F0A980FB7D002B40F0A5807B689B6A05
:101AA80023F4885323F0020343F002027B689A620E
:101AB8007B685A687B681B6851498B420AD17B68EE
:101AC800DB69B3F5402F02D07B68DB6904E04FF493
:101AD800002301E07B68DB691A437B681B7B5B00A2
:101AE8001343BA681343BB607B689B68B3F5807F78
:101AF80003D07B689B68012B02D14FF4807300E010
:101B080000233A6913433B617B681B7D012B19D184
:101B18007B681B7B002B09D17B689B69013B5A03BF
:101B28003B69134343F400633B610BE07B689B6AAA
:101B380043F020027B689A627B68DB6A43F001020B
:101B48007B68DA627B681B685B6823F469417B68A1
:101B58001B683A690A435A607B681B689A68294B74
:101B680013407A681268B9680B4393607B689B6876
:101B7800B3F5807F03D07B689B68012B04D17B6819
:101B88001B69013B1B05FB607B681B68DB6A23F450
:101B980070017B681B68FA680A43DA627B681B6815
:101BA8009A68194B1340BA689A420BD17B68002295
:101BB800DA627B689B6A23F0030343F001027B68C7
:101BC8009A6218E07B689B6A23F0120343F01002C4
:101BD8007B689A627B68DB6A43F001027B68DA62A1
:101BE8000123FB7507E07B689B6A43F010027B6862
:101BF8009A620123FB75FB7D18461837BD4680BDE8
:101C0800003C0140FDF7E1FFFE0E1FFF80B584B0E8
:101C180000AF78600023FB737B6893F82430012BB6
:101C280001D1022398E07B68012283F82420786898
:101C380000F0DCFA0346FB73FB7B002B40F0878047
:101C48007B689B6A23F4407323F0010343F480729A
:101C58007B689A627B681B68414A934205D1414B75
:101C68005B6803F47023002B15D17B689B6A23F40F
:101C780080127B689A627B681B685B6803F48063E8
:101C8800002B26D07B689B6A23F4405343F4805290
:101C98007B689A621DE07B689B6A43F480127B68CC
:101CA8009A627B681B682F4A934204D07B681B6842
:101CB8002B4A93420DD12B4B5B6803F48063002BB6
:101CC80007D07B689B6A23F4405343F480527B68B7
:101CD8009A627B689B6A03F48053002B06D07B686A
:101CE800DB6A23F006027B68DA6202E07B68002286
:101CF800DA627B68002283F824207B681B686FF017
:101D080002021A607B681B689B6803F46023B3F5C2
:101D1800602F13D17B681B68114A934205D1114B80
:101D28005B6803F47023002B08D17B681B689A68F2
:101D38007B681B6842F4A0029A600CE07B681B6811
:101D48009A687B681B6842F480129A6003E07B689B
:101D5800002283F82420FB7B18461037BD4680BD3F
:101D6800002801400024014080B584B000AF7860AD
:101D78000023FB737B6893F82430012B01D10223E5
:101D88001AE07B68012283F82420786800F088FA3A
:101D98000346FB73FB7B002B09D17B689B6A23F40A
:101DA800885323F0010343F001027B689A627B6841
:101DB800002283F82420FB7B18461037BD4680BDDF
:101DC80090B587B000AF7860396000237B6100234D
:101DD800FB6000233B6100F0ABFB78617B681B680C
:101DE8009B6803F48073002B0BD07B689B6A43F0DD
:101DF80020027B689A627B68002283F824200123F2
:101E0800D3E07B681B685B6803F48073002B31D1D7
:101E18007B681B68DB6A03F47003002B2AD121E07E
:101E28003B68B3F1FF3F1DD03B68002B07D000F0A3
:101E38007FFB02467B69D31A3A689A4212D27B68C2
:101E48001B681B6803F00203002B0BD17B689B6A9D
:101E580043F004027B689A627B68002283F824209E
:101E68000323A2E07B681B681B6803F00203002BB6
:101E7800D6D070E04F4B1C68022001F029F80346C9
:101E8800B4FBF3F27B681B6819694B4B0B40002BC2
:101E980018D17B681B68D968484B0B40002B11D1BF
:101EA8007B681B681969464B0B40002B08D17B687F
:101EB8001B68D968434B0B40002B01D1142320E049
:101EC80029231EE07B681B6819693D4B0B40002BDA
:101ED80006D17B681B68D9683A4B0B40002B0DD0A4
:101EE8007B681B681969384B0B40002B08D17B684D
:101EF8001B68D968344B0B40002B01D1542300E0F8
:101F0800FC2302FB03F33B6121E03B68B3F1FF3F95
:101F18001AD03B68002B07D000F00AFB02467B6909
:101F2800D31A3A689A420FD2FB683A699A420BD997
:101F38007B689B6A43F004027B689A627B68002294
:101F480083F82420032330E0FB680133FB60FB683F
:101F58003A699A42D9D87B681B686FF012021A60F6
:101F68007B689B6A43F400727B689A627B681B6893
:101F78009B6803F46023B3F5602F15D17B681B7B46
:101F8800002B11D17B689B6A23F480727B689A626C
:101F98007B689B6A03F48053002B05D17B689B6A9E
:101FA80043F001027B689A62002318461C37BD463D
:101FB80090BD00BF080000202449922424499200C3
:101FC80092244912922449004992240080B483B093
:101FD80000AF78607B681B68DB6C18460C37BD4621
:101FE80080BC704780B485B000AF7860396000234A
:101FF800FB730023BB607B6893F82430012B01D16D
:102008000223DCE07B68012283F824203B685B68BC
:10201800062B1CD87B681B68596B3B685A681346AB
:102028009B001344053B1F2202FA03F3DB431940CC
:102038003B6818683B685A6813469B001344053B85
:1020480000FA03F27B681B680A435A633CE03B686A
:102058005B680C2B1CD87B681B68196B3B685A683B
:1020680013469B001344233B1F2202FA03F3DB436E
:1020780019403B6818683B685A6813469B0013442C
:10208800233B00FA03F27B681B680A431A631BE0D0
:102098007B681B68D96A3B685A6813469B001344DF
:1020A800413B1F2202FA03F3DB4319403B681868DF
:1020B8003B685A6813469B001344413B00FA03F2FD
:1020C8007B681B680A43DA623B681B68092B1CD9CA
:1020D8007B681B68D9683B681A6813465B00134421
:1020E8001E3B072202FA03F3DB4319403B6898685A
:1020F8003B681A6813465B0013441E3B00FA03F260
:102108007B681B680A43DA6019E07B681B681969F9
:102118003B681A6813465B001344072202FA03F36C
:10212800DB4319403B6898683B681A6813465B00B4
:10213800134400FA03F27B681B680A431A613B6880
:102148001B68102B03D03B681B68112B32D17B68AE
:102158001B681D4A934225D17B681B689B6803F462
:102168000003002B26D17B681B689A687B681B6874
:1021780042F400029A603B681B68102B1AD1134B7B
:102188001B68134AA2FB03239A0C13469B001344B3
:102198005B00BB6002E0BB68013BBB60BB68002B17
:1021A800F9D107E07B689B6A43F020027B689A625A
:1021B8000123FB737B68002283F82420FB7B1846ED
:1021C8001437BD4680BC7047002401400800002039
:1021D80083DE1B4380B483B000AF78607B689B6A62
:1021E80018460C37BD4680BC7047000080B584B0E7
:1021F80000AF78600023FB600023BB607B681B682E
:102208009B6803F00103012B40D07B681B689A6828
:102218007B681B6842F001029A601F4B1B681F4ACB
:10222800A2FB03239B0CBB6002E0BB68013BBB60C5
:10223800BB68002BF9D100F07BF9F8601FE000F0D3
:1022480077F90246FB68D31A022B18D97B681B68FA
:102258009B6803F00103012B11D07B689B6A43F054
:1022680010027B689A627B68DB6A43F001027B6834
:10227800DA627B68002283F82420012307E07B6868
:102288001B689B6803F00103012BD8D10023184673
:102298001037BD4680BD00BF0800002083DE1B4309
:1022A80080B584B000AF78600023FB607B681B6852
:1022B8009B6803F00103012B2ED17B681B689A6889
:1022C8007B681B6822F001029A6000F031F9F8601F
:1022D8001BE000F02DF90246FB68D31A022B14D933
:1022E8007B681B689B6803F00103012B0DD17B6899
:1022F8009B6A43F010027B689A627B68DB6A43F052
:1023080001027B68DA62012307E07B681B689B682F
:1023180003F00103012BDCD0002318461037BD461B
:1023280080BD000090B587B000AF78600023FB75D2
:102338000023FB607B6893F82430012B01D1022332
:1023480097E07B68012283F824207868FFF7A8FFCC
:102358000346FB757868FFF749FF0346FB75FB7D6D
:10236800002B40F081807B689B6A23F4885323F01C
:10237800020343F002027B689A62404B1C68022009
:1023880000F0A6FD0346B4FBF3F35B00FB6002E03C
:10239800FB68013BFB60FB68002BF9D17B681B687D
:1023A8009A687B681B6842F008029A6000F0C0F8DF
:1023B80038611BE000F0BCF802463B69D31A0A2BCF
:1023C80014D97B681B689B6803F00803002B0DD0A9
:1023D8007B689B6A23F0120343F010027B689A62C1
:1023E8007B68002283F82420012342E07B681B6875
:1023F8009B6803F00803002BDCD17B681B689A6894
:102408007B681B6842F004029A6000F091F838611A
:102418001BE000F08DF802463B69D31A0A2B14D949
:102428007B681B689B6803F00403002B0DD07B6856
:102438009B6A23F0120343F010027B689A627B6860
:10244800002283F82420012313E07B681B689B6823
:1024580003F00403002BDCD17B689B6A23F00303A1
:1024680043F001027B689A627B68002283F824208B
:10247800FB7D18461C37BD4690BD00BF08000020F4
:1024880080B500AF084B1B68074A43F01003136080
:10249800032001F083F90F2000F008F8FFF79AFAFB
:1024A8000023184680BD00BF0020024080B582B0DE
:1024B80000AF7860124B1A68124B1B7819464FF41C
:1024C8007A73B3FBF1F3B2FBF3F3184601F09BF90F
:1024D8000346002B01D001230EE07B680F2B0AD89E
:1024E800002279684FF0FF3001F063F9064A7B68F3
:1024F8001360002300E0012318460837BD4680BD5D
:1025080008000020040000200000002080B400AF74
:10251800054B1B781A46054B1B681344034A136086
:1025280000BFBD4680BC7047040000203401002075
:1025380080B400AF024B1B681846BD4680BC70478C
:102548003401002080B586B000AF78607B68002B2E
:1025580001D1012372E27B681B6803F00103002BA1
:1025680000F08780924B5B6803F00C03042B0CD0BF
:102578008F4B5B6803F00C03082B12D18C4B5B6804
:1025880003F48033B3F5803F0BD1894B1B6803F408
:102598000033002B6CD07B685B68002B68D101236B
:1025A8004CE27B685B68B3F5803F06D1804B1B68C3
:1025B8007F4A43F4803313602EE07B685B68002B0E
:1025C8000CD17B4B1B687A4A23F480331360784B19
:1025D8001B68774A23F4802313601DE07B685B68DF
:1025E800B3F5A02F0CD1724B1B68714A43F48023BA
:1025F80013606F4B1B686E4A43F4803313600BE023
:102608006B4B1B686A4A23F480331360684B1B6862
:10261800674A23F4802313607B685B68002B13D020
:10262800FFF786FF386108E0FFF782FF02463B6943
:10263800D31A642B01D9032300E25D4B1B6803F412
:102648000033002BF0D014E0FFF772FF386108E088
:10265800FFF76EFF02463B69D31A642B01D90323A7
:10266800ECE1534B1B6803F40033002BF0D100E07E
:1026780000BF7B681B6803F00203002B63D04C4B40
:102688005B6803F00C03002B0BD0494B5B6803F02D
:102698000C03082B1CD1464B5B6803F48033002BDA
:1026A80016D1434B1B6803F00203002B05D07B684F
:1026B8001B69012B01D00123C0E13D4B1B6823F0AE
:1026C800F8027B685B69DB00394913430B603AE029
:1026D8007B681B69002B20D0364B01221A60FFF75C
:1026E80027FF386108E0FFF723FF02463B69D31A4A
:1026F800022B01D90323A1E12D4B1B6803F0020330
:10270800002BF0D02A4B1B6823F0F8027B685B692A
:10271800DB00274913430B6015E0264B00221A60A3
:10272800FFF706FF386108E0FFF702FF02463B6942
:10273800D31A022B01D9032380E11D4B1B6803F038
:102748000203002BF0D17B681B6803F00803002B01
:102758003AD07B689B69002B19D0174B01221A606D
:10276800FFF7E6FE386108E0FFF7E2FE02463B6944
:10277800D31A022B01D9032360E10D4B5B6A03F0E6
:102788000203002BF0D0012000F0CEFA1CE00A4B27
:1027980000221A60FFF7CCFE38610FE0FFF7C8FE91
:1027A80002463B69D31A022B08D9032346E100BF2E
:1027B800001002400000424280044242924B5B6A91
:1027C80003F00203002BE9D17B681B6803F00403C4
:1027D800002B00F0A6800023FB758B4BDB6903F010
:1027E8008053002B0DD1884BDB69874A43F0805317
:1027F800D361854BDB6903F08053BB60BB68012361
:10280800FB75824B1B6803F48073002B18D17F4B38
:102818001B687E4A43F480731360FFF789FE3861B2
:1028280008E0FFF785FE02463B69D31A642B01D9FD
:10283800032303E1754B1B6803F48073002BF0D06E
:102848007B68DB68012B06D16F4B1B6A6E4A43F02D
:10285800010313622DE07B68DB68002B0CD16A4B07
:102868001B6A694A23F001031362674B1B6A664AB5
:1028780023F0040313621CE07B68DB68052B0CD192
:10288800614B1B6A604A43F0040313625E4B1B6A88
:102898005D4A43F0010313620BE05B4B1B6A5A4A23
:1028A80023F001031362584B1B6A574A23F00403B1
:1028B80013627B68DB68002B15D0FFF739FE38619F
:1028C8000AE0FFF735FE02463B69D31A41F2883227
:1028D800934201D90323B1E04B4B1B6A03F0020377
:1028E800002BEED014E0FFF723FE38610AE0FFF773
:1028F8001FFE02463B69D31A41F28832934201D93E
:1029080003239BE0404B1B6A03F00203002BEED12C
:10291800FB7D012B05D13C4BDB693B4A23F08053FF
:10292800D3617B68DB69002B00F08780364B5B68DE
:1029380003F00C03082B61D07B68DB69022B46D1BE
:10294800334B00221A60FFF7F3FD386108E0FFF708
:10295800EFFD02463B69D31A022B01D903236DE030
:10296800294B1B6803F00073002BF0D17B681B6AAE
:10297800B3F5803F08D1244B5B6823F400327B68B1
:102988009B68214913434B601F4B5B6823F4741207
:102998007B68196A7B685B6A0B431B4913434B606E
:1029A8001B4B01221A60FFF7C3FD386108E0FFF7EF
:1029B800BFFD02463B69D31A022B01D903233DE030
:1029C800114B1B6803F00073002BF0D035E0104B5F
:1029D80000221A60FFF7ACFD386108E0FFF7A8FD98
:1029E80002463B69D31A022B01D9032326E0064B82
:1029F8001B6803F00073002BF0D11EE07B68DB69D5
:102A0800012B07D1012319E000100240007000409B
:102A1800600042420B4B5B68FB60FB6803F480324A
:102A28007B681B6A9A4206D1FB6803F470127B68C4
:102A38005B6A9A4201D0012300E000231846183748
:102A4800BD4680BD0010024080B584B000AF7860FC
:102A580039607B68002B01D10123D0E06A4B1B68E9
:102A680003F007033A689A4210D9674B1B6823F0B2
:102A7800070265493B6813430B60634B1B6803F00F
:102A880007033A689A4201D00123B8E07B681B68C3
:102A980003F00203002B20D07B681B6803F00403BB
:102AA800002B05D0594B5B68584A43F4E0635360E8
:102AB8007B681B6803F00803002B05D0534B5B6849
:102AC800524A43F460535360504B5B6823F0F00262
:102AD8007B689B684D4913434B607B681B6803F018
:102AE8000103002B40D07B685B68012B07D1474B63
:102AF8001B6803F40033002B15D101237FE07B68AA
:102B08005B68022B07D1414B1B6803F00073002B55
:102B180009D1012373E03D4B1B6803F00203002B2E
:102B280001D101236BE0394B5B6823F003027B681A
:102B38005B68364913434B60FFF7FAFCF8600AE01C
:102B4800FFF7F6FC0246FB68D31A41F2883293423B
:102B580001D9032353E02D4B5B6803F00C027B681B
:102B68005B689B009A42EBD1274B1B6803F0070375
:102B78003A689A4210D2244B1B6823F00702224974
:102B88003B6813430B60204B1B6803F007033A684C
:102B98009A4201D0012332E07B681B6803F00403EA
:102BA800002B08D0194B5B6823F4E0627B68DB6874
:102BB800164913434B607B681B6803F00803002B1E
:102BC80009D0124B5B6823F460527B681B69DB00F9
:102BD8000E4913434B6000F021F802460B4B5B682B
:102BE8001B0903F00F030A49CB5C22FA03F3094AD5
:102BF8001360094B1B681846FFF758FC002318465A
:102C08001037BD4680BD00BF0020024000100240C2
:102C1800F88E0008080000200000002080B487B06B
:102C280000AF0023FB600023BB6000237B6100230F
:102C38007B6000233B611E4B5B68FB60FB6803F015
:102C48000C03042B02D0082B03D027E0194B3B615F
:102C580027E0FB689B0C03F00F03174AD35C7B60EB
:102C6800FB6803F48033002B10D0114B5B685B0CBE
:102C780003F00103114AD35CBB607B680D4A03FB78
:102C880002F2BB68B2FBF3F37B6104E07B680C4A99
:102C980002FB03F37B617B693B6102E0054B3B610F
:102CA80000BF3B6918461C37BD4680BC704700BF53
:102CB8000010024000127A00D08E0008E08E000852
:102CC80000093D0080B400AF024B1B681846BD46A2
:102CD80080BC70470800002080B500AFFFF7F2FF06
:102CE8000246054B5B681B0A03F007030349CB5CEC
:102CF80022FA03F3184680BD00100240088F00082E
:102D080080B500AFFFF7DEFF0246054B5B68DB0AC4
:102D180003F007030349CB5C22FA03F3184680BD8E
:102D280000100240088F000880B485B000AF7860BA
:102D38000A4B1B680A4AA2FB03235B0A7A6802FB58
:102D480003F3FB6000BFFB685A1EFA60002BF9D141
:102D580000BF00BF1437BD4680BC70470800002084
:102D6800D34D621080B586B000AF786000233B6118
:102D78000023FB607B681B6803F00103002B7DD0F8
:102D88000023FB754F4BDB6903F08053002B0DD1FB
:102D98004C4BDB694B4A43F08053D361494BDB69A9
:102DA80003F08053BB60BB680123FB75464B1B686F
:102DB80003F48073002B18D1434B1B68424A43F439
:102DC80080731360FFF7B4FB386108E0FFF7B0FBCE
:102DD80002463B69D31A642B01D903236DE03A4BB1
:102DE8001B6803F48073002BF0D0364B1B6A03F486
:102DF8004073FB60FB68002B2ED07B685B6803F494
:102E08004073FA689A4227D02E4B1B6A23F440730A
:102E1800FB602E4B01221A602C4B00221A60294AB3
:102E2800FB681362FB6803F00103002B14D0FFF763
:102E38007FFB38610AE0FFF77BFB02463B69D31A48
:102E480041F28832934201D9032336E01D4B1B6AB5
:102E580003F00203002BEED01A4B1B6A23F44072D6
:102E68007B685B68174913430B62FB7D012B05D117
:102E7800144BDB69134A23F08053D3617B681B68CA
:102E880003F00203002B08D00E4B5B6823F440428A
:102E98007B689B680B4913434B607B681B6803F096
:102EA8001003002B08D0074B5B6823F480027B6873
:102EB8005B69044913434B60002318461837BD4625
:102EC80080BD00BF00100240007000404004424234
:102ED80080B588B000AF786000237B610023FB6178
:102EE80000233B610023FB600023BB617B68013B3F
:102EF8000F2B00F2AF8001A252F823F0DB2F00085D
:102F0800413000085D300008CB2F00085D30000814
:102F18005D3000085D300008D32F00085D300008E0
:102F28005D3000085D3000085D3000085D30000845
:102F38005D3000085D300008452F00084A4B5B688B
:102F4800FB60494B1B6803F08073002B00F0848002
:102F5800FB689B0C03F00F03444AD35C3B61FB689E
:102F680003F48033002B15D03F4B5B685B0C03F0F8
:102F780001033F4AD35C7B61FB6803F48033002B79
:102F88000DD03C4A7B69B2FBF3F23B6902FB03F3C9
:102F9800FB6104E03B69384A02FB03F3FB61324BF7
:102FA8005B6803F48003B3F5800F02D1FB69BB6152
:102FB80052E0FB695B00314AA2FB03235B08BB615B
:102FC8004AE0FFF72BFEB86149E0FFF727FEB8613A
:102FD80045E0254B1B6AFB60FB6803F44073B3F5BF
:102FE800807F08D1FB6803F00203002B03D04FF465
:102FF8000043BB611FE0FB6803F44073B3F5007F37
:1030080009D1194B5B6A03F00203002B03D049F680
:103018004043BB610FE0FB6803F44073B3F5407FA6
:103028001CD1114B1B6803F40033002B16D04FF250
:103038002443BB6112E011E0FFF762FE02460A4B2F
:103048005B689B0B03F0030301335B00B2FBF3F3F4
:10305800BB6104E000BF02E000BF00E000BFBB6945
:1030680018462037BD4680BD00100240E48E000897
:10307800F48E000800127A0000093D00ABAAAAAA43
:1030880080B48BB000AF7860396000237B62002386
:103098003B6279E101227B6A02FA03F3FB613B6838
:1030A8001B68FA691340BB61BA69FB699A4240F030
:1030B80068813B685B68964A93425ED0944A934223
:1030C80075D8944A934258D0924A93426FD8924AFC
:1030D800934252D0904A934269D8904A93424CD036
:1030E8008E4A934263D88E4A934246D08C4A934282
:1030F8005DD8122B2AD8122B59D801A252F823F0E6
:10310800833100085D3100086F310008B1310008D3
:10311800B7310008B7310008B7310008B7310008E7
:10312800B7310008B7310008B7310008B7310008D7
:10313800B7310008B7310008B7310008B7310008C7
:10314800B73100086531000879310008754A9342A3
:1031580013D02CE03B68DB683B6229E03B68DB6806
:1031680004333B6224E03B68DB6808333B621FE0C2
:103178003B68DB680C333B621AE03B689B68002BBA
:1031880002D104233B6213E03B689B68012B05D105
:1031980008233B627B68FA691A6109E008233B62ED
:1031A8007B68FA695A6103E000233B6200E000BFD4
:1031B800BB69FF2B01D87B6801E07B6804337B6126
:1031C800BB69FF2B02D87B6A9B0002E07B6A083B45
:1031D8009B003B617B691A680F213B6901FA03F385
:1031E800DB431A40396A3B6901FA03F31A437B69E6
:1031F8001A603B685B6803F08053002B00F0C180C5
:10320800494B9B69484A43F001039361464B9B69CC
:1032180003F00103BB60BB68444A7B6A9B08023326
:1032280052F82330FB607B6A03F003039B000F22F4
:1032380002FA03F3DB43FA681340FB607B683C4AFD
:1032480093421FD07B683B4A934219D07B683A4A25
:10325800934213D07B68394A93420DD07B68384A31
:10326800934207D07B68374A934201D105230AE08D
:10327800062308E0042306E0032304E0022302E017
:10328800012300E000237A6A02F0030292009340CF
:10329800FA681343FB6025497B6A9B080233FA6886
:1032A80041F823203B685B6803F48013002B06D0A9
:1032B800254B9A682449BB6913438B6006E0224B6F
:1032C8009A68BB69DB43204913408B603B685B68A5
:1032D80003F40013002B06D01B4BDA681A49BB69AC
:1032E8001343CB6006E0184BDA68BB69DB43164929
:1032F8001340CB603B685B6803F40033002B25D098
:10330800114B5A681049BB6913434B6025E000BF55
:1033180000003210000031100000221000002110BF
:1033280000001210000011100010024000000140BF
:1033380000080140000C0140001001400014014049
:1033480000180140001C014000040140154B5A6858
:10335800BB69DB43134913404B603B685B6803F46C
:103368008033002B06D00F4B1A680E49BB691343F4
:103378000B6006E00B4B1A68BB69DB430949134035
:103388000B607B6A01337B623B681A687B6A22FAAE
:1033980003F3002B7FF47EAE00BF00BF2C37BD4681
:1033A80080BC70470004014080B582B000AF03467E
:1033B800FB80084B5A69FB881340002B06D0054A4E
:1033C800FB885361FB88184605F04CFB00BF0837A3
:1033D800BD4680BD0004014080B584B000AF786070
:1033E8000023FB737B6893F82130DBB2022B05D0F6
:1033F8007B6804229A630123FB73D6E07B681B6811
:103408001A687B681B6822F00E021A607B681B68CA
:103418001A687B681B6822F001021A607B681B68C7
:103428001A46644B9A4258D97B681B68624A934291
:103438004FD07B681B68614A934248D07B681B6801
:103448005F4A934240D07B681B685E4A934238D0FB
:103458007B681B685C4A934230D07B681B685B4A78
:10346800934228D07B681B68524A934220D07B68DD
:103478001B68574A934219D07B681B68554A934288
:1034880012D07B681B68544A93420AD07B681B6839
:10349800524A934202D14FF480531BE04FF48033D9
:1034A80018E04FF4807315E0102313E0012311E0B6
:1034B8004FF080730EE04FF480130BE04FF480332D
:1034C80008E04FF4805305E04FF4807302E01023C6
:1034D80000E00123424A536057E07B681B68364A84
:1034E80093424FD07B681B68344A934248D07B682C
:1034F8001B68334A934240D07B681B68314A934229
:1035080038D07B681B68304A934230D07B681B6890
:103518002E4A934228D07B681B68264A934220D0C3
:103528007B681B682A4A934219D07B681B68294A22
:10353800934212D07B681B68274A93420AD07B6863
:103548001B68264A934202D14FF480531BE04FF484
:10355800803318E04FF4807315E0102313E0012343
:1035680011E04FF080730EE04FF480130BE04FF43E
:10357800803308E04FF4805305E04FF4807302E095
:10358800102300E00123174A53607B68012283F867
:1035980021207B68002283F820207B685B6B002B4E
:1035A80003D07B685B6B78689847FB7B18461037BD
:1035B800BD4680BD80000240080002401C00024059
:1035C8003000024044000240580002406C000240B3
:1035D800080402401C040240300402404404024033
:1035E800000402400000024080B483B000AF78605D
:1035F8007B6893F82130DBB218460C37BD4680BC97
:103608007047000080B485B000AF78607B6803F035
:103618000703FB600C4BDB68BB60BA684FF6FF031F
:103628001340BB60FB681A02BB68134343F0BF63D7
:1036380043F40033BB60044ABB68D36000BF14374F
:10364800BD4680BC704700BF00ED00E080B400AF0D
:10365800044BDB681B0A03F007031846BD4680BC11
:10366800704700BF00ED00E080B483B000AF0346B0
:10367800FB7197F90730002B0BDBFB7903F01F0276
:10368800064997F907305B09012000FA02F241F870
:10369800232000BF0C37BD4680BC704700E100E026
:1036A80080B483B000AF03463960FB7197F90730E7
:1036B800002B0ADB3B68DAB20C4997F90730120194
:1036C800D2B20B4483F800230AE03B68DAB2084917
:1036D800FB7903F00F03043B1201D2B20B441A76B4
:1036E80000BF0C37BD4680BC704700BF00E100E05A
:1036F80000ED00E080B489B000AFF860B9607A608E
:10370800FB6803F00703FB61FB69C3F10703042BA4
:1037180028BF0423BB61FB690433062B02D9FB696C
:10372800033B00E000237B614FF0FF32BB6902FAE4
:1037380003F3DA43BB681A407B699A404FF0FF31C4
:103748007B6901FA03F3D9437B680B40134318469E
:103758002437BD4680BC704780B582B000AF786022
:103768007B68013BB3F1807F01D301230FE00A4A54
:103778007B68013B53600F214FF0FF30FFF790FF4C
:10378800054B00229A60044B07221A600023184652
:103798000837BD4680BD00BF10E000E080B582B0AC
:1037A80000AF78607868FFF72DFF00BF0837BD4687
:1037B80080BD80B586B000AF0346B9607A60FB7300
:1037C80000237B61FFF742FF78617A68B9687869FE
:1037D800FFF790FF024697F90F3011461846FFF79A
:1037E8005FFF00BF1837BD4680BD80B582B000AF0F
:1037F8000346FB7197F907301846FFF735FF00BFFE
:103808000837BD4680BD80B582B000AF7860786863
:10381800FFF7A2FF034618460837BD4680BD0000E3
:1038280080B584B000AF78607B68002B01D101239C
:103838002BE17B6893F83D30DBB2002B06D17B6827
:10384800002283F83C207868FDF7C6FF7B682422B5
:1038580083F83D207B681B681A687B681B6822F028
:1038680001021A607B681B681A687B681B6842F44F
:1038780000421A607B681B681A687B681B6822F420
:1038880000421A60FFF728FAF8607B685B68814A93
:10389800934207D8FB68804A934294BF01230023D0
:1038A800DBB206E0FB687D4A934294BF0123002304
:1038B800DBB2002B01D00123E7E0FB68784AA2FBCA
:1038C80003239B0CBB607B681B685B6823F03F018C
:1038D8007B681B68BA680A435A607B681B681B6A66
:1038E80023F03F017B685B686A4A934202D8BB6851
:1038F800013309E0BB684FF4967202FB03F3694A8F
:10390800A2FB03239B0901337A6812680B431362F5
:103918007B681B68DB6923F44F4222F0FF027B6857
:103928005B685C498B4219D8FB68591E7B685B68E9
:103938005B00B1FBF3F3591C40F6FC730B40002B02
:103948000AD0FB68591E7B685B685B00B1FBF3F328
:103958000133C3F30B0351E004234FE07B689B68FA
:10396800002B11D1FB68581E7B6859680B465B0019
:103978000B44B0FBF3F30133C3F30B03002B0CBF71
:1039880001230023DBB212E0FB68581E7B685968EC
:103998000B469B000B4499000B44B0FBF3F3013337
:1039A800C3F30B03002B0CBF01230023DBB2002B56
:1039B80001D0012322E07B689B68002B0ED1FB68B5
:1039C800581E7B6859680B465B000B44B0FBF3F349
:1039D8000133C3F30B0343F400430FE0FB68581EA5
:1039E8007B6859680B469B000B4499000B44B0FB5D
:1039F800F3F30133C3F30B0343F4404379680968D5
:103A08001343CB617B681B681B6823F0C0017B688C
:103A1800DA697B681B6A1A437B681B680A431A6069
:103A28007B681B689B6823F4034323F0FF037A68D1
:103A380011697A68D26811437A6812680B439360F7
:103A48007B681B68DB6823F0FF017B685A697B6829
:103A58009B691A437B681B680A43DA607B681B68AA
:103A68001A687B681B6842F001021A607B680022B2
:103A78001A647B68202283F83D207B6800221A6341
:103A88007B68002283F83E20002318461037BD4685
:103A980080BD00BFA08601007F841E00FF083D0096
:103AA80083DE1B43D34D621080B483B000AF7860CF
:103AB8007B681B685B6903F08003802B03D17B68FC
:103AC8001B6800221A6100BF0C37BD4680BC7047D6
:103AD80080B588B002AFF8607A601A460B467B81E1
:103AE80013463B81FEF724FD7861FB6893F83D306F
:103AF800DBB2202B40F0E0807B6900931923012280
:103B08007049F86802F0B6FA0346002B01D0022388
:103B1800D3E0FB6893F83C30012B01D10223CCE0C1
:103B2800FB68012283F83C20FB681B681B6803F0D4
:103B38000103012B07D0FB681B681A68FB681B6828
:103B480042F001021A60FB681B681A68FB681B6870
:103B580022F400621A60FB68212283F83D20FB688A
:103B6800102283F83E20FB6800221A64FB687A68FA
:103B78005A62FB683A895A85FB685B8D9AB2FB6882
:103B88001A85FB68504ADA6279897B693A6AF8686B
:103B980001F0E2FF0346002B01D001238DE0002352
:103BA8003B61FB681B685B693B61FB681B689B6941
:103BB8003B613B6966E07A69396AF86802F074FB30
:103BC8000346002B0DD0FB681B6C042B07D1FB6848
:103BD8001B681A68FB681B6842F400721A600123AC
:103BE8006BE0FB685B6A1A78FB681B681A61FB6804
:103BF8005B6A5A1CFB685A62FB685B8D9BB2013B8F
:103C08009AB2FB685A85FB681B8D013B9AB2FB6828
:103C18001A85FB681B685B6903F00403042B1BD13E
:103C2800FB681B8D002B17D0FB685B6A1A78FB6852
:103C38001B681A61FB685B6A5A1CFB685A62FB685E
:103C48005B8D9BB2013B9AB2FB685A85FB681B8D62
:103C5800013B9AB2FB681A857A69396AF86802F0FA
:103C68006BFB0346002B0DD0FB681B6C042B07D1A4
:103C7800FB681B681A68FB681B6842F400721A60CC
:103C880001231AE0FB681B8D002B94D1FB681B688D
:103C98001A68FB681B6842F400721A60FB682022ED
:103CA80083F83D20FB68002283F83E20FB68002251
:103CB80083F83C20002300E0022318461837BD464D
:103CC80080BD00BF020010000000FFFF80B58CB06F
:103CD80002AFF8607A601A460B467B8113463B8137
:103CE80000233B62FEF724FC7862FB6893F83D30C2
:103CF800DBB2202B40F04B827B6A00931923012210
:103D08007F49F86802F0B6F90346002B01D0022378
:103D18003EE2FB6893F83C30012B01D1022337E2E5
:103D2800FB68012283F83C20FB681B681B6803F0D2
:103D38000103012B07D0FB681B681A68FB681B6826
:103D480042F001021A60FB681B681A68FB681B686E
:103D580022F400621A60FB68222283F83D20FB6887
:103D6800102283F83E20FB6800221A64FB687A68F8
:103D78005A62FB683A895A85FB685B8D9AB2FB6880
:103D88001A85FB685F4ADA6279897B6A3A6BF86858
:103D980001F064FF0346002B01D00123F8E1FB6822
:103DA8001B8D002B13D10023FB61FB681B685B692B
:103DB800FB61FB681B689B69FB61FB69FB681B680F
:103DC8001A68FB681B6842F400721A60CCE1FB6851
:103DD8001B8D012B1ED1FB681B681A68FB681B68CA
:103DE80022F480621A6072B600BF0023BB61FB68D0
:103DF8001B685B69BB61FB681B689B69BB61BB692E
:103E0800FB681B681A68FB681B6842F400721A603A
:103E180062B635E0FB681B8D022B1ED1FB681B6860
:103E28001A68FB681B6842F400621A6072B600BF29
:103E380000237B61FB681B685B697B61FB681B680F
:103E48009B697B617B69FB681B681A68FB681B6858
:103E580022F480621A6062B612E0FB681B681A6876
:103E6800FB681B6842F480621A6000233B61FB68B0
:103E78001B685B693B61FB681B689B693B613B692D
:103E880072E1FB681B8D032B00F21F81FB681B8D01
:103E9800012B23D17A6A396BF86802F0C7FA034616
:103EA800002B01D0012373E1FB681B681A69FB68CA
:103EB8005B6AD2B21A70FB685B6A5A1CFB685A626A
:103EC800FB681B8D013B9AB2FB681A85FB685B8D0A
:103ED8009BB2013B9AB2FB685A8545E1FB681B8D92
:103EE800022B52D17B6A00933B6B00220649F8688B
:103EF80002F0C0F80346002B08D0012348E100BFB8
:103F0800020010000000FFFF0400010072B600BFAD
:103F1800FB681B681A68FB681B6842F400721A6029
:103F2800FB681B681A69FB685B6AD2B21A70FB6887
:103F38005B6A5A1CFB685A62FB681B8D013B9AB28C
:103F4800FB681A85FB685B8D9BB2013B9AB2FB68E4
:103F58005A8562B600BFFB681B681A69FB685B6A12
:103F6800D2B21A70FB685B6A5A1CFB685A62FB681B
:103F78001B8D013B9AB2FB681A85FB685B8D9BB26F
:103F8800013B9AB2FB685A85EEE07B6A00933B6B73
:103F980000228149F86802F06DF80346002B01D031
:103FA8000123F5E0FB681B681A68FB681B6822F4AC
:103FB80080621A6072B600BFFB681B681A69FB68EA
:103FC8005B6AD2B21A70FB685B6A5A1CFB685A6259
:103FD800FB681B8D013B9AB2FB681A85FB685B8DF9
:103FE8009BB2013B9AB2FB685A856C4B1B68DB0895
:103FF8006B4AA2FB03231A0A13469B001344DA00F8
:10400800D31A3B623B6A013B3B623B6A002B18D1E7
:10401800FB6800221A63FB68202283F83D20FB68B6
:10402800002283F83E20FB681B6C43F02002FB68EB
:104038001A6462B600BFFB68002283F83C200123A3
:10404800A6E0FB681B685B6903F00403042BD9D165
:10405800FB681B681A68FB681B6842F400721A60E8
:10406800FB681B681A69FB685B6AD2B21A70FB6846
:104078005B6A5A1CFB685A62FB681B8D013B9AB24B
:10408800FB681A85FB685B8D9BB2013B9AB2FB68A3
:104098005A8562B600BFFB681B681A69FB685B6AD1
:1040A800D2B21A70FB685B6A5A1CFB685A62FB68DA
:1040B8001B8D013B9AB2FB681A85FB685B8D9BB22E
:1040C800013B9AB2FB685A854EE07A6A396BF86808
:1040D80002F0ACF90346002B01D0012358E0FB683D
:1040E8001B681A69FB685B6AD2B21A70FB685B6A64
:1040F8005A1CFB685A62FB681B8D013B9AB2FB682D
:104108001A85FB685B8D9BB2013B9AB2FB685A85A6
:10411800FB681B685B6903F00403042B24D1FB686C
:104128001B8D032B07D1FB681B681A68FB681B688B
:1041380022F480621A60FB681B681A69FB685B6A74
:10414800D2B21A70FB685B6A5A1CFB685A62FB6839
:104158001B8D013B9AB2FB681A85FB685B8D9BB28D
:10416800013B9AB2FB685A85FB681B8D002B7FF4D4
:1041780088AEFB68202283F83D20FB68002283F884
:104188003E20FB68002283F83C20002300E0022345
:1041980018462837BD4680BD0400010008000020ED
:1041A80089B5F81480B588B002AFF86008461146A2
:1041B8001A4603467B810B463B811346FB80FEF77C
:1041C800B7F97861FB6893F83D30DBB2202B40F0FB
:1041D800D9807B690093192301226D49F86801F0A1
:1041E80049FF0346002B01D00223CCE0FB6893F87B
:1041F8003C30012B01D10223C5E0FB68012283F882
:104208003C20FB681B681B6803F00103012B07D0E7
:10421800FB681B681A68FB681B6842F001021A6099
:10422800FB681B681A68FB681B6822F400621A6046
:10423800FB68212283F83D20FB68402283F83E205A
:10424800FB6800221A64FB683A6A5A62FB68BA8CF7
:104258005A85FB685B8D9AB2FB681A85FB684D4AE4
:10426800DA62F8883A8979897B690193BB6A009395
:104278000346F86801F0C0FD0346002B52D0012325
:1042880081E07A69B96AF86802F00EF80346002BF3
:104298000DD0FB681B6C042B07D1FB681B681A68E0
:1042A800FB681B6842F400721A6001236BE0FB682C
:1042B8005B6A1A78FB681B681A61FB685B6A5A1CA0
:1042C800FB685A62FB681B8D013B9AB2FB681A8532
:1042D800FB685B8D9BB2013B9AB2FB685A85FB6811
:1042E8001B685B6903F00403042B1BD1FB681B8D5F
:1042F800002B17D0FB685B6A1A78FB681B681A6189
:10430800FB685B6A5A1CFB685A62FB681B8D013BA1
:104318009AB2FB681A85FB685B8D9BB2013B9AB227
:10432800FB685A85FB681B8D002BAAD17A69B96A8C
:10433800F86802F001F80346002B0DD0FB681B6CEF
:10434800042B07D1FB681B681A68FB681B6842F4DA
:1043580000721A60012316E0FB681B681A68FB6884
:104368001B6842F400721A60FB68202283F83D2023
:10437800FB68002283F83E20FB68002283F83C207B
:10438800002300E0022318461837BD4680BD00BF51
:10439800020010000000FFFF80B588B000AF786011
:1043A8000023BB617B681B685B687B617B68DB6A99
:1043B8003B617B6893F83E30FB737B6893F83D3034
:1043C800BB73FB7B102B03D0FB7B402B40F0B180F1
:1043D8007B681B689B69BB617B681B685B69FB61C9
:1043E800FB6903F00103002B0DD13B69B3F52A0FDC
:1043F80003D03B69B3F12A4F01D1012300E0002328
:10440800012B00F01481FB6903F00103002B0BD092
:104418007B6903F40073002B06D0786802F091F8EA
:10442800786800F076FD83E0FB6903F00803002B51
:1044380008D07B6903F40073002B03D0786800F080
:10444800EDFD75E0FB6903F00203002B08D07B69E2
:1044580003F40073002B03D0786800F008FE67E0CF
:10446800BB6903F00403002B36D07B681B685B68CC
:1044780003F40063B3F5006F00F0DB80FB6903F021
:104488008003002B0DD07B6903F48063002B08D0D8
:10449800FB6903F00403002B03D1786800F0D6F918
:1044A80046E0FB6903F00403002B00F0C2807B693F
:1044B80003F40073002B00F0BC80BB7B212B03D1DD
:1044C800786800F05FFAB4E0FB7B402B40F0B180E5
:1044D800786800F0CDFAACE07B681B685B6803F491
:1044E8000063B3F5006F00F0A480FB6903F040039C
:1044F800002B0DD07B6903F48063002B08D0FB6987
:1045080003F00403002B03D1786800F049FB0FE0A7
:10451800FB6903F00403002B00F08B807B6903F434
:104528000073002B00F08580786800F001FC80E0C3
:104538007FE07B681B6C002B04D07B681B685B6981
:10454800FB6107E07B681B689B69BB617B681B6834
:104558005B69FB61FB6903F00203002B11D07B69E7
:1045680003F40073002B0CD07B681B6C002B03D06A
:104578007B681B689B69BB61B969786800F0CEFFEE
:104588005AE0FB6903F01003002B08D07B6903F4A1
:104598000073002B03D0786801F008F84CE0BB7B6F
:1045A800212B02D0BB7B292B20D1FB6903F0800390
:1045B800002B0DD07B6903F48063002B08D0FB69C6
:1045C80003F00403002B03D1786800F0EBFE32E01F
:1045D800FB6903F00403002B2DD07B6903F40073FF
:1045E800002B28D0786800F01AFF24E0FB6903F05C
:1045F8004003002B0DD07B6903F48063002B08D0A7
:10460800FB6903F00403002B03D1786800F027FF4F
:1046180012E0FB6903F00403002B0DD07B6903F45F
:104628000073002B08D0786800F057FF04E000BF43
:1046380002E000BF00E000BF2037BD4680BD80B566
:104648008AB000AF78607B681B685B693B627B68F7
:104658001B685B68FB6100237B627B6893F83E30D4
:10466800FB763B6A03F48073002B15D0FB6903F4D7
:104678008073002B10D07B6A43F001037B627B6858
:104688001B686FF480725A617B681B681A687B68C4
:104698001B6842F400421A603B6A03F40073002B63
:1046A8000DD0FB6903F48073002B08D07B6A43F0BC
:1046B80002037B627B681B686FF400725A613B6A75
:1046C80003F48063002B3ED0FB6903F48073002B56
:1046D80039D0FB7EBB767B685B8D9BB27B617B6848
:1046E80093F83D30FB747B681B6BFB60BB7E202B13
:1046F80012D17B69002B0FD1FB7C212B08D0FB7CCE
:10470800292B05D0FB7C282B06D1FB68212B03D154
:10471800786801F07BF816E07B681B686FF48062AC
:104728005A617B6A43F004037B62FB7E102B02D044
:10473800FB7E402B07D17B681B681A687B681B6867
:1047480042F400721A603B6A03F40063002B0DD038
:10475800FB6903F48073002B08D07B6A43F00803DD
:104768007B627B681B686FF400625A617B6A002B6E
:1047780008D07B681A6C7B6A1A437B681A6478686D
:1047880001F0B8F800BF2837BD4680BD80B483B0BB
:1047980000AF786000BF0C37BD4680BC704780B45E
:1047A80083B000AF786000BF0C37BD4680BC70474F
:1047B80080B483B000AF786000BF0C37BD4680BCC2
:1047C800704780B483B000AF786000BF0C37BD4637
:1047D80080BC704780B483B000AF78600B46FB7034
:1047E80013463B8000BF0C37BD4680BC704780B481
:1047F80083B000AF786000BF0C37BD4680BC7047FF
:1048080080B483B000AF786000BF0C37BD4680BC71
:10481800704780B483B000AF786000BF0C37BD46E6
:1048280080BC704780B483B000AF786000BF0C379D
:10483800BD4680BC704780B483B000AF78607B68A9
:104848001B6C18460C37BD4680BC704780B584B0D9
:1048580000AF78607B6893F83D30FB737B6893F812
:104868003E30BB737B68DB6ABB607B681B8D002BAB
:1048780050D1FB7B212B4DD1BB68082B1DD0BB68C9
:10488800202B1AD0BB6813F5803F16D07B681B68B5
:104898005A687B681B6822F4E0625A607B681122C0
:1048A8001A637B68002283F83E207B68202283F805
:1048B8003D207868FFF76AFF60E07B681B685A68EC
:1048C8007B681B6822F4E0625A607B681B681A6880
:1048D8007B681B6842F400721A607B6800221A63C6
:1048E8007B68202283F83D207B6893F83E30DBB25A
:1048F800402B07D17B68002283F83E207868FFF7B9
:104908007FFF3BE07B68002283F83E207868FFF752
:104918003DFF33E0FB7B212B05D0BB7B402B2DD10A
:10492800FB7B222B2AD17B685B8D9BB2002B08D1A5
:104938007B681B685A687B681B6822F480625A602F
:104948001CE07B6893F83E30DBB2402B03D17868DB
:1049580000F08EF812E07B685B6A1A787B681B6847
:104968001A617B685B6A5A1C7B685A627B685B8D3C
:104978009BB2013B9AB27B685A85FFE700BF1037AC
:10498800BD4680BD80B584B000AF78607B68DB6AC7
:10499800FB607B6893F83D30DBB2212B64D17B68E8
:1049A8005B8D9BB2002B12D07B685B6A1A787B68A0
:1049B8001B681A617B685B6A5A1C7B685A627B6851
:1049C8005B8D9BB2013B9AB27B685A854CE0FB68D1
:1049D800082B1DD0FB68202B1AD0FB6813F5803FED
:1049E80016D07B681B685A687B681B6822F4E062F3
:1049F8005A607B6811221A637B68002283F83E2084
:104A08007B68202283F83D207868FFF7BFFE2BE003
:104A18007B681B685A687B681B6822F4E0625A60EE
:104A28007B681B681A687B681B6842F400721A600E
:104A38007B6800221A637B68202283F83D207B680C
:104A480093F83E30DBB2402B07D17B68002283F815
:104A58003E207868FFF7D4FE06E07B68002283F8E2
:104A68003E207868FFF792FE00BF1037BD4680BD34
:104A780080B584B000AF78607B6893F83D30FB73F5
:104A88007B681B6D002B1DD17B68DB6C012B0BD168
:104A98007B689B6CDAB27B681B681A617B681B6D4C
:104AA8009A1C7B681A6577E07B689B6C9BB21B122B
:104AB800DAB27B681B681A617B681B6D5A1C7B68BD
:104AC8001A6569E07B681B6D012B0BD17B689B6CB9
:104AD800DAB27B681B681A617B681B6D5A1C7B689D
:104AE8001A6559E07B681B6D022B52D1FB7B222B88
:104AF8000DD17B681B681A687B681B6842F480725A
:104B08001A607B681B6D5A1C7B681A6544E07B68D9
:104B18005B8D9BB2002B15D0FB7B212B12D17B68C0
:104B28005B6A1A787B681B681A617B685B6A5A1C27
:104B38007B685A627B685B8D9BB2013B9AB27B684B
:104B48005A8529E07B685B8D9BB2002B24D1FB7BC7
:104B5800212B21D17B681B685A687B681B6822F46B
:104B6800E0625A607B681B681A687B681B6842F4BD
:104B780000721A607B6800221A637B68202283F81F
:104B88003D207B68002283F83E207868FFF738FED6
:104B980002E07868FEF788FF00BF1037BD4680BD89
:104BA80080B584B000AF78607B6893F83D30DBB2A5
:104BB800222B40F0B9807B68DB6AFB607B685B8DE9
:104BC8009BB2BB60BB68032B21D97B681B681A6941
:104BD8007B685B6AD2B21A707B685B6A5A1C7B6816
:104BE8005A627B685B8D9BB2013B9AB27B685A859F
:104BF8007B685B8D9BB2032B40F096807B681B68BB
:104C08005A687B681B6822F480625A608CE07B6873
:104C1800DB6A022B7FD0BB68012B02D0BB68002B5C
:104C280079D1786801F0D0FB0346002B4CD17B6822
:104C38001B681A687B681B6822F480621A607B68AC
:104C48001B685A687B681B6822F4E0625A607B68BC
:104C58001B681A697B685B6AD2B21A707B685B6AE8
:104C68005A1C7B685A627B685B8D9BB2013B9AB287
:104C78007B685A857B68202283F83D207B6893F8FF
:104C88003E30DBB2402B0AD17B68002283F83E20FD
:104C98007B6800221A637868FFF7BBFD44E07B68F5
:104CA800002283F83E20FB68082B02D0FB68202BEB
:104CB80003D17B6800221A6302E07B6812221A6320
:104CC8007868FFF76CFD2FE07B681B685A687B6883
:104CD8001B6822F4E0625A607B681B681A697B686B
:104CE8005B6AD2B21A707B685B6A5A1C7B685A622C
:104CF8007B685B8D9BB2013B9AB27B685A857B6867
:104D0800202283F83D207B68002283F83E207868C3
:104D1800FCF7F6FD08E07B681B685A687B681B682F
:104D280022F480625A60FFE700BF1037BD4680BD9D
:104D380080B584B000AF78607B68DB6AFB607B6815
:104D48005B8D9BB2042B1BD17B681B685A687B6800
:104D58001B6822F480625A607B681B681A697B684A
:104D68005B6AD2B21A707B685B6A5A1C7B685A62AB
:104D78007B685B8D9BB2013B9AB27B685A85C4E025
:104D88007B685B8D9BB2032B29D17B681B685A68B3
:104D98007B681B6822F480625A60FB68042B0AD087
:104DA800FB68022B07D07B681B681A687B681B6846
:104DB80022F480621A607B681B681A697B685B6AE8
:104DC800D2B21A707B685B6A5A1C7B685A627B682D
:104DD8005B8D9BB2013B9AB27B685A8595E07B68F4
:104DE8005B8D9BB2022B7DD1FB68012B02D0FB6847
:104DF800102B08D17B681B681A687B681B6822F433
:104E080080621A6016E0FB68042B02D0FB68022B54
:104E180008D17B681B681A687B681B6842F480624B
:104E28001A6007E07B681B681A687B681B6842F495
:104E380000721A607B681B681A697B685B6AD2B269
:104E48001A707B685B6A5A1C7B685A627B685B8D48
:104E58009BB2013B9AB27B685A857B681B681A69CA
:104E68007B685B6AD2B21A707B685B6A5A1C7B6883
:104E78005A627B685B8D9BB2013B9AB27B685A850C
:104E88007B681B685A687B681B6822F440725A600A
:104E98007B68202283F83D207B6893F83E30DBB2A4
:104EA800402B0AD17B68002283F83E207B680022D1
:104EB8001A637868FFF7ADFC27E07B68002283F867
:104EC8003E20FB68082B02D0FB68202B03D17B68AF
:104ED80000221A6302E07B6812221A637868FFF7DF
:104EE8005EFC12E07B681B681A697B685B6AD2B259
:104EF8001A707B685B6A5A1C7B685A627B685B8D98
:104F08009BB2013B9AB27B685A8500BF1037BD46F9
:104F180080BD80B483B000AF78607B6893F83E3082
:104F2800DBB2402B17D17B681B6D002B09D17B6846
:104F38005B6CDBB21A467B681B6802F0FE021A61E2
:104F480067E07B685B6CDBB243F00103DAB27B6835
:104F58001B681A615DE07B681B69B3F5804F33D12C
:104F68007B6893F83D30DBB2212B09D17B685B6C01
:104F7800DBB21A467B681B6802F0FE021A6108E081
:104F88007B685B6CDBB243F00103DAB27B681B68B9
:104F98001A617B685B6B002B04D07B685B6B9B6A38
:104FA800002B08D17B689B6B002B32D07B689B6BF6
:104FB8009B6A002B2DD07B681B685A687B681B682E
:104FC80042F400625A6024E07B681B6D002B0ED10E
:104FD8007B685B6C9BB2DB11DBB203F00603DBB2D0
:104FE80063F00F03DAB27B681B681A6111E07B6813
:104FF8001B6D012B0DD17B685B6C9BB2DB11DBB2A7
:1050080003F00603DBB263F00E03DAB27B681B68B9
:105018001A6100BF0C37BD4680BC704780B483B0AE
:1050280000AF78607B685B6CDAB27B681B681A61DA
:105038007B685B6B002B04D07B685B6B9B6A002BE7
:1050480008D17B689B6B002B0CD07B689B6B9B6AA1
:10505800002B07D07B681B685A687B681B6842F482
:1050680000625A6000BF0C37BD4680BC704780B4F0
:1050780091B000AF78607B6893F83E3087F83F3096
:105088007B68DB6ABB637B681B6B7B637B6893F81D
:105098003D30DBB2222B40F074817B681B6D002B06
:1050A8000FD197F83F30402B0BD100233B637B682F
:1050B8001B685B693B637B681B689B693B633B6B55
:1050C8006BE17B681B6D002B1DD17B681B69B3F5F9
:1050D800404F18D10023FB627B681B685B69FB6249
:1050E8007B681B689B69FB62FB6A7B681B681A68A4
:1050F8007B681B6842F480721A607B681B6D5A1CBF
:105108007B681A6549E17B685B8D9BB2002B13D1E4
:105118000023BB627B681B685B69BB627B681B689A
:105128009B69BB62BB6A7B681B681A687B681B68E3
:1051380042F400721A6020E17B685B8D9BB2012B00
:1051480040F08A80BB6B13F5803F37D17B681B68C2
:105158001A687B681B6822F480621A607B681B6887
:105168005B6803F40063B3F5006F13D17B681B68B9
:105178001A687B681B6822F480621A6000237B62CD
:105188007B681B685B697B627B681B689B697B62C9
:105198007B6AF2E000233B627B681B685B693B62C9
:1051A8007B681B689B693B623B6A7B681B681A6863
:1051B8007B681B6842F400721A60DEE0BB6B082B48
:1051C8002ED0BB6B202B2BD07B6B122B02D1BB6B51
:1051D800012B25D1BB6B042B0ED0BB6B022B0BD044
:1051E800BB6B102B08D07B681B681A687B681B6830
:1051F80022F480621A6007E07B681B681A687B6883
:105208001B6842F480621A600023FB617B681B689C
:105218005B69FB617B681B689B69FB61FB69ACE0B0
:105228007B681B681A687B681B6822F480621A60B6
:105238000023BB617B681B685B69BB617B681B687B
:105248009B69BB61BB697B681B681A687B681B68C4
:1052580042F400721A6090E07B685B8D9BB2022B6F
:1052680058D1BB6B042B21D0BB6B022B1ED0BB6B60
:10527800102B1BD07B681B681A687B681B6842F47C
:1052880000621A6000237B617B681B685B697B6135
:105298007B681B689B697B617B697B681B681A68F4
:1052A8007B681B6822F480621A6012E07B681B68C6
:1052B8001A687B681B6842F480621A6000233B61AD
:1052C8007B681B685B693B617B681B689B693B610A
:1052D8003B697B681B685B6803F40063B3F5006F88
:1052E8004BD1BB6B13F5803F0BD0BB6B012B08D0A8
:1052F800BB6B082B05D0BB6B102B02D0BB6B202BD4
:105308003BD17B681B685A687B681B6842F48052F3
:105318005A6032E07B681B681A687B681B6842F435
:1053280080621A607B681B685B6803F40063B3F5EE
:10533800006F17D1BB6B13F5803F0BD0BB6B012BF4
:1053480008D0BB6B082B05D0BB6B102B02D0BB6BF6
:10535800202B07D17B681B685A687B681B6842F45E
:1053680080525A600023FB607B681B685B69FB60A6
:105378007B681B689B69FB60FB687B6800221A6579
:105388000BE00023BB607B681B685B69BB607B68C4
:105398001B689B69BB60BB68FFE700BF4437BD461D
:1053A80080BC704780B584B000AF78607B6893F8A4
:1053B8003D30FB737B685B8D9BB2002B2BD07B68E9
:1053C8005B6A1A787B681B681A617B685B6A5A1C7F
:1053D8007B685A627B685B8D9BB2013B9AB27B68A3
:1053E8005A857B685B8D9BB2002B14D1FB7B292BE4
:1053F80011D17B681B685A687B681B6822F480623D
:105408005A607B6821221A637B68282283F83D2032
:105418007868FFF7CDF900BF1037BD4680BD80B46E
:1054280083B000AF78607B685B8D9BB2002B11D096
:105438007B685B6A1A787B681B681A617B685B6AA1
:105448005A1C7B685A627B685B8D9BB2013B9AB29F
:105458007B685A8500BF0C37BD4680BC704780B555
:1054680084B000AF78607B6893F83D30FB737B684D
:105478005B8D9BB2002B2CD07B681B681A697B68FC
:105488005B6AD2B21A707B685B6A5A1C7B685A6284
:105498007B685B8D9BB2013B9AB27B685A857B68BF
:1054A8005B8D9BB2002B14D1FB7B2A2B11D17B681F
:1054B8001B685A687B681B6822F480625A607B68A4
:1054C80022221A637B68282283F83D207868FFF738
:1054D80078F900BF1037BD4680BD80B483B000AFF7
:1054E80078607B685B8D9BB2002B12D07B681B6851
:1054F8001A697B685B6AD2B21A707B685B6A5A1C4D
:105508007B685A627B685B8D9BB2013B9AB27B6871
:105518005A8500BF0C37BD4680BC704780B584B043
:1055280000AF786039600023FB737B6893F83D30E7
:10553800DBB203F02803282B25D17B681B685A6847
:105548007B681B6822F480625A603B6803F004039E
:10555800002B01D10123FB733B6803F08003002B70
:1055680003D17B68DB68BB8102E07B689B69BB81F8
:105578007B68002283F83C20BA89FB7B194678684F
:10558800FFF728F90EE00023BB607B681B685B69A6
:10559800BB607B681B689B69BB60BB687B6800223B
:1055A80083F83C2000BF1037BD4680BD80B584B06D
:1055B80000AF78607B6893F83D30FB737B681B68AD
:1055C8005A687B681B6822F4E0625A600023BB605B
:1055D8007B681B685B69BB607B681B681A687B68B3
:1055E8001B6842F001021A60BB687B681B681A6876
:1055F8007B681B6822F480621A607B681B685B68A2
:1056080003F40063B3F5006F72D1FB7B222B02D049
:10561800FB7B2A2B35D17B689B6B1B685B689AB236
:105628007B685A857B685B8D9BB2002B05D07B68B5
:105638001B6C43F004027B681A647B681B685A6819
:105648007B681B6822F400625A607B689B6B184673
:10565800FDF7CAFF0346012B49D07B689B6B694A5B
:105668005A637B689B6B1846FDF7B6FE0346002B12
:105678003DD07B689B6B5B6B7A68926B1046984752
:1056880035E07B685B6B1B685B689AB27B685A8500
:105698007B685B8D9BB2002B05D07B681B6C43F04D
:1056A80004027B681A647B681B685A687B681B68FD
:1056B80022F400625A607B685B6B1846FDF794FF22
:1056C8000346012B14D07B685B6B4E4A5A637B6898
:1056D8005B6B1846FDF780FE0346002B08D07B68FD
:1056E8005B6B5B6B7A68526B1046984700E000BFB3
:1056F8007B685B8D9BB2002B3ED07B681B685B6927
:1057080003F00403042B12D17B681B681A697B68B9
:105718005B6AD2B21A707B685B6A5A1C7B685A62F1
:105728007B685B8D9BB2013B9AB27B685A857B682C
:105738001B685B6903F04003402B12D17B681B6830
:105748001A697B685B6AD2B21A707B685B6A5A1CFA
:105758007B685A627B685B8D9BB2013B9AB27B681F
:105768005A857B685B8D9BB2002B05D07B681B6CD0
:1057780043F004027B681A647B681B6C002B03D01F
:10578800786800F0B7F839E0FB7B2A2B09D17B68F1
:1057980000221A637B68282283F83D207868FFF787
:1057A80010F87B6893F83D30DBB2282B11D17B6869
:1057B800154ADA627B6800221A637B68202283F824
:1057C8003D207B68002283F83E207868FFF70FF8B9
:1057D80014E07B681B6B222B02D0FB7B222B0DD1A4
:1057E8007B6800221A637B68202283F83D207B684F
:1057F800002283F83E207868FEF7E3FF00BF1037E9
:10580800BD4680BD2D5F00080000FFFF80B584B055
:1058180000AF78607B6893F83D30FB737B68DB6A88
:10582800BB60BB68082B02D0BB68202B29D1FB7B4F
:10583800282B26D17B682E4ADA627B681B685A6857
:105848007B681B6822F4E0625A607B681B686FF40F
:1058580080625A617B681B681A687B681B6822F43F
:1058680080621A607B6800221A637B68202283F8B2
:105878003D207B68002283F83E207868FEF7B7FF5A
:1058880031E0FB7B212B29D17B68194ADA627B68DE
:1058980021221A637B68202283F83D207B6800223E
:1058A80083F83E207B681B685A687B681B6822F473
:1058B800E0625A607B681B686FF480625A617B689B
:1058C8001B681A687B681B6822F480621A60786813
:1058D800FEF7EAF87868FEF76BFF04E07B681B6860
:1058E8006FF480625A6100BF1037BD4680BD00BFAB
:1058F8000000FFFF80B584B000AF78607B6893F844
:105908003D30FB737B6893F83E30BB73BB7B102B39
:1059180002D0BB7B402B0AD1FB7B222B07D17B68B3
:105928001B681A687B681B6822F400621A60FB7B9C
:1059380003F02803282B07D17B6800221A637B68B1
:10594800282283F83D2015E07B681B685B6803F418
:105958000063B3F5006F0AD0FB7B602B07D07B6830
:10596800202283F83D207B68002283F83E207B6854
:1059780000221A637B681B685B6803F40063B3F555
:10598800006F62D17B681B685A687B681B6822F4C9
:1059980000625A607B685B6B93F82130DBB2012BA5
:1059A80020D07B685B6B6A4A5A637B685B6B1846DE
:1059B800FDF712FD0346002B00F089807B681B6809
:1059C8001A687B681B6822F001021A607B68202233
:1059D80083F83D207B685B6B5B6B7A68526B104683
:1059E800984774E07B689B6B594A5A637B689B6B4A
:1059F8001846FDF7F1FC0346002B68D07B681B684E
:105A08005B6903F04003402B0BD17B681B681A6964
:105A18007B685B6AD2B21A707B685B6A5A1C7B68C7
:105A28005A627B681B681A687B681B6822F001024F
:105A38001A607B68202283F83D207B689B6B5B6B38
:105A48007A68926B1046984741E07B6893F83D303E
:105A5800DBB2602B25D17B68202283F83D207B6850
:105A680000221A647B681B685B6903F04003402BC3
:105A78000BD17B681B681A697B685B6AD2B21A70A3
:105A88007B685B6A5A1C7B685A627B681B681A6869
:105A98007B681B6822F001021A607868FEF7C2FE74
:105AA80015E07B681B685B6903F04003402B0BD152
:105AB8007B681B681A697B685B6AD2B21A707B685C
:105AC8005B6A5A1C7B685A627868FBF719FF7B6827
