:020000040800F2
:1000000000C0002045330008270700082907000822
:100010002B0700082D0700082F070008000000002C
:100020000000000000000000000000003107000890
:1000300033070008000000003507000837070008F4
:100040008D3300088D3300088D3300088D33000890
:100050008D3300088D3300088D3300088D33000880
:100060008D3300088D3300088D3300088D33000870
:100070008D3300088D3300088D3300088D33000860
:100080008D3300088D3300088D3300088D33000850
:100090008D3300088D3300088D3300088D33000840
:1000A0008D3300088D3300088D3300088D33000830
:1000B0008D3300088D3300088D3300088D33000820
:1000C00041070008510700086D0700088D3300083C
:1000D0008D3300088D3300088D3300088D33000800
:1000E0008D3300088D3300088D3300088D330008F0
:1000F0008D3300088D3300088D3300088D330008E0
:100100008D3300088D3300088D3300088D330008CF
:100110008D3300088D3300088D3300088D330008BF
:100120008D3300088D3300088D3300088D330008AF
:1001300000000000000000000000000000000000BF
:1001400000000000000000000000000000000000AF
:10015000000000000000000000000000000000009F
:10016000000000000000000000000000000000008F
:10017000000000000000000000000000000000007F
:10018000000000000000000000000000000000006F
:10019000000000000000000000000000000000005F
:1001A000000000000000000000000000000000004F
:1001B000000000000000000000000000000000003F
:1001C000000000000000000000000000000000002F
:1001D000000000000000000000000000000000001F
:0401E0005FF8E0F1F3
:1001E40070B50D4E0D4D761BB61006D0002455F893
:1001F400043B01349847A642F9D1094E094D03F056
:10020400C5F8761BB61006D0002455F8043B01341B
:100214009847A642F9D170BDD4350008D4350008FA
:10022400D8350008D4350008830730B548D0541EAB
:10023400002A3FD00346CAB201E0013C3AD303F896
:10024400012B9D07F9D1032C2DD9CDB245EA052503
:100254000F2C45EA054536D9A4F1100222F00F0C03
:1002640003F1200EE6444FEA121C03F1100242E9A6
:10027400045542E9025510327245F8D10CF10102DD
:1002840014F00C0F03EB021204F00F0C13D0ACF1BA
:10029400040323F003030433134442F8045B93423E
:1002A400FBD10CF003042CB1CAB21C4403F8012B9B
:1002B4009C42FBD130BD64461346002CF4D1F9E7CF
:1002C40003461446BFE71A46A446E0E710B5054CBA
:1002D400237833B9044B13B10448AFF300800123EE
:1002E400237010BD0C0000200000000090330008B3
:1002F40008B5034B1BB103490348AFF3008008BDA5
:1003040000000000100000209033000872B6FEE7E1
:1003140000B597B0282200210CA8FFF785FF002321
:100324000793089309930A930B93019302930393FE
:1003340004930593069301220C924FF480330D939A
:1003440010920222139214934FF4E01315930CA805
:1003540000F008FCC8B90F23079302210891002379
:1003640009934FF480620A920B9307A800F02CFEC5
:1003740068B9022301934FF40043039301A800F0EA
:10038400EFFE30B917B05DF804FBFFF7BFFFFFF7CE
:10039400BDFFFFF7BBFF000008B500F095FBFFF7BA
:1003A400B7FF00F01BF800F043F800F06FF800F01E
:1003B400FDF800F019F902F0F9FE02F05BFF0A20E3
:1003C40000F0A6FB022002F05FFF034B18604FF41D
:1003D4007A7000F09DFBF5E72800002084B0134BF1
:1003E4009A6942F010029A619A6902F0100200922E
:1003F400009A9A6942F020029A619A6902F02002F6
:100404000192019A9A6942F004029A619A6902F08F
:1004140004020292029A9A6942F008029A619B6964
:1004240003F008030393039B04B0704700100240D9
:1004340000B585B000230193029303931148124A37
:1004440002608360037303754FF46022C2614360EA
:100454000123036100F07EFA68B90A2301930123A2
:1004640002930023039301A9064800F0A7F928B9D1
:1004740005B05DF804FBFFF749FFEEE7FFF746FF21
:10048400F6E700BF5C0000200024014000B585B001
:1004940000230193029303931048114A026083607E
:1004A400037303754FF46022C26143600123036147
:1004B40000F050FA60B900230193012202920393E1
:1004C40001A9064800F07AF928B905B05DF804FBE3
:1004D400FFF71CFFEFE7FFF719FFF6E72C000020FA
:1004E4000028014010B58AB00023069307930893AF
:1004F40009930368274A934204D0274A93422CD095
:100504000AB010BD254B9A6942F400729A619A6947
:1005140002F400720192019A9A6942F010029A61FF
:100524009A6902F010020292029A9A6942F0080251
:100534009A619B6903F008030393039B3F2306938B
:100544000324079406A9164800F096FE069407941F
:1005540006A9144800F090FED2E7104B9A6942F4C1
:1005640080629A619A6902F480620492049A9A6998
:1005740042F004029A619B6903F004030593059B0E
:10058400FF2306930323079306A9074800F074FE8C
:10059400B6E700BF002401400028014000100240DB
:1005A40000100140000C01400008014008B50B4850
:1005B4000B4B03600B4B436000238360C3604FF419
:1005C4008042026143618361C361036201F030FCD4
:1005D40000B908BDFFF79AFEFBE700BFE00000206A
:1005E40000540040A086010008B50E480E4B03607D
:1005F4000E4B436000238360C3604FF4804202616A
:1006040043618361C361036201F012FC30B9054B9D
:100614001A68536843F40073536008BDFFF776FE0D
:10062400F5E700BF8C00002000580040A0860100C0
:1006340010B588B0002304930593069307930368C9
:10064400324A934204D0324A93422FD008B010BDAC
:10065400304CA36943F00803A361A36903F00803C2
:100664000093009B4FF440730493122305930323D8
:10067400079304A9284800F0FFFD284A536843F073
:10068400E06343F002035360E36943F40013E3615E
:10069400E36903F400130193019B00221146202017
:1006A40001F006F8202001F013F8CFE7194CA369F4
:1006B40043F00803A361A36903F008030293029BB8
:1006C4004FF440630493122305930323079304A96F
:1006D400114800F0D1FDE36943F48003E361E36969
:1006E40003F480030393039B00221146212000F0AE
:1006F400DFFF212000F0ECFF00221146222000F051
:10070400D7FF222000F0E4FFA0E700BF0054004020
:100714000058004000100240000C0140000001405D
:100724007047FEE7FEE7FEE7FEE7FEE77047704727
:10073400704708B500F0DAF908BD000008B50248B2
:1007440002F048FB08BD00BFE000002008B5044AE1
:10075400136801331360034802F06CFA08BD00BF4C
:10076400280000208C00002008B5024802F032FB6B
:1007740008BD00BF8C00002082B00E4B9A6942F085
:1007840001029A619A6902F001020092009ADA6900
:1007940042F08052DA61DB6903F080530193019BDC
:1007A400054A536823F0E06343F00073536002B0DA
:1007B400704700BF001002400000014030B482B016
:1007C4000022019290F82420012A00F08F80034631
:1007D400012280F824204A68062A2DD80468606B18
:1007E40002EB8202053A4FF01F0C0CFA02FC20EADD
:1007F4000C000D6805FA02F2024362630A68092AD2
:1008040038D91C68E06802EB42021E3A4FF0070C2C
:100814000CFA02FC20EA0C008D6805FA02F202438D
:10082400E2600A68103A012A34D90020002283F8D1
:10083400242002B030BC70470C2A0DD80568286B00
:1008440002EB8202233A1F24944020EA04000C683D
:10085400944020432863D1E70568E86A02EB8202EA
:10086400413A1F24944020EA04000C689440204339
:10087400E862C3E71C68206902EB42024FF0070CF0
:100884000CFA02FC20EA0C008D6805FA02F202431D
:100894002261C6E71A681648824205D09A6A42F075
:1008A40020029A620120C1E7906810F4000F1BD166
:1008B400906840F4000090600A68102A01D000207B
:1008C400B4E70C4A12680C49A1FB0212920C02EB29
:1008D40082025200019202E0019A013A0192019AC5
:1008E400002AF9D10020A1E700209FE70220A0E719
:1008F400002401400800002083DE1B4338B5036850
:100904009A6812F0010F01D1002038BD04469A689C
:1009140022F001029A6000F0F5F8054623689B680E
:1009240013F0010F13D000F0EDF8431B022BF5D99F
:1009340023689B6813F0010FF0D0A36A43F01003FF
:10094400A362E36A43F00103E3620120DDE70020D0
:10095400DBE70000002800F0888070B50446836A55
:10096400002B52D02046FFF7C9FFA36A13F01003EF
:1009740075D1002873D1A26A22F4885222F00202AF
:1009840042F00202A2626268266839498E4242D06D
:10099400E1690A43217B42EA4102A568B5F5807FFB
:1009A40002D0012D3ED01D4694F814C0BCF1010FB5
:1009B4003BD0716821F46941294371602568AE68B0
:1009C4002C4931401143A960A168B1F5807F01D061
:1009D400012902D12369013B1B052568E96A21F439
:1009E40070010B43EB6223689968234B0B409A42D6
:1009F4002CD0A36A23F0120343F01003A362E36A2A
:100A040043F00103E36201202EE0C36280F8243046
:100A1400FFF768FDA6E7E169B1F5402FB9D14FF4BE
:100A24000021B6E74FF48075BEE731B9A1690139F9
:100A340045EA413141F40065BBE7A16A41F0200178
:100A4400A162E16A41F00101E162B2E70023E362DD
:100A5400A36A23F0030343F00103A36204E0A36A3F
:100A640043F01003A362012070BD0120704700BF52
:100A7400003C0140FDF7E1FFFE0E1FFF10B50446E8
:100A84000E4B1A784FF47A73B3FBF2F30C4A1068E6
:100A9400B0FBF3F000F02AFE68B90F2C01D9012055
:100AA4000AE0002221464FF0FF3000F001FE054B22
:100AB4001C60002000E0012010BD00BF00000020E9
:100AC400080000200400002008B5074A136843F01A
:100AD40010031360032000F0D9FD0F20FFF7CEFFB1
:100AE400FFF74AFE002008BD00200240034A1168B7
:100AF400034B1B780B441360704700BF3401002084
:100B040000000020014B1868704700BF340100202A
:100B140038B50446FFF7F6FF0546B4F1FF3F02D0AF
:100B2400044B1B781C44FFF7EDFF401BA042FAD393
:100B340038BD00BF0000002082B0084B1B68084A83
:100B4400A2FB03235B0A00FB03F3019300BF019B99
:100B54005A1E0192002BF9D102B070470800002000
:100B6400D34D6210002800F0F18170B582B00446C4
:100B7400036813F0010F2CD0994B5B6803F00C034E
:100B8400042B1DD0964B5B6803F00C03082B12D08A
:100B94006368B3F5803F41D0002B55D103F1804306
:100BA40003F504331A6822F480321A601A6822F4B6
:100BB40080221A6037E08A4B5B6813F4803FE7D0E9
:100BC400874B1B6813F4003F03D06368002B00F0CD
:100BD400BF81236813F0020F75D0814B5B6813F05B
:100BE4000C0F5FD07E4B5B6803F00C03082B54D0D2
:100BF4002369002B00F08A807A4B01221A60FFF7E8
:100C040081FF0546764B1B6813F0020F75D1FFF781
:100C140079FF401B0228F5D903209EE1704A13682E
:100C240043F480331360636843B3FFF76BFF0546F7
:100C34006B4B1B6813F4003FCBD1FFF763FF401BE2
:100C44006428F5D9032088E1B3F5A02F09D0644BBB
:100C54001A6822F480321A601A6822F480221A6018
:100C6400E1E703F18043A3F53C331A6842F48022A0
:100C74001A601A6842F480321A60D4E7FFF742FF20
:100C84000546574B1B6813F4003FA2D0FFF73AFF09
:100C9400401B6428F5D903205FE1514B5B6813F4D2
:100CA400803FA5D14E4B1B6813F0020F03D023697C
:100CB400012B40F04F814A4A136823F0F80361691D
:100CC40043EAC1031360236813F0080F33D0A36908
:100CD400002B5CD0434B0122C3F88024FFF712FFA2
:100CE40005463F4B5B6A13F0020F21D1FFF70AFF61
:100CF400401B0228F5D903202FE1394A136823F059
:100D0400F803616943EAC1031360DCE7354B002251
:100D14001A60FFF7F7FE0546314B1B6813F0020F0C
:100D2400D1D0FFF7EFFE401B0228F5D9032014E1D0
:100D34000120FFF701FF236813F0040F00F09680F1
:100D4400274BDB6913F0805F34D1254BDA6942F01D
:100D54008052DA61DB6903F080530193019B012522
:100D6400214B1B6813F4807F26D0E368012B3DD010
:100D7400002B53D103F1804303F504331A6A22F0A4
:100D840001021A621A6A22F004021A6233E0154B55
:100D94000022C3F88024FFF7B5FE0546104B5B6ABA
:100DA40013F0020FC7D0FFF7ADFE401B0228F5D9A0
:100DB4000320D2E00025D3E70B4A136843F4807381
:100DC4001360FFF79FFE0646074B1B6813F4807FF2
:100DD400CBD1FFF797FE801B6428F5D90320BCE034
:100DE4000010024000004242007000405F4A136A53
:100DF40043F001031362E36833B3FFF783FE06464F
:100E04005A4B1B6A13F0020F2FD1FFF77BFE801B96
:100E140041F288339842F3D903209EE0052B09D090
:100E2400524B1A6A22F001021A621A6A22F0040270
:100E34001A62E0E74D4B1A6A42F004021A621A6A17
:100E440042F001021A62D6E7FFF75CFE0646474B02
:100E54001B6A13F0020F08D0FFF754FE801B41F207
:100E640088339842F3D9032077E0E5B9E369002B8E
:100E740072D03E4A526802F00C02082A56D0022B65
:100E840017D03B4B00221A66FFF73CFE0446374B53
:100E94001B6813F0007F47D0FFF734FE001B0228C5
:100EA400F5D9032059E0314AD36923F08053D36143
:100EB400DCE72F4B00221A66FFF724FE05462B4B76
:100EC4001B6813F0007F06D0FFF71CFE401B0228AE
:100ED400F5D9032041E0236AB3F5803F1AD02349B2
:100EE4004B6823F47413226A606A024313434B6011
:100EF4001F4B01221A66FFF705FE04461B4B1B68B5
:100F040013F0007F0ED1FFF7FDFD001B0228F5D979
:100F1400032022E0154A536823F40033A1680B43ED
:100F24005360DCE7002018E0002016E0012B16D007
:100F34000E4B5B6803F48031226A914211D103F4B1
:100F44007013626A93420ED1002006E001207047BC
:100F5400012002E0012000E0002002B070BD012069
:100F6400FBE70120F9E70120F7E700BF001002408A
:100F7400000042420F4B5B6803F00C02082A01D0C8
:100F84000D487047C3F383420C49885C13F4803FD7
:100F94000BD0084B5B68C3F34043094AD35C064A51
:100FA40002FB00F0B0FBF3F07047064B03FB00F0CC
:100FB400704700BF0010024000127A00AC330008F2
:100FC400A833000800093D00002800F0A08070B597
:100FD4000D460446524B1B6803F007038B420BD2A9
:100FE4004F4A136823F007030B431360136803F09D
:100FF40007038B4240F08D80236813F0020F17D053
:1010040013F0040F04D0474A536843F4E063536079
:10101400236813F0080F04D0424A536843F4605322
:101024005360404A536823F0F003A1680B435360B4
:10103400236813F0010F31D06368012B20D0022BF9
:1010440025D0384A126812F0020F64D035494A6834
:1010540022F0030213434B60FFF754FD0646314B65
:101064005B6803F00C036268B3EB820F16D0FFF7E2
:1010740049FD801B41F288339842F0D9032045E0B2
:10108400284A126812F4003FE0D101203EE0254ACC
:10109400126812F0007FD9D1012037E0204B1B6881
:1010A40003F00703AB420AD91D4A136823F0070370
:1010B4002B431360136803F00703AB422DD123685D
:1010C40013F0040F06D0174A536823F4E063E16871
:1010D4000B435360236813F0080F07D0114A536879
:1010E40023F46053216943EAC1035360FFF742FFCD
:1010F4000C4B5B68C3F303130B4AD35CD8400B4B14
:1011040018600B4B1868FFF7B9FC002070BD012074
:1011140070470120FAE70120F8E70120F6E700BF55
:101124000020024000100240C433000808000020E0
:1011340004000020014B1868704700BF080000201D
:1011440008B5FFF7F7FF044B5B68C3F30223034AB8
:10115400D35CD84008BD00BF00100240BC33000877
:1011640070B582B00446036813F0010F36D03F4BCC
:10117400DB6913F0805F49D13C4BDA6942F080525D
:10118400DA61DB6903F080530193019B0125384B3D
:101194001B6813F4807F3BD0344B1B6A13F44073F9
:1011A40013D0626802F440729A420ED02F4A136A36
:1011B40023F440702F490126C1F840640026C1F889
:1011C4004064106213F0010F36D1284A136A23F4E5
:1011D400407361680B431362002D3ED1236813F002
:1011E400020F06D0214A536823F44043A1680B43FD
:1011F4005360236813F0100F34D01C4A536823F44F
:10120400800361690B43536000202CE00025BEE796
:10121400174A136843F480731360FFF773FC0646A0
:10122400134B1B6813F4807FB6D1FFF76BFC801B54
:101234006428F5D9032016E0FFF764FC06460B4B3F
:101244001B6A13F0020FC0D1FFF75CFC801B41F254
:1012540088339842F3D9032005E0D36923F08053FF
:10126400D361BBE7002002B070BD00BF0010024094
:10127400007000400000424270B582B00024A446D1
:10128400ACE0854DAB4210D007D9844DAB420CD0B5
:1012940005F58035AB4208D013E0A5F58015AB42C7
:1012A40003D005F57025AB4207D18B68002B5FD0C6
:1012B400012B58D04261082403E0A5F58015AB4208
:1012C400F3D0BEF1FF0F55D806464FEA8C023368BF
:1012D4000F25954023EA050304FA02F21343336011
:1012E4004B6813F0805F77D06D4B9A6942F001022E
:1012F4009A619B6903F001030193019B4FEA9C02ED
:10130400951C684B53F825600CF00305AD000F23C2
:10131400AB4026EA0306644B984232D003F580635F
:10132400984200F0978003F58063984200F094801F
:1013340003F58063984200F0918003F5806398423E
:1013440000F08E8003F58063984218D0062319E0DC
:10135400CC68B6E7CC680434B3E7CC680834B0E7AB
:10136400CC680C34ADE702610824AAE70024A8E79E
:101374000424A6E7061DACF108029200A7E70523A2
:1013840000E00023AB4033430232464D45F822309F
:101394004B6813F4801F65D0444A936843EA0E03F4
:1013A40093604B6813F4001F62D0404AD36843EA49
:1013B4000E03D3604B6813F4003F5FD03B4A53687D
:1013C40043EA0E0353604B6813F4803F5CD0374A02
:1013D400136843EA0E0313600CF1010C0B6833FA33
:1013E4000CF257D0012202FA0CF203EA020E32EA9E
:1013F4000303F1D14B68122B3FF643AF122B3FF698
:1014040060AF01A555F823F0AF120008551300088A
:101414005F13000871130008C7120008C712000800
:10142400C7120008C7120008C7120008C712000834
:10143400C7120008C7120008C7120008C712000824
:10144400C7120008C7120008C71200085913000881
:1014540065130008012395E7022393E7032391E72B
:1014640004238FE7114A936823EA0E03936098E7F5
:101474000E4AD36823EA0E03D3609BE70B4A5368F2
:1014840023EA0E0353609EE7084A136823EA0E0317
:101494001360A1E702B070BD0000221000003110FB
:1014A4000010024000000140000801400004014017
:1014B40008B590F82130DBB2022B03D004238363F8
:1014C400012008BD0268136823F00E03136002684C
:1014D400136823F00103136003684C4A93424ED906
:1014E400783A934224D01432934230D01432934247
:1014F4002FD0143293422FD0143293422FD014326F
:1015040093422FD0143293422FD002F56272934249
:101514002ED0143293422DD0143293422CD0143254
:10152400934202D04FF4803203E04FF4805200E043
:101534000122374B5A60012380F82130002380F8C0
:101544002030436B002B5ED098470020B9E710226F
:10155400EFE74FF48072ECE74FF48052E9E74FF481
:101564008032E6E74FF48012E3E74FF08072E0E761
:101574000122DEE71022DCE74FF48072D9E7254A26
:10158400934224D01432934225D01432934224D06F
:101594001432934224D01432934224D0143293420E
:1015A40024D01432934224D002F56272934223D0A1
:1015B4001432934222D01432934221D014329342F3
:1015C40002D04FF4803203E04FF4805200E0012255
:1015D400114B5A60AFE71022FAE74FF48072F7E735
:1015E4004FF48052F4E74FF48032F1E74FF4801265
:1015F400EEE74FF08072EBE70122E9E71022E7E71C
:101604004FF48072E4E700205BE700BF80000240F3
:1016140000040240080002400000024090F821004B
:1016240070470000002808DB0901C9B200F16040DE
:1016340000F5614080F80013704700F00F000901C5
:10164400C9B2014B1954704714ED00E000B500F025
:101654000700C0F1070CBCF1040F28BF4FF0040CC5
:10166400031D062B0FD9C31E4FF0FF3E0EFA0CF0DC
:1016740021EA000199400EFA03FE22EA0E0241EA31
:1016840002005DF804FB0023EEE70000074AD3687C
:1016940023F4E0631B041B0C000200F4E06003432A
:1016A40043F0BF6343F40033D360704700ED00E0C0
:1016B40010B50446054BD868C0F30220FFF7C6FFF7
:1016C40001462046FFF7AEFF10BD00BF00ED00E06D
:1016D400002807DB00F01F02400901239340024A5F
:1016E40042F82030704700BF00E100E00138B0F15B
:1016F400807F0BD24FF0E0235861054AF02182F835
:1017040023100020986107221A6170470120704756
:1017140000ED00E003685A6912F0800F01D0002246
:101724001A61704790F83E30DBB2402B10D0036949
:10173400B3F5804F1BD0036D002B39D1436CC3F339
:10174400C813026803F0060343F0F0031361704703
:10175400036D2BB9436C026803F0FE0313617047F9
:10176400436C026843F00103DBB21361704790F8E5
:101774003D30DBB2212B0FD0436C026843F00103F0
:10178400DBB21361436B6BB19B6A5BB10268536854
:1017940043F4006353607047436C026803F0FE0334
:1017A4001361EFE7836B33B19B6A002BEED102E048
:1017B400036D012B00D07047436CC3F3C813026858
:1017C40003F0060343F0F1031361F4E7436C02688A
:1017D400DBB21361436B3BB19B6A2BB10268536864
:1017E40043F4006353607047836B002BFBD09B6A08
:1017F400002BF3D1F7E7000010B48DB090F83E3021
:10180400DAB2C16A046B90F83D30DBB2222B0AD005
:1018140000230B9303685A690B929B690B930B9BF0
:101824000DB010BC7047036D0BB9402A17D0036D7F
:101834001BB90369B3F5404F19D0438D9BB2002BFC
:1018440025D1039303685A6903929A690392039A10
:101854001A6842F400721A6000230365E0E70193FA
:1018640003685A6901929B690193019BD8E700239D
:10187400029303685A6902929A690292029A1A6858
:1018840042F480721A60036D01330365C8E7438D27
:101894009BB2012B1CD0438D9BB2022B72D00268E9
:1018A400136843F48063136003685A6812F4006F8A
:1018B40000F0B480202900F2BA80082980F0A780C3
:1018C400012940F0AB805A6842F480525A60A5E086
:1018D40011F5803F11D0082934D0202932D0122CA0
:1018E4002ED0042940D002293ED010293CD00268D1
:1018F400136823F4806313603BE00268136823F4E5
:101904008063136003685A6812F4006F0CD01A687D
:1019140022F480621A600023049303685A690492D3
:101924009B690493049B97E7002205925A690592E8
:101934009A690592059A1A6842F400721A608BE754
:101944000129D0D00268136823F480631360002354
:10195400079303685A6907929A690792079A1A6863
:1019640042F400721A6077E70268136843F48063F4
:1019740013600023069303685A6906929B690693D1
:10198400069B69E7102904D82B4BCB4013F0010FB9
:1019940022D10268136843F40063136000230893A0
:1019A40003685A6908929A690892089A1A6822F494
:1019B40080621A6003685A6812F4006F3FF44CAFF7
:1019C40020291FD8082915D201297FF445AF5A6868
:1019D40042F480525A603FE70268136843F480631C
:1019E40013600023099303685A6909929B69099358
:1019F400099BDFE70839114ACA4012F0010F3FF48E
:101A04002BAFE4E711F5803F7FF426AFDFE7083919
:101A14000A4ACA4012F0010F7FF455AF00230A931B
:101A240003685A690A929B690A930A9B14E711F5A1
:101A3400803FF3D147E700BF14000100010100011A
:101A4400438D9BB25BB1426A036812781A61436AA0
:101A540001334362438D9BB2013B9BB24385704784
:101A6400438D9BB25BB103681A69436A1A70436A77
:101A740001334362438D9BB2013B9BB24385704764
:101A840082B0002301930E4B1B68DB080D4AA2FBB6
:101A940003231B0A03EB83030193019B013B019383
:101AA400019B33B103681B6813F4007FF5D1002058
:101AB40004E0036C43F020030364012002B0704788
:101AC4000800002089B5F81403685A6912F4806F7D
:101AD40001D1002070476FF480625A6100230363D0
:101AE400202280F83D2080F83E30026C42F004024F
:101AF400026480F83C3001207047C36AB3F52A0FB2
:101B040004D0C36AB3F12A4F03D070470123C362E0
:101B140070470823C362F8E72DE9F04106460C46F6
:101B2400174698463BE0FEF7EDFF069BC01A40457A
:101B340002D8B8F1000F32D1012D18D033689B6957
:101B440024EA03039BB2B3FA83F35B099F4226D1D1
:101B540000233363202286F83D2086F83E30326C21
:101B640042F02002326486F83C30012027E03368DA
:101B74005B6924EA03039BB2B3FA83F35B09E5E7E9
:101B840033685B6924EA030C1FFA8CFCBCFA8CFCF6
:101B94004FEA5C1C674511D1B8F1FF3FC3D1C4F3D0
:101BA4000745012DECD033689B6924EA030C1FFA26
:101BB4008CFCBCFA8CFC4FEA5C1CEBE70020BDE813
:101BC400F0812DE9F84305460E469046994653E0C8
:101BD4001A6842F400721A602B686FF480625A61CA
:101BE40000232B63202285F83D2085F83E302A6CA3
:101BF40042F004022A6485F83C3001204AE0FEF7F2
:101C040081FFA0EB0900404502D8B8F1000F33D1A1
:101C1400012F17D02B689B6926EA03039BB2003B74
:101C240018BF012343B300232B63202285F83D20F2
:101C340085F83E302A6C42F020022A6485F83C3054
:101C4400012027E02B685B6926EA03039BB2003B73
:101C540018BF0123E6E72B689C6926EA0404A4B2B2
:101C6400003C18BF0124A4B12B685A6912F4806F98
:101C7400AED1B8F1FF3FC2D1C6F30747012FEAD175
:101C84002B685C6926EA0404A4B2003C18BF012452
:101C9400E9E70020BDE8F88370B504460D46164612
:101CA40023685B6913F0800F21D12046FFF70CFFF6
:101CB400F8B9B5F1FF3FF3D0FEF724FF801BA8422B
:101CC40001D8002DECD123685B6913F0800FE7D1B4
:101CD40000232363202284F83D2084F83E30226CC4
:101CE40042F02002226484F83C30012000E000200D
:101CF40070BD0120FCE700002DE9F04385B00446E7
:101D04000D4691461F46DDF830800D9E0368196824
:101D140041F4807119600096434600224FF001118E
:101D2400FFF7FAFE60B9236805F0FE051D6133462E
:101D3400424626492046FFF744FF68B1012008E0E7
:101D440023681B6813F4807F02D04FF4007323646C
:101D5400032005B0BDE8F0830023039323685A6988
:101D640003929B690393039B324641462046FFF747
:101D740093FF30B9012F0FD123685FFA89F61E61F2
:101D8400E7E7236C042B01D00120E2E72268136803
:101D940043F400731360F7E723684FEA19221A61CA
:101DA400324641462046FFF777FF20B923685FFAA1
:101DB40089F61E61CDE7236C042B01D00120C8E70E
:101DC4002268136843F400731360F7E7020001000C
:101DD40070B504460D46164623685B6913F0040F7C
:101DE40021D12046FFF770FEF8B9B5F1FF3FF3D0DB
:101DF400FEF788FE801BA84201D8002DECD1236891
:101E04005B6913F0040FE7D100232363202284F8D5
:101E14003D2084F83E30226C42F02002226484F893
:101E24003C30012000E0002070BD0120FCE70000F0
:101E3400002800F0CC8070B5044690F83D30002BAB
:101E440077D0242384F83D302268136823F00103FB
:101E540013602268136843F4004313602268136814
:101E640023F400431360FFF76BF962685A4B9A42FC
:101E740064D85A4B98428CBF00230123002B40F0B6
:101E8400A8805749A1FB00318B0C25686A6822F0B1
:101E94003F0242EA91426A6021680A6A22F03F02E4
:101EA40066684D4DAE424FD8013313430B6221682F
:101EB400CA6922F44F4222F0FF026568464B9D42F4
:101EC4004CD8431E6D00B3FBF5F3013340F6FC70B0
:101ED400034278D0C3F30B031A43CA6121680B6829
:101EE40023F0C003E269206A024313430B602168B4
:101EF4008B6823F4034323F0FF032269E068024361
:101F040013438B602168CB6823F0FF036269A069E7
:101F140002431343CB602268136843F00103136048
:101F240000202064202384F83D30206384F83E00A0
:101F340070BD80F83C30FEF77BFB82E7294B98426A
:101F44008CBF0023012399E74FF4967505FB03F337
:101F5400254DA5FB03539B090133A6E7A668BEB92B
:101F6400431E05EB450CB3FBFCF30133C3F30B0336
:101F7400B3FA83F35B0943BBC6B9431E05EB4505BE
:101F8400B3FBF5F30133C3F30B0343F40043A3E7BB
:101F9400431E05EB850C0CEB8C0CB3FBFCF30133FB
:101FA400C3F30B03B3FA83F35B09E4E7431E05EBC6
:101FB400850505EB8505B3FBF5F30133C3F30B038B
:101FC40043F4404388E7042386E7012384E70120A0
:101FD40070470120ACE700BFA08601007F841E008B
:101FE40083DE1B43FF083D00D34D621030B482B042
:101FF4000024019490F83D40E4B2202C58D12F4C99
:102004002468E4082E4DA5FB0454240A04EB84043C
:1020140004EB84040194019C013C0194019C002C78
:102024003AD00468A56915F0020FF4D190F83C5039
:10203400012D41D0012580F83C50256815F0010F91
:1020440003D1256845F00105256005682C6824F452
:1020540000642C60222480F83D40102480F83E4027
:102064000024046442624385438D0385154BC36297
:10207400416480F83C400268536843F4E063536071
:102084000268136843F4806313600268136843F4BE
:102094008073136020460CE000230363202280F841
:1020A4003D2080F83E30036C13430364022000E0BB
:1020B400022002B030BC70470220FAE7080000207A
:1020C40089B5F8140000FFFF2DE9F04383B00446FE
:1020D4000F46904699460C9EFEF714FD054694F86B
:1020E4003D00C0B2202803D0022003B0BDE8F08335
:1020F4000095192301224B492046FFF70DFD0028C6
:1021040040F0898094F83C30012B00F08680012354
:1021140084F83C3023681A6812F0010F03D11A685E
:1021240042F001021A602268136823F4006313600A
:10213400212384F83D30402384F83E300023236477
:102144000A9B6362BDF82C306385638D2385364B0F
:10215400E362019500964B46424639462046FFF716
:10216400CBFD00285BD1238D002B35D02A46314688
:102174002046FFF791FD20BB626A236812781A613A
:10218400626A531C6362218D013989B22185638D92
:102194009BB2013B9BB263852368586910F0040F1E
:1021A400E1D00029DFD052781A61636A0133636297
:1021B400238D013B2385638D9BB2013B9BB26385D9
:1021C400D1E7236C042B01D001208EE72268136829
:1021D40043F400731360F7E72A4631462046FFF7BD
:1021E400F7FD50B1236C042B01D001207DE7226858
:1021F400136843F400731360F7E72268136843F429
:1022040000731360202384F83D30002384F83E30AB
:1022140084F83C3069E7022067E7022065E7012083
:1022240063E700BF020010000000FFFF7047704723
:1022340008B590F83D30DAB2438D9BB283B1416A60
:10224400036809781961436A01334362438D9BB281
:10225400013B9BB24385438D9BB20BB9292A00D025
:1022640008BD0268536823F4806353602123036329
:10227400282380F83D30FFF7DAFFF1E7704708B50F
:1022840090F83D30DAB2438D9BB283B1036819698B
:10229400436A1970436A01334362438D9BB2013B25
:1022A4009BB24385438D9BB20BB92A2A00D008BD4B
:1022B4000268536823F48063536022230363282352
:1022C40080F83D30FFF7DAFFF1E7704700B583B0DF
:1022D40090F83D3003F02803282B0CD00023019301
:1022E40002685169019192690192019A80F83C3027
:1022F40003B05DF804FB0268536823F48063536001
:1023040011F0040F0BD0002311F0800F09D1828942
:10231400002180F83C101946FFF7D7FFE8E70123B6
:10232400F2E7028BF4E7704710B5044690F83D30AD
:10233400DBB2C26A082A01D0202A01D1282B06D098
:10234400212B1FD023686FF480625A6110BD1D4B8E
:10235400E3622268536823F4E063536023686FF4F4
:1023640080625A612268136823F480631360002337
:102374002363202284F83D2084F83E302046FFF772
:10238400D2FFE3E70F4BE36221232363202384F886
:102394003D30002384F83E302268536823F4E06320
:1023A400536023686FF480625A612268136823F4CF
:1023B400806313602046FFF7ADF92046FFF737FF2F
:1023C400C4E700BF0000FFFF704708B5C26A90F879
:1023D4003D30DBB2212B00D008BD438D9BB263B1ED
:1023E400426A036812781A61436A01334362438D77
:1023F4009BB2013B9BB24385EEE7082A04D0202A16
:1024040002D012F5803F19D10268536823F4E063C7
:1024140053600268136843F400731360002303637A
:10242400202380F83D3090F83E30DBB2402B15D0AD
:10243400002380F83E30FFF7F9FECDE702685368C9
:1024440023F4E063536011230363002380F83E30D8
:10245400202380F83D30FFF7E9FEBDE7002380F834
:102464003E30FFF7B1FFB7E708B590F83D30026D95
:102474009AB9C36C012B08D0836CC3F30723026899
:102484001361036D0133036508BD836C0268DBB21D
:102494001361036D02330365F6E7DBB2026D012AB3
:1024A40023D0026D022A3ED1222B26D0428D92B235
:1024B4000AB1212B2AD0428D92B2002AE4D1212BD9
:1024C400E2D10268536823F4E0635360026813683E
:1024D40043F40073136000230363202280F83D203B
:1024E40080F83E30FFF770FFCEE7836C0268DBB202
:1024F4001361036D01330365C6E70268136843F48F
:1025040080731360036D01330365BDE7426A03689A
:1025140012781A61436A01334362438D9BB2013BD3
:102524009BB24385B0E7FFF7F5F8ADE710B590F837
:102534003D30DBB290F83E20D2B2C46A018D00294E
:102544003BD1212B02D0402A42D010BD082C04D00C
:10255400202C02D014F5803F19D10268536823F46B
:10256400E06353600268136843F40073136000234C
:102574000363202380F83D3090F83E30DBB2402BDB
:1025840015D0002380F83E30FFF750FEDDE70268E7
:10259400536823F4E063536011230363002380F83A
:1025A4003E30202380F83D30FFF740FECDE7002386
:1025B40080F83E30FFF708FFC7E7212BC3D1438DD6
:1025C4009BB243B90268536823F480635360BCE749
:1025D400222BBAD1F3E790F83E30DBB2402B0CD07B
:1025E400426A036812781A61436A01334362438D75
:1025F4009BB2013B9BB24385A7E7FFF735FFA4E7F6
:10260400704708B5C26A438D9BB2042B14D0438D26
:102614009BB2032B22D0438D9BB2022B39D003688B
:102624001A69436A1A70436A01334362438D9BB249
:10263400013B9BB2438510E00268536823F4806336
:10264400536003681A69436A1A70436A0133436228
:10265400438D9BB2013B9BB2438508BD01684B6827
:1026640023F480634B60042A06D0022A04D0026853
:10267400136823F48063136003681A69436A1A7049
:10268400436A01334362438D9BB2013B9BB2438552
:10269400E3E7531E0F2B42D8DFE803F0083B413B2E
:1026A40041414141414141414141410801680B6877
:1026B40023F480630B6003681969436A1970416AE3
:1026C4004B1C4362438D9BB2013B9BB24385036821
:1026D4001B694B70436A01334362438D9BB2013BD8
:1026E4009BB2438501684B6823F440734B602023FD
:1026F40080F83D3090F83E30DBB2402B15D00023FB
:1027040080F83E30082A17D0202A15D012230363FC
:1027140014E001680B6843F480630B60CBE7016845
:102724000B6843F400730B60C5E7002380F83E3068
:102734000363FFF765FF90E70023036300F0EAFDFE
:102744008BE738B590F83D30DBB2222B00D038BD92
:102754000446C56A438D9BB2032B15D903681A69D5
:10276400436A1A70436A01334362438D9BB2013B4F
:102774009BB24385438D9BB2032BE8D10268536817
:1027840023F480635360E2E7C26A022A01D0012B7A
:1027940005D92268536823F480635360D7E7FFF7B1
:1027A4006FF9002835D12268136823F4806313601D
:1027B4002268536823F4E063536023681A69636AE8
:1027C4001A70636A01336362638D9BB2013B9BB2EF
:1027D4006385202384F83D3094F83E30DBB2402BEF
:1027E40009D0002384F83E30082D0CD0202D0AD0C7
:1027F4001223236309E0002384F83E302363204638
:10280400FFF7FEFEA3E700232363204600F082FDCA
:102814009DE72268536823F4E063536023681A69D0
:10282400636A1A70636A01336362638D9BB2013B0E
:102834009BB26385202384F83D30002384F83E3026
:102844002046FDF76DFF82E77047000000B583B0B6
:1028540000230193406A90F83D20D2B2324B1B68AA
:10286400DB083249A1FB03131B0A03EB8303C3EB0D
:10287400C3030193019B43B1019B013B0193036893
:102884001B6813F4007FF5D103E0036C43F02003CD
:102894000364436B0BB100219962836B0BB100217C
:1028A400996201680B6823F480630B6000234385FD
:1028B400436B0BB100215963836B0BB10021596346
:1028C40001680B6823F001030B6090F83D30DBB224
:1028D400602B0ED002F02802282A14D0202380F87E
:1028E4003D30002380F83E30FDF71AFF03B05DF859
:1028F40004FB202380F83D30002380F83E3003643D
:10290400FFF7A2FFF2E70268136843F001031360C4
:102914000268136843F4806313600023036328236D
:1029240080F83D30E0E700BF0800002089B5F814C6
:1029340010B5044690F83D30DBB290F83E20D2B298
:10294400102A36D0402A34D003F02802282A38D05E
:102954002268526812F4006F07D1602B05D020233F
:1029640084F83D30002384F83E3000232363236839
:102974005A6812F4006F48D05A6822F400625A6010
:10298400626B92F82130DBB2012B20D0444B5363AD
:10299400606BFEF78DFD002849D02268136823F090
:1029A40001031360202384F83D30606B436B984728
:1029B4003DE0222BC8D121680A6822F400620A6033
:1029C400C2E700232363282384F83D30CFE7A36BB9
:1029D400334A5A63A06BFEF76BFD40B323685A6910
:1029E40012F0400F05D01A69636A1A70636A0133E2
:1029F40063622268136823F001031360202384F8C0
:102A04003D30A06B436B984711E094F83D20D2B25F
:102A1400602A1FD05A6912F0400F05D01A69636A00
:102A24001A70636A013363622046FDF779FE236CF2
:102A340013F00F0F04D02268536823F4E06353604B
:102A440094F83D30DBB2226C12F0040F01D0282B35
:102A540018D010BD202284F83D20002222645A6937
:102A640012F0400F05D01A69636A1A70636A013361
:102A740063622268136823F0010313602046FFF7A2
:102A8400E3FED4E7074BE36200232363202284F8A8
:102A94003D2084F83E302046FFF745FCD9E700BFCF
:102AA400512800080000FFFF30B583B0044690F8B9
:102AB4003D50EDB20268536823F4E0635360002391
:102AC400019303685A6901921A6842F001021A607C
:102AD400019B0268136823F48063136003685A68D7
:102AE40012F4006F38D0222D21D02A2D1FD0426B32
:102AF4001268526892B24285428D92B21AB1026C47
:102B040042F0040202645A6822F400625A60606B64
:102B1400FEF784FD01281FD0636B444A5A63606B3F
:102B2400FEF7C6FCC0B1606B436B984714E0A26B20
:102B34001268526892B26285628D92B21AB1226CA6
:102B440042F0040222645A6822F400625A60A06BC4
:102B5400FEF764FD012842D1638D9BB233B3236831
:102B64005A6912F0040F0AD01A69636A1A70636A08
:102B740001336362638D9BB2013B9BB2638523681F
:102B84005A6912F0400F0AD01A69636A1A70636AAC
:102B940001336362638D9BB2013B9BB26385638D9A
:102BA4009BB21BB1236C43F004032364236C13BB5B
:102BB4002A2D25D094F83D30DBB2282B29D0236B65
:102BC400222B01D0222D19D100232363202284F843
:102BD4003D2084F83E302046FFF750FB0EE0A36B07
:102BE400124A5A63A06BFEF763FC0028B4D0A06BB2
:102BF400436B9847B0E72046FFF79AFE03B030BD19
:102C040000232363282384F83D302046FFF736FB56
:102C1400D0E7074BE36200232363202284F83D209E
:102C240084F83E302046FFF77EFBE7E75128000892
:102C34000000FFFFF8B5044602685568C66A90F8BC
:102C44003E30DBB290F83D10C8B2102B13D0402BAD
:102C540011D0236C002B7AD05369002113F0020F9A
:102C640078D015F4007F75D0236C03B191692046A8
:102C7400FFF72CFBF8BDD2F818C0516911F0010719
:102C840005D1B6F52A0FF5D0B6F12A4FF2D017B117
:102C940015F4007F29D111F0080F02D015F4007F3C
:102CA4002AD111F0020F02D015F4007F28D11CF0B4
:102CB400040F31D0526812F4006FDBD111F0800F91
:102CC40005D015F4806F02D011F0040F1CD011F060
:102CD400040FCFD015F4007FCCD0212818D0402B7E
:102CE400C8D12046FFF7C0FBC4E72046FEF705FF26
:102CF4002046FEF717FDBDE72046FEF767FDB9E75E
:102D04002046FEF779FDB5E72046FFF70FFCB1E753
:102D14002046FFF75AFBADE7536813F4006FA9D1BF
:102D240011F0400F05D015F4806F02D011F0040F9C
:102D340009D011F0040F9DD015F4007F9AD02046DD
:102D4400FFF75FFC96E72046FFF7FBFC92E79169EB
:102D5400536983E713F0100F02D015F4007F18D1E4
:102D640021281AD0292818D013F0400F05D015F4C3
:102D7400806F02D013F0040F28D013F0040F3FF437
:102D840079AF15F4007F3FF475AF2046FEF768FE77
:102D940070E72046FFF788FE6CE713F0800F05D03C
:102DA40015F4806F02D013F0040F0BD013F0040F4E
:102DB4003FF460AF15F4007F3FF45CAF2046FEF7AC
:102DC4003FFE57E72046FFF733FA53E72046FFF765
:102DD40056FA4FE7F8B5044603685D695F6890F8F2
:102DE4003E20D2B215F480760BD017F4807608D04A
:102DF4006FF48071596101680B6843F400430B6000
:102E0400012615F4007F08D017F4807F05D046F022
:102E1400020623686FF40071596115F4806F19D0AC
:102E240017F4807F16D0638D99B294F83D30DBB2ED
:102E3400206B202A1BD023686FF48061596146F00F
:102E44000406102A01D0402A04D12268136843F4EE
:102E54000073136015F4006F17D017F4807F14D03B
:102E640046F0080623686FF400625A610EE00029F8
:102E7400E1D1212B05D0292B03D0282BDBD121280C
:102E8400D9D12046FFF750FAE4E72EB1236C33433F
:102E940023642046FFF74CFDF8BD704700B587B0AA
:102EA4008DF8170079B14FF48073029301230193D5
:102EB4000DF117020092402278210A48FFF704F925
:102EC40007B05DF804FB4FF4807302930123019370
:102ED4000DF117020092002278210248FFF7F4F85E
:102EE400EEE700BFE000002010B5044610B1012C4D
:102EF40005D010BD0021A620FFF7D0FFF7E7002181
:102F0400A720FFF7CBFFF4E710B5044610B1012C5E
:102F140009D010BD0021C820FFF7C0FF0021A12067
:102F2400FFF7BCFFF3E70021C020FFF7B7FF002144
:102F3400A020FFF7B3FFECE738B500250DE0104BF8
:102F440003EBC4030121585DFFF7A8FF0134E4B289
:102F540014F0800FF3D00135EDB2072D0FD8A5F191
:102F640050000021C0B2FFF799FF00210846FFF787
:102F740095FF00211020FFF791FF0024E8E738BDFA
:102F84003801002008B500200BE0094A02EBC30217
:102F9400002111540133DBB213F0800FF5D001305E
:102FA400C0B2072801D80023F6E7FFF7C5FF08BD24
:102FB400380100204FEAD10C01F00701012303FA84
:102FC40001F1C9B242B10C4B03EBC00313F80C205E
:102FD4000A4303F80C207047074A02EBC00212F8B8
:102FE4000C30DB43DBB202F80C300B4302F80C303C
:102FF400DB4302F80C307047380100202DE9F04F14
:1030040085B001900D4616469DF83C7013F00702FA
:1030140018BF012202EBD3080091834600239A468D
:10302400CDF80C80B1463EE0B7FA87F25209294642
:103034005046FFF7BFFF4FEA58080135EDB201349F
:10304400E4B2072C08D818F0010FEDD03A4629460F
:103054005046FFF7AFFFEEE70AF101005FFA80FA8E
:10306400019BAAEB0304B4420FD009F101035FFAF8
:1030740083F9009DB1450FD20E9B13F80B800BF121
:1030840001021FFA82FB0024DBE700980830C3B278
:103094000093DDF804A0E8E75A46D346029BB14604
:1030A40092460133DBB2039A934208D24FF00008F0
:1030B4005246DA4602934E46C1469346DAE705B0D5
:1030C400BDE8F08F08B50021AE20FFF7E7FE002130
:1030D4000846FFF7E3FE00211020FFF7DFFE002182
:1030E4004020FFF7DBFE00218120FFF7D7FE0021FF
:1030F400CF20FFF7D3FE0021A120FFF7CFFE002150
:10310400C820FFF7CBFE0021A620FFF7C7FE002151
:10311400A820FFF7C3FE00213F20FFF7BFFE0021D8
:10312400D320FFF7BBFE00210846FFF7B7FE0021BE
:10313400D520FFF7B3FE00218020FFF7AFFE00216A
:10314400D920FFF7ABFE0021F120FFF7A7FE0021F5
:10315400DA20FFF7A3FE00211220FFF79FFE0021D3
:10316400DB20FFF79BFE00214020FFF797FE0021A4
:103174002020FFF793FE00210220FFF78FFE00219D
:103184008D20FFF78BFE00211420FFF787FE00211E
:10319400A420FFF783FE0021A620FFF77FFEFFF7A0
:1031A400F1FE0021AF20FFF779FE08BD00B583B022
:1031B400FFF788FF0020FFF797FE0020FFF7A4FE2B
:1031C40001230193064B009340231A46002120203B
:1031D400FFF714FFFFF7B0FE03B05DF804FB00BF78
:1031E400D433000800B587B0ADF816204FF47A73D5
:1031F4000293022301930DF11603009310230A4650
:1032040041000348FEF760FF07B05DF804FB00BF10
:103214008C00002008B5164B40F2C3121A8040F20D
:10322400C3321A80032907D8DFE801F00212171C01
:103234000F4B44F2C3321A800D4B1A886FEA424294
:103244006FEA524292B21A800121FFF7CBFF08BD08
:10325400074B45F2C3321A80EEE7054B46F2C33200
:103264001A80E9E7024B47F2C3321A80E4E700BF51
:10327400BA05002008B500214820FFF7CBFF022142
:103284004820FFF7C7FF08BD204B40F2C3121A8045
:1032940040F2C3321A80022801D90020704700B5D9
:1032A40083B0032807D8DFE800F00222272C174B4D
:1032B40044F2C3321A80154B1A886FEA42426FEA0D
:1032C400524292B21A8001214820FFF78BFF0A2054
:1032D400FDF71EFC022301AA90210D48FEF786FE8D
:1032E40001980011019080B203B05DF804FB074B14
:1032F40045F2C3321A80DEE7044B46F2C3321A8029
:10330400D9E7024B47F2C3321A80D4E7BA0500204A
:103314008C00002008B5074B834204D0064A13688A
:103324000133136008BD0223044A90210148FEF7CB
:103334005DFEF3E78C00002028000020B805002083
:10334400FFF7ABFD0B480C490C4A002302E0D458AC
:10335400C4500433C4188C42F9D3094A094C0023DD
:1033640001E013600432A242FBD3FCF739FFFDF7FE
:1033740013F87047000000200C000020DC35000822
:103384000C000020BC050020FEE70000F8B500BFDB
:10339400F8BC08BC9E467047F8B500BFF8BC08BC32
:0433A4009E4670478A
:1033A8000102000002030405060708090A0B0C0DB8
:1033B8000E0F1010000000000102030400000000BE
:1033C80000000000010203040607080900000000CD
:1033D800000080C0E0F0F8F8E0E0F0F8F8F8380015
:1033E80000000000000000000000000000000000D5
:1033F80000000000000000007078F8F8F8F8E0E03D
:10340800F0F8F0E0E080000000000000008080FCA0
:10341800FCFEFE8FEFFFFFFFFF7F3FBD9D81808099
:1034280080808080C0E0F0F8F0FC7C7E7E7CFCF838
:10343800F8E0E0E0C080C08080808D8DBFBF3FFF96
:10344800FFFFFFCFFFFFFEFCFCA00000E8FFFFFF2F
:10345800FFF1FFFFFFFF1F0F010000FFFFFFFF0746
:103468000707070707FFF7FFF9F8F0F0F0F0F0F1AA
:10347800F3F7E3E30307070767FFFFFFFFFF000317
:10348800033FFFFFFFFFFDFFFFFFFFE0FFFFFFFF21
:103498009FFFFFFFFFFF0000000020FFFFFFFFF876
:1034A8000000000008EFFFEFFFFEFEFEEFEEFFF169
:1034B800FFFFFFFF02000000F8FFFFFFFF7F000093
:1034C8000000B7FFFFFFFFFFFFFFFFEF07FFFFFF52
:1034D800FFF7FFFFFFFFFEFEC04000011F3FFFFF99
:1034E800FCF8E0C0A07F7F7F3F0101010101071FB9
:1034F8003F7F7EFCB0F0F0FEFFFFFF1F000000F0F2
:10350800F0FEFFFFFFFFF7FFFFFFFF030000001FB4
:103518001F3F7F7EFFFFDFFFFFFEFEFEFEF0F0F1A4
:10352800C79F1F5F3F7EFEFCF8F8F0F0F0F0F8F858
:10353800FEFEFE7F1F5F8FC7E3F0F8F8FEFEFEFF7A
:10354800DFFFFFFEFF7F7F3F1F020000000000003B
:10355800000001030F0F0F6F7F7F7FFBFFFFFFFF4F
:10356800FFFFFFFFFF7EFEFEFEFFFB7B7BFFFFFEF4
:10357800FEFEFEFEFFFFFFFFFFFFFF7B7B7F7F7FDF
:103588002F0F0F07030300000000000000000000D9
:10359800000000000000000000000000000103031C
:1035A8000303030F0F0F0F0F0F0F0F07030F0F0F5B
:1035B8000F0F0F0F030303030303030000000000B2
:0C35C800000000000000000000000000F7
:0435D400F5020008F4
:0435D800D102000814
:0C35DC00010000001000000000127A0046
:040000050800334577
:00000001FF
